:020000040800F2
:10000000A8FF002045010008152500083523000839
:1000100059240008D90200080D270008000000003C
:10002000000000000000000000000000A9250008FA
:10003000190E000800000000A5250008F926000898
:100040005F0100085F0100085F0100085F01000810
:100050005F0100085F0100085F0100085F01000800
:100060005F0100085F0100085F0100085F010008F0
:100070005F0100085F0100085F0100085F010008E0
:100080005F0100085F0100085F0100085F010008D0
:10009000012700085F0100085F0100085F010008F8
:1000A0005F0100085F0100085F0100085F010008B0
:1000B0005F0100085F0100085F0100085F010008A0
:1000C0005F0100085F0100085F0100085F01000890
:1000D0005F0100085F0100085F0100085F01000880
:1000E0005F0100085F0100085F0100085F01000870
:1000F0005F0100085F0100085F0100085F01000860
:100100005F0100085F0100085F0100085F0100084F
:100110005F0100085F0100085F0100085F0100083F
:100120005F0100085F0100085F0100085F0100082F
:10013000DFF80CD000F06EF8004800478971000825
:10014000A8FF00200648804706480047FEE7FEE774
:10015000FEE7FEE7FEE7FEE7FEE7FEE7FEE7FEE777
:10016000FD2600083101000840EA01039B0703D087
:1001700009E008C9121F08C0042AFAD203E011F8E6
:10018000013B00F8013B521EF9D27047D2B201E0A8
:1001900000F8012B491EFBD270470022F6E710B58C
:1001A00013460A4604461946FFF7F0FF204610BDE5
:1001B0002DE9F05F0546002092469B46884606469C
:1001C000814640241BE0284641464746224600F02F
:1001D00048F853465A46C01A914110D31146184662
:1001E000224600F02FF82D1A67EB01084F462246F1
:1001F0000120002100F026F817EB00094E41201ED7
:10020000A4F10104DFDC484631462A464346BDE8F6
:10021000F09F00001CB50948009009480190054670
:10022000009C06E0E06840F0010394E8070098476E
:100230001034AC42F6D3FFF77FFF0000E08C0008DB
:10024000008D0008202A04DB203A00FA02F1002089
:1002500070479140C2F1200320FA03F31943904004
:100260007047202A04DB203A21FA02F0002170476F
:1002700021FA02F3D040C2F120029140084319460E
:10028000704770B58C1810F8015B15F0070301D1A9
:1002900010F8013B2A1106D110F8012B03E010F8E9
:1002A000016B01F8016B5B1EF9D12B0705D400230C
:1002B000521E0DD401F8013BFAE710F8013BCB1AAE
:1002C000921C03E013F8015B01F8015B521EF9D5A3
:1002D000A142D8D3002070BDFEE7000010B58AB05F
:1002E00000200690CDE90400CDE90200CDE9000030
:1002F00001204CF2CC64CDE907000E20C2F20004CC
:1003000009906946204600F055FE204601F088F924
:100310002046022100F0E4FD0AB010BD10B588B0FF
:100320000C460021CDE902014CF2CC60C2F2000083
:10033000CDE90411CDE906218DF8031000F04AFF44
:100340008DF803009DF8030060B14CF2CC60C2F25E
:10035000000002A901AB224600F0DAFD002818BF18
:1003600000F05CFD08B010BD2DE9F04F81B08B4668
:1003700006460020012103F0D3FF40F2C029078880
:10038000B0F80880C2F2000940F65900A9F8000050
:1003900006F0BCF889F8020087B3002503245FFA51
:1003A00086FA5FFA8BF64FF0000B03E0013F0BF18A
:1003B000010B24D01FFA8BF25046314606F030F87C
:1003C0000028F3D0A4F2FA316FF48062914221D375
:1003D000C17B09EB040209F80410017C013551705E
:1003E000B0F8011045455180C17804F1060411713F
:1003F00090F854005071D9D101E000BF032440F2BD
:10040000C020C2F20000214606F07CFA002001B0B4
:10041000BDE8F08F1420192106F0DCF848F6022020
:10042000C0F600004FF4806107F044F8142001B0DA
:10043000BDE8F08F2DE9F04F81B05FFA80FA5046A9
:10044000002200230C4605F0D1FB40F2C06B804631
:10045000C2F2000B59208BF800003CB10F208BF842
:1004600001000020002103F049FF06E002208BF884
:1004700001000020002103F053FF814606F046F8FA
:100480001FFA88F7002F4FF003018BF8020018BF06
:10049000B9F1000F0AD140F2C060C2F2000006F0CC
:1004A00031FA002001B0BDE8F08F00BF4FF6FE38F2
:1004B00001260625CFF6FF78A5F5806040451BD9BB
:1004C000B1B25046224605F059FE98B1C1780BEB07
:1004D000050202F8011CB0F80110BE4222F8031C0C
:1004E00001780BF8051005F1040503D2002806F188
:1004F0000106E1D1E91ECEE71420192106F06AF8C1
:1005000048F60220C0F600004FF4806106F0D2FFEA
:10051000142001B0BDE8F08F2DE9F04F83B0804684
:10052000044618F8020F002A98F803B00B4614BFCF
:10053000A579002598F8011098F802405FFA8BF72A
:10054000FF2F06D08F2F49D8ABF11006F6B2042E3C
:1005500044D940F6C029C2F20009592689F8006042
:100560000626002B18BF1026002A18BF192689F866
:10057000016016462246CDE9006505F051FD0028D0
:1005800000F0B28090F840A0BAF1000F36D0B0F879
:100590004220FF2F00F1010658D08AB3817AB94278
:1005A0002ED140F2F9318A4200F2EA80B17890F817
:1005B000543089F80410318889F80530A9F8021000
:1005C000816C09F1070301310446184689F806B029
:1005D000FFF7CAFDB4F8420083E000BF11201921E3
:1005E000112405F0F7FF48F6C410C0F6000006F02D
:1005F00061FF204603B0BDE8F08F00BF022481E018
:10060000B0F84410002949D0C27ABA4246D140F22B
:10061000F932914200F2B480B178C27A89F80410BC
:10062000318889F80620A9F8021090F85410B0F823
:10063000442089F80510C16C09F107030131044613
:100640001846FFF791FDB4F844004AE0002A65D04F
:1006500040F2F9318A4200F29380B17890F8543038
:1006600089F80410318889F80530A9F80210817AD8
:10067000836C89F80610591C09F1070304461846D3
:10068000FFF772FDB4F84210AAF1010A20465FEAB2
:100690000A6201F1070442D134E000BFB0F846100D
:1006A00011B3027BBA421FD140F2F932914267D8AE
:1006B000B178027B89F80410318889F80620A9F8FE
:1006C000021090F85410B0F8462089F80510016D1A
:1006D00009F10703013104461846FFF745FDB4F858
:1006E0004600C41D0EE000BF0224B8F8000009EB6C
:1006F000040529F8040098F80200A87005F006FF28
:10070000E870043440F6C020C2F20000214606F032
:10071000F9F80024204603B0BDE8F08F0224B0F8B9
:10072000441021B3651D2944B1F5806F28D8318864
:1007300009EB040229F80410B17809EB0503917064
:1007400090F854100446D170C17A1171C16CB0F8A0
:10075000442001311846FFF707FDB4F84410AAF110
:10076000010A20465FEA0A6205EB0104CAD0B0F82C
:1007700046100029B9D0651D2944B1F5806F11D903
:1007800014201921142405F025FF48F60220C0F694
:1007900000004FF4806106F08DFE204603B0BDE8F6
:1007A000F08F00BF318809EB040229F80410B178FA
:1007B00009EB0503917090F854100446D170017B49
:1007C0001171016DB0F8462001311846FFF7CCFCDD
:1007D000B4F846005FFA8AF1012905EB00047FF4C2
:1007E00084AF8FE72DE9F04F81B05FFA80FA0021E6
:1007F000BAF1EF0F009161D8A0F11001C9B205293B
:100800005CD340F6C062C2F2000241F259619070BE
:100810005046118005F0AEFA00285FD0054600264C
:100820004FF0030BE94621E0B0F8011040F6C06339
:10083000C2F2000323F80B10C17803EB0B02917096
:1008400090F8541000EB8400D170806C434437F86A
:100850001420411C1846FFF787FC37F8140008EBFA
:10086000000B013D280606F1010639D0B1B2504611
:100870004A4605F021FA0028F3D090F840100029EC
:10088000EFD0009C00F1420737F814100BF1040878
:100890004144B1F5806FC7D914201921142405F003
:1008A00099FE48F60220C0F600004FF4806106F081
:1008B00001FE204601B0BDE8F08F00BF31201921B4
:1008C000312405F087FE48F6C410C0F6000006F09B
:1008D000F1FD204601B0BDE8F08F00BF4FF0030BE3
:1008E00040F6C060C2F20000594606F00BF8002442
:1008F000204601B0BDE8F08F2DE9F04F85B0002013
:10090000012103F00DFDB0F800A0B0F80A8041F21B
:10091000C02BC2F2000B40F25930BAF1000F4FF079
:100920000204ABF8000000F09B804FF000090025A6
:100930000027CDE9018A10E0ACF10100049AC0B2B1
:100940001044451C0C46A8B2804500F08980013750
:1009500009F10109D14500F08380B8B205F09EFD90
:100960000028F5D090F818C004EB8C01B1F5806F29
:1009700000F28280BCF1000FE5D0BCF1040F00F161
:100980000102049504D200231CF003063ED1D3E7F4
:100990000CF0FC0E65420BEB040800236FF008011D
:1009A000039700BF178808EB830628F82370977811
:1009B00008EB010BB770C71897F804A004338BF845
:1009C0000CA09478103DB47114889E45B4807C7955
:1009D00001F110018BF810409478B47214883481BE
:1009E000BC79F4729478B4731488B481FC798BF870
:1009F0001840D7D16942DDE9018A41F2C02B039F3B
:100A00000C46C2F2000B1CF0030695D01188051DA0
:100A10002BF8041091780BEB04008170E95C012E37
:100A2000C17004F104013FF487AFB2F800E02B4439
:100A30002BF801E0957859448D705978022EC171D8
:100A400004F108013FF478AF16882BF80160927822
:100A500059448A709978C17204F10C016CE700BFA7
:100A600041F2C020C2F20000214605F04BFF0020F9
:100A700005B0BDE8F08F00BF1420192105F0AAFDD4
:100A800048F60220C0F600004FF4806106F012FD27
:100A9000142005B0BDE8F08F2DE9F04383B0054682
:100AA000044615F8020F00296B78AA784FEA03274D
:100AB00047EA004707EB020640F20657C0F2040778
:100AC00014BF94F806C04FF0000CBE420ED1312086
:100AD0001421312405F07EFD48F69510C0F6000083
:100AE00006F0E8FC204603B0BDE8F083EE78102E57
:100AF00001D0202E0CD131201421312405F06AFDC3
:100B00005DA006F0D7FC204603B0BDE8F08300BF2F
:100B100041F2C069C2F20009592789F80070042720
:100B2000002918BF182789F801700F4619460023BD
:100B3000CDE9007C05F074FA90B1017E71B1FF2E11
:100B400024D1858B418B002D18BF01250029C18B35
:100B500018BF0135002918BF0135C5B9022109E0C8
:100B6000A878617989F80400288889F80510062199
:100B7000A9F8020041F2C060C2F2000005F0C2FE16
:100B80000024204603B0BDE8F08300BF0125418B5F
:100B9000B1F57E7F10D914201921142405F01AFD17
:100BA00048F60220C0F600004FF4806106F082FC97
:100BB000204603B0BDE8F083461CB17890F854207D
:100BC00089F80410318889F805200279A9F8021003
:100BD000016A89F8062011F8013B428B89F8073039
:100BE00009F1080307461846FFF7BEFA788B022D75
:100BF00000F10801BED3BB8B00F10E0843443A4616
:100C0000B3F5806FC7D83388484429F80130B378EA
:100C100049448B7092F85410C17251790173516A32
:100C200009784173516A928B09EB08000131FFF793
:100C30009BFAB88B022D08EB00019BD0F88B8C1D22
:100C40002044B0F5806FA6D8308829F80100B0782C
:100C50004944887097F85400C870B8790871B86A28
:100C600000784871B96AFA8B09EB04000131FFF78B
:100C70007BFAF88B21187DE75B434841524F4E5D6C
:100C80002052657175657374206E6F742076616C87
:100C900069642C20536E617053686F74206E6F749A
:100CA00020737570706F727465642E002DE9F041C9
:100CB0000C4606460020002103F032FBB578A5F172
:100CC000FA0005280AD211201921112405F082FC0E
:100CD00043A006F0EFFB2046BDE8F081002DF2D0E6
:100CE000FF2D0BD13046214605F0A0FA044600281E
:100CF00018BF14242046BDE8F08100BF284605F047
:100D0000F7F9044641F6C027C2F2000740F25950F5
:100D10003880FCB194F82C0000B3E07904F10108AC
:100D200085421DD1BD70B8F80000616BA7F80300C3
:100D300098F80200E28D787194F85400B87111F8B7
:100D4000010BF87107F10800FFF70EFAE08D00F1D2
:100D5000080106E0B0780321B87038E0022136E0DF
:100D60000221207A854217D17D54B8F800007A1804
:100D7000A2F8010098F802008E1DD07094F854007B
:100D80001071A06B00785071A16B228EB8190131DF
:100D9000FFF7EAF9208E3118607A854217D17D5429
:100DA000B8F800007A18A2F8010098F802008D1D2A
:100DB000D07094F854001071E06B00785071E16BC2
:100DC000628E78190131FFF7CFF9608E291841F64C
:100DD000C020C2F2000005F095FD0020BDE8F081C2
:100DE0005B434841524F4E5D205265717565737487
:100DF000206E6F742076616C69642C20446174618C
:100E00005265636F7264206E6F7420737570706FBB
:100E1000727465642E00000070470000EFF31080CC
:100E200072B600BFFEE70000B0B50020012103F05C
:100E300077FA41F6C0650446C2F2000540F6594013
:100E4000288005F063FBE169A870022908D203211C
:100E500041F6C060C2F20000BDE8B04005F052BDEE
:100E6000C8786871B1F8010091F85410A5F8030032
:100E7000A971072141F6C060C2F20000BDE8B04090
:100E800005F040BDB0B50020012103F049FA42F25F
:100E9000C0250446C2F2000540F65930288005F00E
:100EA00035FBA169A870022908D2032142F2C020B3
:100EB000C2F20000BDE8B04005F024BDC8786871FA
:100EC000B1F8010091F85410A5F80300A9710721A9
:100ED00042F2C020C2F20000BDE8B04005F012BDF1
:100EE00090F82020013A012A08D8006800F1140285
:100EF0000020136819431160704700BF00F12402FD
:100F000001204FF4802113681943116070470000DD
:100F100010B590F820E0D0F800C0AEF1010EBEF19F
:100F2000010FDCF808E011D81EF0E05F18D0CEF316
:100F300001640120A04018608B68DBB1D1F804E0A7
:100F4000C86840EACE0040EA030E17E000F124032F
:100F500001204FF480211A681143196010BD00BFB1
:100F600000F1240301204FF400111A6811431960A5
:100F700010BD00BF0868CB6843EA405E0CF5C07046
:100F800000EB0413240140F804E00C69184640F813
:100F9000044F097D012903D1016841F4807101608A
:100FA00050680121D8601068986000201A681143C9
:100FB000196010BD026890F82030013B012B29D840
:100FC000B0B5D2F80002012340F00100C2F80002DF
:100FD000D1F814E0CC690EF01F0003FA00F0D2F84B
:100FE0001C326FEA000C8343012CC2F81C3217D06C
:100FF0006CBBD2F80C3203EA0C03C2F80C32CB689B
:101000008C8844EA034302EBCE04C4F840320B461A
:1010100015E000BF416A41F4802141620120704720
:10102000D2F80C320343C2F80C320B688C8844EAC5
:10103000034302EBCE04C4F8403201F10C038D6887
:101040001B8802EBCE0443EA0543C4F84432D2F8CD
:1010500004328C6943EA0005D1F810E0096A002CDB
:1010600008BF03EA0C05C2F80452D2F81432BEF1EC
:10107000000F43EA000408BF03EA0C040129C2F888
:10108000144204D1D2F81C120843C2F81C02D2F850
:10109000000220F00100C2F800020020B0BD0000F4
:1010A00070470000B0B590F82040013C012C7DD87D
:1010B000D0F800C000290CBFDCF80C40DCF8104070
:1010C000A4077DD00CF5D8754FEA011C55F80C40EB
:1010D00014F00404946055F80CE005EB011C19BFF2
:1010E0004FEADE0555604FEA5E551560DCF80050AA
:1010F000E64605F00205D5605EF8044F24075ABFA6
:10110000DEF8004004F00F0408241461DEF800400B
:101110000029C4F307249461DEF800504FEA154516
:101120005561DCF808201A70026802EB0112D2F84F
:10113000B8214FEA12225A70026802EB0112D2F86B
:10114000B8214FEA12429A70026802EB0112D2F8FB
:10115000B8214FEA1262DA70026802EB0112D2F88B
:10116000BC211A71026802EB0112D2F8BC214FEACD
:1011700012225A71026802EB0112D2F8BC214FEA26
:1011800012429A71026802EB0112D2F8BC214FEAB6
:101190001262DA7100680CBF00F10C0100F110015D
:1011A000002020220B681A430A60B0BD00F1240120
:1011B00001204FF480220B681A430A60B0BD00BFC3
:1011C00000F1240101204FF400120B681A430A6059
:1011D000B0BD000090F820100139012984BF002023
:1011E00070470068816882688068C1F38061C2F3DB
:1011F000C0621144C0F30070084470472DE9F04FFD
:1012000081B0044600684669D0F804908768D0F839
:101210000CB0D0F810A0D0F81880F10704D1002548
:1012200030071DD424E000BFF90710D00121BA0710
:10123000816009D4780700F1AF80380700F1B680EB
:10124000204600F01BFA02E0204600F019FA0025C3
:10125000F80500F18780F80300F1B180300707D569
:101260001BF0100004D0206845F400751021C16007
:10127000700708D51BF0080005D020680821C16060
:10128000204600F0ADF9B00706D52068C068800799
:1012900002D0204600F0A6F9700607D51AF010001B
:1012A00004D0206845F4806510210161B00608D59E
:1012B0001AF0080005D0206808210161204600F0DE
:1012C000A9F9F00606D520680069800702D02046FB
:1012D00000F0A2F9B00308D519F0100005D020687D
:1012E00010214160204600F099F9F00308D519F06B
:1012F000080005D0206808214160204600F0CAF9A6
:10130000300440F19B805FEA497040F1948006F41C
:10131000807008EA102028435FEA8871014648BFC0
:1013200041F00201B20558BF01465FEA48700D4620
:1013300048BF45F00405700558BF0D46300540F123
:101340007A8018F0700000F07680103800090528C7
:101350006CD8DFE800F003655D61596945F0080568
:1013600064E000BF20684FF48071BA0581600BD43F
:10137000780515D438051DD4204600F083F9F8030C
:101380007FF56CAF1BE000BF204600F07DF9F8034D
:101390007FF564AF13E000BF4FF4006558E700BF6E
:1013A00005F50055F8037FF559AF08E04FF4805577
:1013B0004EE700BF05F58045F8037FF54FAF206885
:1013C0004FF48031BA0381600AD4780310D4380313
:1013D00014D4204600F05AF930073FF541AF47E7F3
:1013E000204600F055F930073FF53AAF40E700BF1F
:1013F00005F5004530073FF533AF39E705F5803592
:1014000030073FF52DAF33E745F080050EE000BF14
:1014100045F020050AE000BF45F0400506E000BFAA
:1014200045F0100502E000BF45F480752068816931
:1014300021F07001816120680421416055B1606A2A
:1014400040EA05012046616201B0BDE8F04FFFF7B8
:1014500027BE00BF01B0BDE8F08F0000002804BF28
:1014600001207047B0B5044690F8200010B920461E
:1014700000F06EF82068016841F00101016000F0A1
:1014800005FA054620684168C90705D100F0FEF954
:10149000401B0B28F6D310E0016821F00201016027
:1014A00000F0F4F9054600BF2068416889070DD5B2
:1014B00000F0ECF9401B0B28F6D3606A052140F4DC
:1014C00000306062012084F82010B0BD217E0268E7
:1014D000012922F0800208BF80320260617E02682A
:1014E000012922F0400208BF40320260A17E02685A
:1014F000012922F0200208BF20320260E17E02684A
:10150000012922F0100218BF10320260217F026808
:10151000012922F0080208BF08320260617F0268D8
:10152000012922F0040208BF04320260D4E901C29A
:10153000D4E9033561691A432A431143ACF101022E
:101540001143C16100200121606284F82010B0BD08
:10155000B0B586B040F60004C4F201040068A4F5FA
:101560002442002190420591CDE90311029101D05E
:1015700006B0B0BD41F21800C4F20200426802ADEC
:1015800042F000724260426802F000720192019AD9
:10159000026842F004020260006800F0040001905A
:1015A00001984FF40060CDE90201049120462946DC
:1015B00000F072F84FF48050029002200390032054
:1015C00005902046294600F067F8142000210022EB
:1015D00000F0DCF9142000F0C7F906B0B0BD00003F
:1015E0007047000080B58AB003AA01AB0021FFF765
:1015F00059FD60B90398B0F5FC6F08D19DF81C2027
:101600004CF24070C2F2000001A905F045FA0AB0A0
:1016100080BD000070470000704700007047000068
:10162000B0B5044690F8200001281DD1022084F8AE
:1016300020002068016821F00101016000F026F916
:10164000054600BF20684068C00713D000F01EF9AF
:10165000401B0B28F6D3606A40F40030606205201E
:1016600084F820000120B0BD606A40F40020606270
:101670000120B0BD00206062B0BD000070470000D6
:10168000704700007047000070470000704700007E
:1016900070470000704700002DE9F04F82B00E68DF
:1016A000002E00F0E980A0F1804241F6004540F2B2
:1016B0000043A2F58432C4F201050624C4F20103FA
:1016C0004FEAB227A84208BF05244FF0000E4FF0A2
:1016D00001080F254FF0000A4FF0000B052F38BF0F
:1016E0004FEAB224009408E00E680AF1010A36FAC3
:1016F0000AF20EF1040E00F0BF8008FA0AFC16EAA6
:101700000C09F1D04E684FF6FF72C1F210029642FA
:1017100012DC122E56D8DFE806F0350B4D49555530
:10172000555555555555555555555545510000BFBD
:10173000D1F80CB046E000BF4FF6FF72C1F22102B3
:1017400096420FDC0022C1F2110296421AD000220A
:10175000C1F21202964215D00022C1F22102964235
:1017600010D02FE00022C1F2220296420AD00022BD
:10177000C1F23102964205D00022C1F232029642F5
:1017800020D100BF8A684AB1012A14BFC0F814C032
:10179000C0F810C04FF0080B14E000BF4FF0040B6E
:1017A00010E000BFCA6802F1040B0BE04FF0000B21
:1017B00008E000BFCA6802F1080B03E0CA6802F142
:1017C0000C0B00BF02467446B9F5807F24BF04327B
:1017D000203C166805FA04F726EA07070BFA04F618
:1017E00037431760CA79D2067FF57EAF41F21807FA
:1017F000C4F202073A684FF6084542F001023A6027
:101800003A68CFF6FF7502F001020192019A2AF0C0
:1018100003021A440F2457590EF00C06B440A74394
:10182000009C04FA06F6374357514E6840F20C44C8
:10183000F2029A6854BF22EA090242EA0902C4F29B
:1018400001049A602268B70254BF22EA090242EA00
:10185000090222605A68B70354BF22EA090242EA29
:1018600009025A600F251A68F70354BF22EA0902D9
:1018700042EA09021A6037E702B0BDE8F08F0000C3
:10188000002A08BF09040161704700004EF6A070ED
:10189000C2F200000068704740F208004EF6A071E6
:1018A000C2F20000C2F2000100780A681044086029
:1018B0007047000080B542F20000C4F202000168E7
:1018C00041F010010160032000F08CF80F2000F0BF
:1018D00005F800F027F8002080BD000070B540F248
:1018E0000806C2F2000640F21C013278C2F2000182
:1018F0004FF47A730968B3FBF2F20446B1FBF2F1DC
:10190000084600F085FB0F2C4FF0010508D838B9C8
:101910004FF0FF3021460022002500F037F87460B8
:10192000284670BD82B041F21800C4F2020001687E
:10193000022241F001010160016801F00101019101
:101940000199416841F080514160406800F0805049
:10195000009000980420C4F20100016862F31A614B
:10196000016002B070470000002848BF704700F0D7
:101970001F01012202FA01F11C2202EAD0004EF2FC
:101980000012CEF2000281507047000010B54EF6F2
:101990000C5CCEF2000CDCF80030C3F3022E8EF0AB
:1019A0000704042C28BF0424BEF103034FF0FF3EBC
:1019B0000EFA04F438BF0023A14399400EFA03F352
:1019C0009A43114300F00F0200F160430901043A09
:1019D00003F564436244002848BF02F10C03197008
:1019E00010BD00004EF60C51CEF200010A684FF611
:1019F000FF031A4060F30A2242F0806040F0FD705D
:101A000008607047002804BF012070472DE9F043AB
:101A100081B042F20008C4F202080446D8F800007F
:101A20000D4600F0070088420CD2D8F8000020F0E4
:101A300007002843C8F80000D8F8000000F00700AD
:101A4000A8426CD1206841F204098107C4F202095E
:101A500017D5410705D5D9F8001041F4E061C9F860
:101A60000010010705D5D9F8001041F46051C9F8FC
:101A70000010D9F80010A26821F0F0011143C9F854
:101A80000010C00742D1D8F8000000F00700A842BB
:101A90000CD9D8F8000020F007002843C8F800004F
:101AA000D8F8000000F00700A84238D120684107AC
:101AB00007D5D9F80010E26821F4E0611143C9F8B4
:101AC0000010000708D5D9F80000216920F4605003
:101AD00040EAC100C9F80000D9F8002002F00C006B
:101AE000082841F20020C0F27A004DD147F62A239F
:101AF000C2F38341C0F60003595CD20338D440F6E8
:101B00000010C0F23D0048433EE000BF606859F855
:101B1000041C022808D0012826D1890306D40120FC
:101B200001B0BDE8F08300BF8901F8D5D9F80010F5
:101B300021F003010843C9F80000FFF7A7FE06469D
:101B400041F28837D9F80000616800F00C00B0EB72
:101B5000810F98D0FFF79AFE801BB842F2D903207C
:101B600001B0BDE8F08300BF8907D8D5DEE700BF2C
:101B7000D9F8002047F62823C2F34042C0F60003FC
:101B80009A5C4843B0FBF2F0D9F8001047F61022F7
:101B9000C1F30311C0F60002515C40F21C0220FAAE
:101BA00001F140F20C00C2F200000068C2F2000233
:101BB0001160FFF793FE002001B0BDE8F083000044
:101BC00040F21C0041F20401C2F20000C4F2020122
:101BD0000068096847F62022C1F30221C0F600021E
:101BE000515CC8407047000040F21C0041F2040103
:101BF000C2F20000C4F202010068096847F6202220
:101C0000C1F3C221C0F60002515CC8407047000019
:101C1000002804BF012070472DE9F04182B004463E
:101C2000007841F20006C007C4F202060CD07068CA
:101C300000F00C00042840F081803068800303D558
:101C40006068002800F04681207880071BD5706806
:101C500010F00C0F09D0706800F00C00082840F05C
:101C600087807068C00300F183803068800703D5E7
:101C70002069012840F02E813068616920F0F80069
:101C800040EAC10030602078000713D42078400774
:101C90002CD4E569002D00F01881706800F00C006C
:101CA000082840F0A780012D40F00481012002B0F7
:101CB000BDE8F081A069002800F084800020C4F213
:101CC00042200121C0F88014FFF7E0FD054600BF67
:101CD000706A800700F1B280FFF7D8FD401B022830
:101CE000F6D9032002B0BDE8F08100BFF0695FEAD9
:101CF000C00808D4F06940F08050F061F06900F04D
:101D000080500090009847F20007C4F2000738683E
:101D1000C00549D4386840F480703860FFF7B6FDDC
:101D2000054600BF3868C0053ED4FFF7AFFD401B35
:101D30006428F7D9032002B0BDE8F081706800F094
:101D40000C00082803D17068C0033FF576AF6168C6
:101D50003068002900F00C81B1F5A02F00F000815F
:101D6000B1F5803F40F01A8140F480301CE100BFA3
:101D70002069002840F20000C4F2422000F0888070
:101D800001210160FFF782FD054600BF3068800732
:101D90003FF572AFFFF77AFD401B0228F6D903200A
:101DA00002B0BDE8F08100BFE168306A002900F0B0
:101DB0009D80052900F09280012940F0AF8040F01D
:101DC0000100B1E00020C4F242200021C0F88014DC
:101DD000FFF75CFD054600BF706A80077FF556AFD0
:101DE000FFF754FD401B0228F6D9032002B0BDE8DE
:101DF000F08100BF0027C4F2422700203866FFF7B9
:101E000045FD022D05460DD13068800140F1DE8090
:101E1000FFF73CFD401B02284FF00300F4D902B04D
:101E2000BDE8F081306880014FD5FFF72FFD401BE2
:101E300002284FF00300F5D9F1E700BF40F21C0083
:101E4000C2F20000006844F6D351C1F26201A0FB67
:101E50000101480A019000BF00BF0198411E0028FF
:101E600001913FF413AF00BF0198411E002801917A
:101E70003FF40CAF00BF0198411E002801913FF4D0
:101E800005AF00BF0198411E00280191E4D1FDE695
:101E900000210160FFF7FAFC054600BF30688007AB
:101EA0007FF5F1AEFFF7F2FC401B02284FF0030074
:101EB000F4D9B4E77068216A00F480328A4209D10B
:101EC000616A00F47010884204D1002002B0BDE8BD
:101ED000F08100BF012002B0BDE8F08140F00400B5
:101EE0003062306A40F001001EE000BF20F00100C7
:101EF0003062306A20F004003062FFF7C7FC05460C
:101F000041F28837306A800720D5FFF7BFFC401BBD
:101F1000B8424FF00300F5D981E700BF20F001007F
:101F20003062306A20F004003062FFF7AFFC0546F3
:101F300041F28837306A800708D4FFF7A7FC401BBE
:101F4000B842F7D9032002B0BDE8F081B8F1000F24
:101F50003FF59FAEF06920F08050F06199E600BF38
:101F600040F480203060306840F480301CE000BFD6
:101F700020F480303060306820F480203060FFF73B
:101F800085FC0546306880037FF55EAEFFF77EFC7A
:101F9000401B64284FF00300F4D940E720F4803060
:101FA0003060306820F480203060FFF76FFC054619
:101FB000306880033FF548AEFFF768FC401B64289B
:101FC000F6D9032002B0BDE8F08100BF206AB0F569
:101FD000803F05D17168A26821F40031114371601E
:101FE0007168626A21F47411114308437060012022
:101FF0003866FFF74BFC0446306880013FF565AF5B
:10200000FFF744FC001B02284FF00300F4D906E759
:10201000411E0020B0EB116F1CBF012070474EF233
:102020001002CEF2000251604EF62351CEF20001B2
:10203000F0230B700721906011607047002804BFE7
:102040000120704710B5044690F8410028B90020DF
:1020500084F84000204600F063F8242084F8410012
:102060002068D4E90212C36823F40053C3600369F3
:1020700023F440531A430261D4E904231143C26894
:10208000194341F20C639A431143C1604169A2694B
:1020900021F44071114343F60002C4F20102904260
:1020A000416103D0FFF78CFD02E000BFFFF79CFD0C
:1020B000D4E90023192148439900B0FBF1F048F21C
:1020C0001F5CC5F2EB1CA0FB0C314FF69C73490959
:1020D000C0F6FF7301FB0300322303EB0010A0FBEB
:1020E0000C03F02000EA531000EB0110C3F343117E
:1020F000084490601069202120F4904010615069DC
:1021000020F02A005061D06840F40050D0600020D8
:10211000606484F8411084F84210606310BD0000D0
:1021200070B586B040F60004C4F20104006804F5FE
:102130004051002688420596CDE90366029601D0FB
:1021400006B070BD41F21800C4F20200016802AD91
:1021500041F480410160016801F4804101910199DD
:10216000016841F0040101600068294600F00400A4
:10217000019001984FF40070029002200390032018
:1021800005902046FFF788FA4FF48060CDE90206FB
:10219000204629460496FFF77FFA06B070BD00007E
:1021A0002DE9F04381B0044690F84100202809D180
:1021B00000294FF0010018BF002A07D101B0BDE887
:1021C000F08300BF022001B0BDE8F083002060640E
:1021D00021201D460E4684F841001746FFF756FBA6
:1021E000A784E784A1688146B1F5805F02D12069A8
:1021F00000285DD037460020E28C2168002A5DD09F
:102200006A1C24D0002D4AD0804600BF0868000612
:1022100008D4FFF73BFBA0EB0900A8427AD821685D
:10222000C868F3E717B117F8010B04E038F8020BA0
:1022300000276FF35F204860E08C0138E084E08C79
:102240000028E3D13AE000BF0A68120609D40A6800
:10225000120606D40A6812065CBF0A685FEA0262C8
:10226000F2D51FB117F8012B05E000BF30F8022BA3
:1022700000276FF35F224A60E28C013AE284E28C2D
:10228000002AE4D11AE000BF30F8022B00276FF3D8
:102290005F224A60E28C013AE284E28C72B10A6801
:1022A000120635D5002FEFD017F8012BF1E700BF4C
:1022B00000273046E28C2168002AA1D10868400638
:1022C0001ED42DB3681C14D1086840062AD40868AF
:1022D000400627D40868400624D4086840064FF01A
:1022E0000000F1D50DE000BF2068C168006840061D
:1022F00018D4FFF7CBFAA0EB0900A842F4D909E003
:102300000020202184F8411001B0BDE8F08300BF17
:10231000FFF7BCFA0320202184F8411001B0BDE88A
:10232000F08300BF0020202184F8411001B0BDE8F7
:10233000F0830000FEE7000010B54CF2CC6046F2DE
:102340000041C2F20000C4F20001092200234FF054
:10235000807480E80E0000F10C014FF4802C4FF4E3
:10236000801E81E8085084618383FFF777F8002896
:1023700008BF10BDBDE81040FEF750BD2DE9F04389
:1023800085B00020CDE90300CDE9010041F218003D
:10239000C4F20200016840F6004941F040010160CA
:1023A0000168C4F2010901F040010091009901683F
:1023B00009F5406541F0040101600168012201F066
:1023C00004010091009901684FF0200841F00801D4
:1023D00001600068202100F0080000900098284665
:1023E0000127FFF74DFA484620210122FFF748FA5E
:1023F00001AE032428463146CDE9018703970494B2
:10240000FFF74AF948463146CDE90187CDE9037423
:10241000FFF742F905B0BDE8F083000080B54CF24B
:10242000F46043F60001C2F20000C4F2010100238F
:102430004FF00C0C4FF4E13280E80E00C0E903339A
:10244000C0E905C3C361FFF7F9FD002808BF80BDDF
:10245000BDE88040FEF7E2BCFEE70000B0B500201A
:10246000012101F05DFF42F2C0650446C2F20005A1
:1024700040F65960288004F049F8616AA87089B173
:10248000C8786871B1F8010091F85410A5F80300FC
:10249000A971072142F2C060C2F20000BDE8B0405D
:1024A00004F030BA032142F2C060C2F20000BDE87D
:1024B000B04004F027BA0000B0B50020012101F0BF
:1024C0002FFF42F6C0250446C2F2000540F65950DF
:1024D000288004F01BF8216AA87089B1C878687157
:1024E000B1F8010091F85410A5F80300A971072173
:1024F00042F6C020C2F20000BDE8B04004F002BACB
:10250000032142F6C020C2F20000BDE8B04004F052
:10251000F9B90000FEE70000B0B5C0B2C9B203F0DF
:102520002FFB42F6C0650446C2F2000540F2597026
:10253000288003F0EBFFA8700120E870AC802846EB
:1025400006212C71BDE8B04004F0DCB970B503463B
:10255000807843F2C024C2F200044AB1DB78012241
:1025600003F044FB05465920207017200CE000BF03
:10257000002200230E4603F039FB05465920207047
:102580000120002E18BF1120607003F0BFFFA07063
:102590000120E07020460621A580BDE8704004F0CF
:1025A000B1B9000070470000704700002DE9F0430A
:1025B00083B00446002000214FF0000901F0B0FE76
:1025C00014F8025F49F2C8286678A778C2F20008BA
:1025D00040F65910A8F8000003F098FF88F80200B0
:1025E000284631463A460023CDF80090CDF80490B5
:1025F00003F016FD80B1B0F80F10A8F80310B0F882
:102600000110A8F80510C17890F8540088F8071058
:1026100088F80800092106E0A078062188F805005E
:102620002088A8F8030049F2C820C2F2000003B0D5
:10263000BDE8F04304F066B92DE9F0470020002121
:1026400001F06EFE80460020012101F069FE49F292
:10265000C86905460488B0F808A0C2F2000940F62F
:102660005920A9F8000003F051FFBAF5807F89F8DE
:1026700002000FD914201921142403F0ABFF48F6EF
:102680000220C0F600004FF4806104F013FF2046E2
:10269000BDE8F08734B305F13000621E08F1540341
:1026A00003210025002400BFC5F3C707C75D05F05F
:1026B0000706F740FF070CD033F8537C09EB0106FF
:1026C00029F8017013F8517C0431B7701F78013478
:1026D000F770544507D0AA4205F1010503F15803EC
:1026E000E2D100E0032149F2C860C2F2000004F028
:1026F00009F90020BDE8F087FFF7CEB87047000069
:102700004CF2CC60C2F20000FEF778BDFEE700009C
:1027100084B040F20005C2F2000514460E4607469A
:1027200047A0162101222B4605F046F938462946D6
:1027300005F036F948A0072101222B4605F03CF9A7
:102740003046294605F02CF945A0072101222B46E9
:1027500005F032F901A80A300A21012CADF80E105B
:1027600052DB4CF6CD4C49F69A1248F21F5E44F605
:10277000D35841F25979CCF6CC4CC1F69912C5F236
:10278000EB1EC1F26208CDF2B71942F2107500BF1C
:10279000A4FB0C13D90801EB8103A4EB430343F022
:1027A00030030A2C00F8013C36D3A1FB023707EBBB
:1027B0008703A1EB430141F03001642C00F8021CB7
:1027C0002ED3A4FB0E135909A1FB023707EB870395
:1027D000A1EB430141F03001B4F57A7F00F8031C0E
:1027E00022D3A4FB08139909A1FB0237A4FB0936E5
:1027F00007EB8703A1EB430141F0300100F8041D12
:10280000AC424FEA5634C3D240F20001C2F200019A
:1028100005F0C6F800F028F84FF0FF3106E000BFE1
:102820006FF0010102E000BF6FF00201084440F2C6
:102830000001C2F2000105F0B3F800F015F800BF86
:102840002A2A2A20617373657274696F6E2066612B
:10285000696C65643A2000002C2066696C65200074
:102860002C206C696E652000FEE7000010B500208A
:10287000012101F055FD018D044619B104F130002C
:10288000FDF78BFC638D03B303F0030C0022042BD4
:102890004FF0000108D323F0030300BF6018043198
:1028A0008B42C0F83F20F9D1BCF1000F0DD004F1EC
:1028B0003F030022BCF1010F5A5406D01944BCF169
:1028C000020F4A701CBF00208870A38DF3B103F083
:1028D000030C0022042B4FF0000106D323F0030366
:1028E000601804318B420265FAD1BCF1000F0DD0A3
:1028F00004F150030022BCF1010F5A5406D01944D0
:10290000BCF1020F4A701CBF00208870E38D03B336
:1029100003F0030C0022042B4FF0000108D323F036
:10292000030300BF601804318B42C0F86120F9D165
:10293000BCF1000F0DD004F161030022BCF1010FC6
:102940005A5406D01944BCF1020F4A701CBF002033
:10295000887000200E21C4E90400C4E90600C4E91F
:1029600008004BF6EF60C0F20D014FF00D12CDF6EE
:10297000AD60C4E90A12606702F0B8F802A0BDE8D1
:10298000104005F02DB800BF5B434841524F4E5DEB
:102990002044544320686561646572206973206E29
:1029A0006F77207365742E0D000000002DE9F04F45
:1029B00085B04278032A67D0022A41D0012A79D112
:1029C00007296DD9B0F80280054640460C4603F051
:1029D000C3FD002800F0728104F57F718908B0F80A
:1029E00008A0CCB24BF6CB69002CC2F2000900F073
:1029F00007812F1D002500BF388803F0ADFD00289A
:102A000000F05C81FE78002E00F05881A9B20AEB3C
:102A100001023244142A00F25181BA78002A00F0EF
:102A20004D81C068494410440138324601F0A8FC89
:102A30003544013C07F10407DED1AEB2E1E000BF4E
:102A40000579002206290492039229D944888046F8
:102A500020468A4603F080FD002800F02F812E09D1
:102A600005F00F07711E7A1E1143042980F026819C
:102A700007EB1519AAF1050100898945029040F27A
:102A8000D780002502E100BF042900F087800229D9
:102A900006D14BF2CB640025C2F2000400261FE0F1
:102AA00013202C21132403F095FD204605B0BDE82A
:102AB000F08F00BF12202C21122403F08BFD204642
:102AC00005B0BDE8F08F00BF0022C1680746084688
:102AD000214601F05FFCBD600136B0B2FF2853D043
:102AE00046F4724080B203F037FD28B3417F19B33A
:102AF000017F09BB8168B9B1002100BF65548268BC
:102B00004B1C934211D263185D7082688F1C9742F0
:102B10000BD29D708268CF1C974206D2DD7082680E
:102B200004319142EAD300E00022C168074608461A
:102B3000214601F02FFCBD6046F4734080B203F0E3
:102B40000BFD0028C8D0417F0029C5D0017F002996
:102B5000C2D181680029B7D0002100BF65548268C6
:102B60004B1C9342B1D263185D7082688F1C9742F0
:102B7000ABD29D708268CF1C9742A6D2DD7082686E
:102B800004319142EAD3A0E74BF6CB20C2F2000019
:102B90004FF45B7101800221AFE000BF0446408822
:102BA00000BA000C03F0D8FC002800F09C80417FA4
:102BB000002900F09880017F002940F0948081680E
:102BC0000025002900F084804BF2CB61C2F20001A5
:102BD0000023CD5482685F1C97427AD2CF187D7053
:102BE00082689E1C964274D2BD708268DE1C96423A
:102BF0006FD2FD70826804339342EAD369E000BF6C
:102C00000026404603F0A8FC06EB0A01C26881607A
:102C10000121417702EB0A004946324601F0BAFB36
:102C20004FF4B670A9F80000A9F80280484663E0A6
:102C3000B1FBF9FA08F105054FF0000B4FF0000861
:102C4000019400BF04A829463A46FDF78DFAE91918
:102C500003A83246FDF788FADDE902041FFA88F17D
:102C600008442044152829D24CF2CB220498C2F201
:102C700000021144224601F083FB0BF1010BA0443A
:102C8000D3454D44DED3019C1FFA88F5204603F05E
:102C900063FC029BC268E9184CF2CB2681600121DB
:102CA000C2F200064177D01831462A4601F072FB85
:102CB0004FF41B703080748030461DE031202C2191
:102CC000312403F087FC204605B0BDE8F08F00BF3B
:102CD0000022C3684BF2CB61C2F2000106461846DF
:102CE00001F058FBB5604BF6CB206288C2F20000C1
:102CF0004FF45B7101804280042103F003FE002445
:102D0000204605B0BDE8F08F2DE9F04F03AF81B04C
:102D10008346481EC0F34F04072000EB840020F0D8
:102D20000700ADEB000AD546C81E08281AD8002CAB
:102D300000F08880BBF80180404603F00DFCA8B18C
:102D40004568064603F0DEFC25FA00F0C0071ABF0E
:102D5000CAF800604FF001094FF00009012C09D1B9
:102D600056E000BF1320222113246EE04FF000092B
:102D7000012C4DD0BBF80380404603F0EDFB58B169
:102D80004568064603F0BEFC25FA00F0C0071CBFEC
:102D90004AF8296009F10109022C39D0BBF80580F5
:102DA000404603F0D9FB58B14568064603F0AAFC3B
:102DB00025FA00F0C0071CBF4AF8296009F1010993
:102DC000032C25D0BBF80780404603F0C5FB58B163
:102DD0004568064603F096FC25FA00F0C0071CBFC4
:102DE0004AF8296009F10109042C11D0BBF80980C7
:102DF000404603F0B1FB58B14468054603F082FC3D
:102E000024FA00F0C0071CBF4AF8295009F1010953
:102E1000B9F1000F16D0DAF8005049F6C824A868B6
:102E20006FF48061A0F58060C2F2000488424FF028
:102E30006200207012D214242046A7F10C04A5468B
:102E4000BDE8F08F31202221312403F0C3FB20465E
:102E5000A7F10C04A546BDE8F08F00BFD5E902201C
:102E6000E11CA4F8018001F08BFAAB68B9F1010F05
:102E700003F103010CD149F6C820C2F2000003F0AF
:102E800041FD00242046A7F10C04A546BDE8F08FC3
:102E9000DAF80450A8680844B0F5806FCBD824F85D
:102EA0000180D5E902205E1DA11901F069FAA86828
:102EB000B9F1020F06EB0001DDD0DAF80850A8687E
:102EC0000844B0F5806FB6D824F80180D5E9022017
:102ED0008E1CA11901F054FAA868B9F1030F06EB92
:102EE0000001C8D0DAF80C50A8680844B0F5806F2B
:102EF000A1D824F80180D5E902208E1CA11901F087
:102F00003FFAA868B9F1040F06EB0001B3D0DAF874
:102F10001050A8680844B0F5806F8CD824F8018060
:102F2000D5E902208E1CA11901F02AFAA8683118EF
:102F3000A1E700002DE9F04F85B08D1E052D80F032
:102F4000258147787A1ED6B2032E00F2298140F2FD
:102F5000602BC2F2000BDBF83030052B80F02081B3
:102F6000042F40F02181002D00F084819BF8007037
:102F7000A1F1030E00F1020CBEF1030F05F00308EE
:102F800080F09A8100261A46B8F1000F36D01CF85E
:102F900006108F420CD1002701218BF80070002A07
:102FA0008BF806100FBF0022531ECBF830301A46A4
:102FB000B8F1010F22D00CEB06014E78B7420CD1CC
:102FC000002701268BF80070002A8BF806600FBFDF
:102FD0000022531ECBF830301A46B8F1020F0DD044
:102FE00089788F420AD100218BF800100121002A34
:102FF0008BF806101CBF531ECBF830309BF80870BE
:10300000BEF1030F80F0AC8100261A46B8F1000F24
:1030100036D01CF806108F420CD1002701218BF806
:103020000870002A8BF80E100FBF0022531ECBF839
:1030300030301A46B8F1010F22D00CEB06014C7863
:10304000A7420CD1002701248BF80870002A8BF8C6
:103050000E400FBF0022531ECBF830301A46B8F195
:10306000020F0DD089788F420AD100218BF8081009
:103070000121002A8BF80E101CBF531ECBF83030F4
:103080009BF81070BEF1030F80F0BE8100261A4637
:10309000B8F1000F36D01CF806108F420CD1002773
:1030A00001218BF81070002A8BF816100FBF002238
:1030B000531ECBF830301A46B8F1010F22D00CEB7A
:1030C00006014C78A7420CD1002701248BF8107020
:1030D000002A8BF816400FBF0022531ECBF8303069
:1030E0001A46B8F1020F0DD089788F420AD100211B
:1030F0008BF810100121002A8BF816101CBF531EEC
:10310000CBF830309BF81820BEF1030F80F0D0814F
:103110000027B8F1000F00F0C1801CF807008242C0
:103120000BD1002201208BF81820002B8BF81E00F9
:103130001ABF013BCBF830300023B8F1010F00F08B
:10314000AD800CEB070041788A420BD100220121AF
:103150008BF81820002B8BF81E101ABF013BCBF800
:1031600030300023B8F1020F00F09880807882425E
:1031700040F0948000208BF818000120002B8BF881
:103180001E0000F08B80581E86E000BF13202A210D
:10319000132403F01FFA204605B0BDE8F08F00BFEE
:1031A00031202A215EE000BF002D59D0CDE9016712
:1031B00000F1020800260DF1100A002703921BE01F
:1031C00007EB0A0010F8010C9BF800109BF8082090
:1031D0009BF810309BF81840814208BF01368242AC
:1031E00008BF0136834208BF0136844208BF01365A
:1031F000013D08F1010815D098F8000000F5724073
:1032000003F0AAF90028F3D0D0F8049003F07AFA7A
:1032100029FA00F0C007D3D098F800000AF8070098
:103220000137CDE7DBF83000B91B0844042817D874
:1032300001AE70CEA7B19BF800209DF810108A4215
:1032400040F08481032C8BF8045080F08A8147F68B
:103250000422F1B2C0F6000252F8211082E100BF50
:1032600031202221312403F0B5F9204605B0BDE814
:10327000F08F00BF002001218BF800008BF80610B2
:103280008BF808008BF80E108BF810008BF81610D6
:103290008BF818008BF81E10CBF8300049F6C86088
:1032A000C2F200006A210170012103F02BFB00240F
:1032B000204605B0BDE8F08F05F0040900264FF068
:1032C000010A1A4604E000BF0436B1453FF45CAE83
:1032D00081198C78A74221D100278BF80070002A31
:1032E0008BF806A00FBF0022531ECBF830301A46D1
:1032F000CC78A74215D00C79A74221D100278BF8B2
:103300000070002A8BF806A00FBF0022531ECBF8D6
:1033100030301A4649798F42D6D114E0CC78A74292
:10332000E9D100278BF80070002A8BF806A00FBFA8
:103330000022531ECBF830301A460C79A742DDD05C
:1033400049798F42C0D100278BF80070002A8BF892
:1033500006A00FBF0022531ECBF830301A46B3E749
:1033600005F0040900264FF0010A1A4604E000BFE8
:103370000436B1453FF44AAE81198C78A74221D179
:1033800000278BF80870002A8BF80EA00FBF0022D0
:10339000531ECBF830301A46CC78A74215D00C79A2
:1033A000A74221D100278BF80870002A8BF80EA0C5
:1033B0000FBF0022531ECBF830301A4649798F4296
:1033C000D6D114E0CC78A742E9D100278BF8087059
:1033D000002A8BF80EA00FBF0022531ECBF830300E
:1033E0001A460C79A742DDD049798F42C0D1002717
:1033F0008BF80870002A8BF80EA00FBF0022531E16
:10340000CBF830301A46B3E705F0040900264FF038
:10341000010A1A4604E000BF0436B1453FF438AE55
:1034200081198C78A74221D100278BF81070002ACF
:103430008BF816A00FBF0022531ECBF830301A466F
:10344000CC78A74215D00C79A74221D100278BF860
:103450001070002A8BF816A00FBF0022531ECBF865
:1034600030301A4649798F42D6D114E0CC78A74241
:10347000E9D100278BF81070002A8BF816A00FBF37
:103480000022531ECBF830301A460C79A742DDD00B
:1034900049798F42C0D100278BF81070002A8BF831
:1034A00016A00FBF0022531ECBF830301A46B3E7E8
:1034B00005F004010027012604E000BF0437B942EB
:1034C0003FF427AEC519AC78A2421FD100228BF879
:1034D0001820002B8BF81E601ABF013BCBF8303050
:1034E0000023EC78A24214D02C79A2421FD10022F2
:1034F0008BF81820002B8BF81E601ABF013BCBF80D
:10350000303000236D79AA42D8D113E0EC78A24282
:10351000EAD100228BF81820002B8BF81E601ABF0E
:10352000013BCBF8303000232C79A242DFD06D79FB
:10353000AA42C3D100228BF81820002B8BF81E6002
:103540001ABF013BCBF830300023B7E79BF80620C9
:10355000012A0FD1022C8BF800108BF804507FF653
:1035600076AE0021CBF8201000218BF80610012147
:1035700001E000BF0021B942BFF48EAE9BF80830D5
:103580001AF8012093420BD1022C8BF80C5011D861
:1035900047F60423F2B2C0F6000353F822200AE0F3
:1035A0009BF80E30012B0CD1032C8BF808208BF8E4
:1035B0000C50EDD30022CBF82420002201318BF8EF
:1035C0000E20B942BFF468AE9BF810301AF8012003
:1035D00093420BD1022C8BF8145011D847F60423D8
:1035E000F2B2C0F6000353F822200AE09BF816302E
:1035F000012B0CD1032C8BF810208BF81450EDD339
:103600000022CBF82820002201318BF81620B94285
:10361000BFF442AE9BF818201AF801108A420BD171
:10362000022C8BF81C5012D847F60422F1B2C0F6D7
:10363000000252F821100BE09BF81E20012A7FF4B3
:103640002BAE032C8BF818108BF81C50ECD30021F8
:10365000CBF82C1000211DE670B582B042780A39F3
:10366000002311F1060F009308D8132023211324FF
:1036700002F0B0FF204602B070BD00BF140902F096
:103680000F05611E6A1E114304292FD2861C01A852
:1036900031462A46FCF768FD711968462246FCF758
:1036A00063FD019C204602F033FFF8B1009D816864
:1036B0008D42DAD8466803F025F826FA00F0C007F4
:1036C0001CD04AF2C826C2F200066320314601F837
:1036D000010B20462A4600F053FE691C304603F0D9
:1036E00011F90024204602B070BD00BF3120232113
:1036F000312402F06FFF204602B070BD3320232139
:10370000332402F067FF204602B070BD70B5022975
:1037100024D9B0F80150284602F01EFF30B3044609
:10372000007C18B3666802F0EDFF26FA00F0C007CF
:1037300024D04AF2C866C2F2000664203070D4E990
:103740000520F11CA6F8015000F01AFE6069C11CAA
:10375000304603F0D7F8002070BD00BF13202421AD
:10376000132402F037FF204670BD00BF3120242112
:10377000312402F02FFF204670BD00BF33202421EA
:10378000332402F027FF204670BD000070B540F2E0
:103790006025C2F20005286B002800F0EC80A879B3
:1037A00018B9286A50B30138286200240020A97B88
:1037B00000295CD1696A0A46002918BF0122024328
:1037C00004D000291CBF0139696250E0297B4AF608
:1037D000C826287A4FF6F2720139C2F20006C0F20A
:1037E000FF02C9B23070022962F31F201ED847F6CB
:1037F0000422C0F6000252F8211018E029794AF696
:10380000C82628784FF6F2720139C2F20006C0F2DB
:10381000FF02C9B23070022962F31F2016D847F6A2
:103820000422C0F6000252F8211010E0002180B2FC
:10383000696202F091FE0446D0E90220711C00F09A
:103840009FFDA068441C012011E000BF002180B250
:10385000296202F081FE0446D0E90220711C00F0CA
:103860008FFDA068441C0120A97B0029A2D0A97D5E
:1038700071B1A97F00296AD1E96A00290A4618BFF7
:103880000122104314D000291CBF481EE8625EE0EC
:10389000A96A0A46002918BF0122024320D0002944
:1038A0001CBF0139A962A97F0029E5D04FE000BF04
:1038B000297F4AF6C826287E4FF6F2720139C2F2F5
:1038C0000006C0F2FF02C9B23070022962F31F2065
:1038D0001ED847F60422C0F6000252F8211018E064
:1038E000297D4AF6C826287C4FF6F2720139C2F2C9
:1038F0000006C0F2FF02C9B23070022962F31F2035
:1039000014D847F60422C0F6000252F821100EE047
:10391000002180B2E96202F01FFE0446D0E90220D5
:10392000711C00F02DFDA068441C10E0002180B245
:10393000A96202F011FE0446D0E90220711C00F0D9
:103940001FFDA068441C0120A97F002994D0002CF1
:1039500008BF70BD686B02F037FE014606A003F099
:10396000A9FD4AF6C820C2F20000214602F0CAFFB3
:1039700002F028FE686370BD5B434841524F4E5DC4
:103980002074696D65202578000000002DE9F04F56
:10399000ADF2044D0D46064601A84FF48061FCF7D8
:1039A000FCFB032D0ED9B6F801A0504602F0D4FD61
:1039B00030B3816803310FD0A9420DD213202E21DC
:1039C00002E000BF13202A21132402F003FE204648
:1039D0000DF2044DBDE8F08F4468074602F092FEF8
:1039E00024FA00F0C0070BD0387F98B122202E2196
:1039F000222402F0EFFD20460DF2044DBDE8F08FC9
:103A000031202E21312402F0E5FD20460DF2044D37
:103A1000BDE8F08F4FF6FD7005443946F868F71C95
:103A20001FFA85F90C4639464A4600F0B3FCE068B7
:103A30000DF1040B59464A4600F0A2FCB9F1000F03
:103A400008D0B9F1040F05F0030C009704D200224E
:103A5000002022E000203EE0A9EB0C0E0022002016
:103A6000B1181BF80240CF780BEB02050B7991F8E7
:103A700005808979BC4208BF01306C78AF78ED7859
:103A80009C4208BF0130474508BF01308D4202F11A
:103A9000040208BF01309645E2D1009FBCF1000F3F
:103AA00019D01BF80230BE5CB34208BF0130BCF134
:103AB000010F10D0531C1BF80360FB5C9E4208BF33
:103AC0000130BCF1020F06D0911C1BF80120795C7B
:103AD0008A4208BF013080B2484511D14AF6C86019
:103AE000C2F200006E2101700321A0F801A002F0D3
:103AF00009FF002420460DF2044DBDE8F08F00BF01
:103B000072202E21722402F065FD20460DF2044D34
:103B1000BDE8F08F2DE9F04F83B0477800220429EB
:103B2000019209D813203D21132402F053FD2046B1
:103B300003B0BDE8F08F00BF3C0907F00F05621E1F
:103B40006B1E1A43042A2FD202AA0091811C06463A
:103B500010462A4605F10209FCF706FB06EB0901AF
:103B600001A82246B346FCF7FFFA029E304602F057
:103B7000CFFCC8B1019982689142D3D8D0F804A093
:103B8000804602F0BFFD2AFA00F0C00716D098F870
:103B90001C00E8B122203D21222402F01BFD20461A
:103BA00003B0BDE8F08F00BF31203D21312402F089
:103BB00011FD204603B0BDE8F08F00BF33203D214A
:103BC000332402F007FD204603B0BDE8F08F00BFAC
:103BD000009809EB17180BEB0801A0EB0802304620
:103BE00000F0D8FB4BF2C826C2F200067D203070F0
:103BF000B01C02A92A467770FCF7B6FA06EB09005A
:103C000001A92246FCF7B0FA3046414602F07AFE9E
:103C10000024204603B0BDE8F08F000080B502A06C
:103C200003F048FC112080BD5B434841524F4E5D7C
:103C3000204163636573732054696D696E6720501A
:103C40006172616D65746572205365727669636532
:103C5000205349443A307838332054726967676595
:103C60007265640080B502A003F024FC112080BDC1
:103C70005B434841524F4E5D20436F6D20436F6E52
:103C800074726F6C20536572766963652053494482
:103C90003A3078323820547269676765726564001B
:103CA0002DE9F043A9B080462DA00D4603F002FC9B
:103CB00002F028FD042801D002280BD17F208521A5
:103CC0007F2402F087FC34A003F0F4FB204629B0E7
:103CD000BDE8F0834FF6FE702C1847F6464098F882
:103CE0000160C0F6000003F0E5FBA5B20DB313A818
:103CF000002700F1100440F2480900BF08EB07005C
:103D00008178B0F803008DF84D100337ADF84E0000
:103D10006846494622468DF8A16052F8043B0439B2
:103D200040F8043BF9D113AB0FCB01F065F8AF427B
:103D3000E4D34BF2C860C2F20000C52198F801201C
:103D400001700221427002F0DDFD47F61E400024A2
:103D5000C0F6000003F0AEFB204629B0BDE8F083BA
:103D60005B434841524F4E5D20436F6E74726F6CDF
:103D7000204454432053657474696E672053657200
:103D800076696365205349443A3078383520547257
:103D900069676765726564005B434841524F4E5DD9
:103DA000205365727669636520696E20637572724F
:103DB000656E742073657373696F6E206E6F742007
:103DC000616C6C6F7765642E0000000070B582B086
:103DD00002290DD1407800F07F04611FC9B2FB2990
:103DE00014D82DA0214603F065FB122407E000BF84
:103DF00047F66D40C0F6000003F05CFB132420463C
:103E0000102102F0E7FB204602B070BD45B219A0B8
:103E1000214603F04FFB47F63C20C0F6000000EBC4
:103E2000C401B5F1FF3F19DD4D684CF6CD41CCF62C
:103E3000CC41A5FB0112502150F83460D0088DF818
:103E40000210ADF806000DF1020006218DF80340C6
:103E5000ADF8046002F056FD03E000BF50F8346096
:103E60004D68204631462A4602F028FD00242046AF
:103E700002B070BD5B434841524F4E5D20436861C4
:103E80006E67696E672053657373696F6E20746F18
:103E900020307825782E00005B434841524F4E5D1C
:103EA0002053657373696F6E203078257820756EA6
:103EB0006B6E6F776E206F7220696E76616C6964CD
:103EC0002100000080B502A003F0F4FA112080BDAB
:103ED0005B434841524F4E5D204543552052657328
:103EE00065742053657276696365205349443A309E
:103EF000783131205472696767657265640000002B
:103F000080B502A003F0D6FA112080BD5B43484182
:103F1000524F4E5D204C696E6B20436F6E74726F12
:103F20006C2053657276696365205349443A307852
:103F30003837205472696767657265640000000055
:103F400080B502A003F0B6FA112080BD5B43484162
:103F5000524F4E5D20526573706F6E7365204F6EC9
:103F6000204576656E7420536572766963652053CB
:103F700049443A307838362054726967676572650B
:103F80006400000080B502A003F094FA112080BD07
:103F90005B434841524F4E5D2053656375726564C3
:103FA0002044617461205472616E736D697373692A
:103FB0006F6E2053657276696365205349443A30C9
:103FC0007838342054726967676572656400000050
:103FD00080B502A003F06EFA112080BD5B4348411A
:103FE000524F4E5D20536563757269747920416349
:103FF00063657373205349443A30783237205472E2
:10400000696767657265640010B582B0022905D1E1
:104010004178490614D0122412A004E047F66D40FE
:104020001324C0F6000003F045FA20463E2102F0BA
:10403000D1FA17A003F03EFA204602B010BD00BF2F
:10404000044602F055FC94F90100002807D47E20B4
:10405000ADF806000DF10600022102F053FC002429
:10406000E7E700BF5B434841524F4E5D2053756206
:1040700066756E6374696F6E206973206E6F74204D
:1040800030783030206F7220307838302E000000C9
:104090005B434841524F4E5D2054657374657220F6
:1040A00050726573656E742053657276696365201E
:1040B0005349443A307833452054726967676572D2
:1040C00065640000704700002DE9F04F03AF81B038
:1040D000032907D876A003F0EDF913202F2113242C
:1040E00028E000BF4CF23C72C2F2000290F801E0FE
:1040F000136890F8029049EA0E22A3B11E889642F6
:1041000020D05B697BB11E8896421BD05B6953B19E
:104110001E88964216D05B692BB11E88964211D03C
:104120005B69002BEAD157A0114603F0C3F9312097
:104130002F21312402F04EFA2046A7F10C04A546A7
:10414000BDE8F08F0A46C178042905D347F69140AF
:10415000C0F60000E9E700BF03290DD1DE6800F1D9
:1041600004080436B4B294420BD34FF0010C07F8A4
:104170000DCCA7F10D060CE04FF00008042494428A
:10418000F3D2121B01321FFA82FCBCF1000F1AD0CD
:1041900006190122002516F9014BB4F1FF3F42DD5B
:1041A000E4B23F2C32D81F2C32D80F2C32D8072C37
:1041B00032D8032C32D8012C32D89CBB013565454E
:1041C00002F10802E7D3D968E8460B3121F0070174
:1041D000ADEB0106B5466F213170C078D3E90351CC
:1041E000F070301D2A4686F801E086F80290FBF751
:1041F000BBFF291D304602F085FB0024C546204642
:10420000A7F10C04A546BDE8F08F00BF01320AE01B
:10421000023208E0033206E0043204E0053202E034
:10422000063200E007325C6834B3208892B29042D4
:1042300020D1032916D8DD68DFE801F002060A0E56
:104240006068C8B18047D8B1A068A8B18047B8B14C
:10425000E06888B1804798B122696AB14046294632
:10426000904768B131242046A7F10C04A546BDE86B
:10427000F08F00BFFEE700BF312420462F2159E711
:104280002224FAE75B434841524F4E5D20436F754D
:104290006C64206E6F742066696E6420746865209B
:1042A000494F2044494420307825303478000000BC
:1042B0005B434841524F4E5D20556E657870656393
:1042C000746564206D657373616765206C656E67E6
:1042D00074682E0001440020B1F5C04F38BF0120A2
:1042E0007047000080B543F2C820C2F200004FF4CE
:1042F000C041FF22FBF74AFF80BD00005822504317
:10430000002943F2C82108BF7C30C2F200010844F2
:104310007047000043F2C820C2F20000704700005E
:1043200058225043002943F2C82108BF7C30C2F212
:10433000000108447047000043F2C821C2F20001A6
:10434000652200FB021047F28F51084470470000BD
:1043500043F2C821C2F20001652200FB021042F2C2
:10436000A56108447047000043F2C821C2F2000171
:10437000652200FB021044F61A61084470470000F1
:104380000B4643F2C821C2F2000101441846FBF774
:10439000EBBE000080B543F2C823C2F2000318440C
:1043A000FBF7E2FE002080BD10B582B0042901D2E7
:1043B000132405E041780A1F12F1030F08D21224DA
:1043C0002046312102F006F9204602B010BD00BFA0
:1043D00001294FF03104F3D1418849BAB1F57F4F3B
:1043E000EED10446FFF77EFF2078617840F0400070
:1043F0008DF8040060888DF80510ADF8060001A85E
:10440000042102F07FFA0024204602B010BD000013
:10441000014693280FF2EC2088BF7047DFE811F0C7
:104420009400DD00DD00DD00DD00DD00DD00DD00ED
:10443000DD00DD00DD00DD00DD00DD00DD00DD0094
:1044400020012C0140010E01F000DD00DD00DD0047
:10445000DD00DD00DD00DD00DD00DD00DD00DD0074
:10446000DD00F600D600DD00EA00B200DE00DD006F
:10447000DD00DD00DD00DD00DD00DD00DD00DD0054
:10448000DD002601DD001401DD00C40046014C0101
:10449000DD00DD00DD00DD00DD00DD00DD00DD0034
:1044A000DD00DD00DD00DD00DD00DD00DD00DD0024
:1044B000DD00DD00DD00DD00DD00DD00DD00DD0014
:1044C000DD00DD00DD00DD00DD00DD00DD00DD0004
:1044D000DD00DD00DD00DD00DD00DD00DD00DD00F4
:1044E000DD00DD00DD00DD00DD00DD00DD00DD00E4
:1044F000DD00DD00DD00DD00DD00DD00DD00DD00D4
:104500005E015801AC001A01DD00DD00DD00DD00B8
:104510006401DD00DD00DD00DD00DD00BE0008011E
:10452000DD00D0003201CA00A6006A01E400FC00F0
:104530003A0102019A00B80052017001DD00A400A6
:104540003801A200A000DC0047F6B650C0F600001B
:10455000704700BF47F64A60C0F60000704700BFD2
:1045600071A0704774A0704780A0704747F6006044
:10457000C0F60000704700BF47F69C50C0F6000030
:10458000704700BF48F2FF00C0F60000704700BF50
:1045900048F27610C0F60000704700BF47F6E360AF
:1045A000C0F60000704700BF48F29410C0F600004B
:1045B000704700BF47F6F050C0F60000704700BFDC
:1045C00047F65F60C0F60000704700BF48F2CD00BC
:1045D000C0F60000704700BF4FA0704747F6387024
:1045E000C0F60000704700BF47F63760C0F6000015
:1045F000704700BF48F23300C0F60000704700BFAC
:1046000047F61360C0F60000704700BF48F22B1059
:10461000C0F60000704700BF48F26410C0F600000A
:10462000704700BF48F23D10C0F60000704700BF61
:1046300047F6C060C0F60000704700BF48F299001E
:10464000C0F60000704700BF47F61350C0F60000E8
:10465000704700BF48F21900C0F60000704700BF65
:1046600048F2BF00C0F60000704700BF47F68A500E
:10467000C0F60000704700BF47F65E50C0F600006D
:10468000704700BF48F28A10C0F60000704700BFB4
:1046900030A0704747F62360C0F60000704700BFA7
:1046A00047F67250C0F60000704700BF48F2800025
:1046B000C0F60000704700BF47F62850C0F6000063
:1046C000704700BF47F66A60C0F60000704700BF41
:1046D00047F6FD40C0F60000704700BF47F6445063
:1046E000C0F60000704700BF47F6C750C0F6000094
:1046F000704700BF48F25010C0F60000704700BF7E
:1047000020A07047756E6B6E6F776E207265747542
:10471000726E20636F646500566F6C7461676554D8
:104720006F6F4C6F77000000566F6C746167655453
:104730006F6F486967680000546F72717565436FE9
:104740006E766572746572436C757463684C6F63E2
:104750006B656400536869667465724C6576657252
:104760004E6F74496E5061726B0000004272616B53
:104770006553776974636865734E6F74436C6F73C8
:10478000656400005472616E736D697373696F6E56
:104790004E6F74496E47656172000000A0F1100110
:1047A000772984A088BF7047DFE811F07800B60051
:1047B00001010101D0000101010101010101AA0073
:1047C00001010101010101010101010101010101D9
:1047D000B000DC009E0001010101A400C400010141
:1047E000BE000101E800010190008A000101F4000F
:1047F00001010101CA00D600EE00E2007E000101C5
:104800000101010101019800FA0001018400010188
:104810000101010101010101010101010101010188
:104820000101010101010101010101010101010178
:104830000101010101010101010101010101010168
:104840000101010101010101010101010101010158
:104850000101010101010101010101010101010148
:104860000101010101010101010101010101010138
:104870000101010101010101010101010101010128
:104880000101010101010101010196000101010184
:1048900001018800BC0086000201000147F6926019
:1048A000C0F60000704700BF47F66270C0F6000017
:1048B000704700BF5FA0704748A0704752A0704784
:1048C00047F6FA70C0F60000704700BF47F6C870A0
:1048D000C0F60000704700BF51A0704748F26B005F
:1048E000C0F60000704700BF47F6DE70C0F600005B
:1048F000704700BF48F24800C0F60000704700BF94
:1049000047F62570C0F60000704700BF47F6B37049
:10491000C0F60000704700BF48F2E200C0F6000099
:10492000704700BF32A0704747F69670C0F600008F
:10493000704700BF47F6AB60C0F60000704700BF8D
:1049400047F6DF40C0F60000704700BF47F60A7028
:10495000C0F60000704700BF47F6EF40C0F6000009
:10496000704700BF48F25700C0F60000704700BF14
:1049700048F2EB00C0F60000704700BF47F67670C3
:10498000C0F60000704700BF47F6D240C0F60000F6
:10499000704700BF47F68360C0F60000704700BF55
:1049A00048F21D10C0F60000704700BF04A0704719
:1049B00006A07047756E6B6E6F776E20736964002A
:1049C0004C696E6B436F6E74726F6C0052657370DE
:1049D0006F6E73654F6E4576656E7400436F6E74CF
:1049E000726F6C44746353657474696E6700000081
:1049F00053656375726564446174615472616E736A
:104A00006D697373696F6E00416363657373546995
:104A10006D696E67506172616D657465720000004A
:104A20004E65676174697665526573706F6E736504
:104A300000000000506F7369746976655265737089
:104A40006F6E73654D61736B0000000080B540F2BE
:104A5000C00EC2F2000E714611F8D03F834242D020
:104A60004FF0140188BF06210B011EF8033083426A
:104A700004BF0EEB011080BD4FF0040388BF6FF040
:104A80000303CA1811011EF80110814204BF0EEB86
:104A9000021080BD1346172A28BF172303F1020C0A
:104AA000814288BFA2F1020C4FEA0C111EF80110DE
:104AB000814204BF0EEB0C1080BD05D9BCF101038F
:104AC00038BF002307E000BFBCF1180F28BF4FF02C
:104AD000180C0CF1010319011EF80120002182427B
:104AE00008BF0EEB0311084680BD000070B5A0B0F2
:104AF000002001210026FFF713FC044601AD2846E3
:104B000021467A22FBF730FB002029467A22A4F8BE
:104B1000786000F0E3FCA4F8780080B2102100F087
:104B20009FFCA4F8780020B070BD0000F0B585B0FF
:104B300046788578C47848F60630C0F600000F46FF
:104B400002F0B8FC042F3DD1280240EA0640204480
:104B5000B0F5807F42D300F17F412F3101F1D102C6
:104B6000332A3BD301F19D029C2A37D32C2935D916
:104B7000B0F5700F40DB4FF6CF71C0F2FF018842F5
:104B80006ADD4FF6D071C0F2FF01884200F0A080CC
:104B90004FF6FE71C0F2FF01884200F0BB806FF05B
:104BA0007F41884240F0C28048F65010C0F60000B5
:104BB00002F080FC00200127CDE90000CDE90200D1
:104BC000BFE000BF13201421132401F003FD6AA0ED
:104BD00002F070FC204605B0F0BD00BF312014216A
:104BE000312401F0F7FC48F6EE00C0F6000002F0B8
:104BF00061FC204605B0F0BDB0F5300F18DAB0F515
:104C0000807F3FD040F20651C0F20401884240F05C
:104C10008D8031201421312401F0DCFC48F6951000
:104C2000C0F6000002F046FC204605B0F0BD00BF13
:104C30003ED0B0F5500F79D166A002F03BFC4FF6A4
:104C4000FF700027C0F2EF000123CDE90007CDE996
:104C50000277C0F2D00358E0B0F5700F44D04FF6A1
:104C60003371C0F2FF01884260D148F65920C0F686
:104C7000000002F01FFC00270120CDE90077CDE9FC
:104C800002705EE048F6B520C0F6000002F012FCAB
:104C90004FF6FF700027C0F2AF00CDE90007CDE965
:104CA000027730462946224640F201134DE000BF0C
:104CB00048F6DF20C0F6000002F0FCFB4FF6FF7064
:104CC000C0F2AF00831C00F50010002719E000BF00
:104CD00048F68820C0F6000002F0ECFB0027012017
:104CE000CDE9007702902BE02CA002F0E3FB4FF619
:104CF000FF70C0F2EF00831C4FF6FF600027C0F288
:104D0000FF00CDE90007CDE902773046294622466B
:104D10001BE000BF48F63520C0F6000002F0CAFBD9
:104D200000270120CDE9007009E000BF48F62C10F3
:104D3000C0F6000002F0BEFB0027CDE90077029725
:104D400003973046294622460023049700F032FCA0
:104D50004BF2CA60C2F2000054210170012101F03F
:104D6000D1FD48F2A820C0F6000002F039FE002470
:104D7000204605B0F0BD00BF5B434841524F4E5D39
:104D800020556E6578706563746564206D65737316
:104D9000616765206C656E6774682E005B434841EF
:104DA000524F4E5D2053746172742064656C65745B
:104DB000696E67204E4554574F524B5F434F4D4DE0
:104DC000554E49434154494F4E2067726F75702EBE
:104DD000000000005B434841524F4E5D2053746118
:104DE00072742064656C6574696E6720424F445923
:104DF0002067726F75702E0084B0B0B582B00DF16F
:104E0000180C8CE80F009DF819009DF81A109DF8F9
:104E10001B209DF86D50002400230094019401F0A4
:104E2000FFF800281CBF002D80F8555002B0BDE8E7
:104E3000B04004B070470000F0B59FB00D46044686
:104E400000200121FFF76CFA0646C0A002F0C8FD61
:104E5000706F4BF6EF61CDF6AD61884218BFFDF77C
:104E600005FD6F46384631467A22FBF77DF9002072
:104E700039467A2200F032FB80B2102100F0F0FABD
:104E8000B6F8781080B281422AD1607801381828AB
:104E900000F24E81DFE810F01A00B00082009800A6
:104EA0005200CA00F400A20014016C000801460080
:104EB0006000E8003C008E003200BE0002012E01BE
:104EC000C400DA0022013E01780000BF48F27F50A2
:104ED000C0F6000002F084FD2046002116E000BF6D
:104EE00026201921262401F075FB48F2F120C0F696
:104EF000000002F075FD20461FB0F0BD48F2E950F9
:104F0000C0F6000002F06CFD204601210022EBE01B
:104F100048F22E60C0F6000002F062FDA078012188
:104F200072E000BF48F2E830C0F6000002F058FD21
:104F3000FBF77AFF002420461FB0F0BD48F2FF7057
:104F4000C0F6000002F04CFD20462946FBF7AEFEFD
:104F5000044620461FB0F0BD48F24330C0F60000C2
:104F600002F03EFDFDF7A8FA002420461FB0F0BD78
:104F700048F21B40C0F6000002F032FDFDF75CFB7A
:104F8000044620461FB0F0BD48F2E360C0F60000C2
:104F900002F026FD20460021012250E048F26B601D
:104FA000C0F6000002F01CFDFBF7A6FC04462046FC
:104FB0001FB0F0BD48F22D70C0F6000002F010FDE9
:104FC000204601213AE000BF48F27670C0F60000AA
:104FD00002F006FD20460021A4E000BF48F2C440D4
:104FE000C0F6000002F0FCFCA078E178FBF7BCF909
:104FF000044620461FB0F0BD48F2B850C0F600008D
:1050000002F0EEFCA0780021FBF714FA04462046DB
:105010001FB0F0BD48F2FD40C0F600006EE000BFDA
:1050200048F6B600C0F6000068E000BF48F2A6608F
:10503000C0F6000002F0D4FC204600210022FBF75D
:105040006BFA044620461FB0F0BD00BF48F63C0096
:10505000C0F6000002F0C4FCA078FBF7C3FB0446D6
:1050600020461FB0F0BD00BF48F2B030C0F60000CF
:1050700002F0B6FCFDF7F2F9002420461FB0F0BDA7
:1050800048F28340C0F6000002F0AAFCA078E17864
:10509000FDF742FA002420461FB0F0BD48F242500E
:1050A000C0F600002AE000BF48F27C30C0F60000E5
:1050B00002F096FCFBF7E6FE002420461FB0F0BD90
:1050C00048F24940C0F6000002F08AFC2046FDF795
:1050D0006DFA002420461FB0F0BD00BF2AA002F0E8
:1050E0007FFC2046002101220024FDF72FFA2046F4
:1050F0001FB0F0BD48F67C00C0F6000002F070FC66
:1051000048F67110C0F6000002F0D4F912242046CF
:105110001FB0F0BD48F2B470C0F6000002F060FCB1
:1051200020460121FBF7B8FC044620461FB0F0BD25
:1051300012201921122401F04DFA48F2C720C0F6BE
:10514000000002F04DFC20461FB0F0BD5B4348411B
:10515000524F4E5D20526561642044544320496E95
:10516000666F726D6174696F6E20536572766963E4
:1051700065205349443A3078313920547269676761
:10518000657265640D0000005B434841524F4E5DFF
:105190002053756220307831373A207265706F7213
:1051A00074557365724465664D656D6F72794454CC
:1051B0004342795374617475734D61736B207374DA
:1051C0006172742E0D00000080B500200121FFF7F0
:1051D00095F8008880BD000080B500200121FFF710
:1051E0009FF8008880BD00000A460146012002F0B9
:1051F00033B8000080B51120382101F0EBF91120FF
:1052000080BD000010B582B0012905D947F66D4078
:105210001324C0F600000AE040F29820C2F2000019
:10522000816869B148F647302424C0F6000002F0D6
:1052300041F92046372101F0CDF9204602B010BDDA
:10524000017889B10024C0E90144048015A002F06E
:1052500031F977208DF807000DF10700012101F0E9
:1052600051FB204602B010BD242401A0DFE700BF9F
:105270005B434841524F4E5D204E6F207472616E09
:1052800073666572206F6E676F696E672C2063614D
:105290006E6E6F742065786974207472616E7366C7
:1052A00065722E005B434841524F4E5D2045786940
:1052B00074696E67207472616E73666572206D6FBB
:1052C00064652E000A460146022001F0C5BF0000B9
:1052D0002DE9F047ADF5805DB1F5805F0AD348F662
:1052E0001C40C0F6000040F6FF7102F0E3F8132402
:1052F00033E000BF40F29827C2F200073E784EB17B
:10530000BB688D1EAB420DD247A002F0D3F87124CA
:1053100023E000BF48F69240C0F6000002F0CAF851
:1053200024241AE041787A7891420FD1012E1DD1C0
:105330007A680646811C10462A46FFF72BF8C8B348
:1053400004462AA002F0B6F807E000BF48F68A300B
:10535000C0F6000002F0AEF873242046362101F0BA
:1053600039F920460DF5805DBDE8F08740F6FD7106
:1053700040F6FF748B4238BF9C1C7A680DF101081F
:10538000A61E08F10201054610463246FEF7F8FF58
:105390007868B96830447860881B7978B860481CB0
:1053A0007870697876208DF801008DF802104046FB
:1053B000214613E07868B96828447860481B7978FA
:1053C000B860481C78703078717840F040008DF8F3
:1053D00001008DF802100DF10100022101F092FA96
:1053E000002420460DF5805DBDE8F0875B43484111
:1053F000524F4E5D204E564D206472697665722084
:105400007265706F72746564206572726F72207756
:1054100068696C652077726974696E6720746F20A3
:10542000666C6173682E00005B434841524F4E5DCD
:1054300020546F6F206D7563682064617461207201
:1054400065636569766564210000000040F298207C
:10545000C2F2000000210180C0E901117047000084
:105460000246022900F0010037D34B1E02390329FE
:1054700003F0030C02D2134619E000BFB0B523F0CD
:1054800003014FF0080E02240EEA820545EA0010DF
:1054900002F00405284404EA920513092844C2F3E3
:1054A0000012104404391A46EED1BDE8B040BCF1F8
:1054B000000F08BF7047C3F34001BCF1010F41EA80
:1054C00040000AD0C3F3800141EA4000BCF1020F62
:1054D0001CBFC3F3C00141EA40007047002A66D0F8
:1054E00070B5013948F2050E4FF0010C11F9013F7A
:1054F000C0F3C034DD074FEA400518BF84F0010453
:10550000002C18BF8EEA4005A8B28CEAD0349E0762
:1055100058BFC40B6800002C18BF8EEA450084B247
:105520008CEAD4355E0758BFE50B4400002D18BF48
:105530008EEA4004A0B28CEAD0351E0758BFC50BD6
:105540006000002D18BF8EEA440084B28CEAD43586
:10555000DE0658BFE50B4400002D18BF8EEA40045C
:10556000A0B28CEAD0359E0658BFC50B6000002D56
:1055700018BF8EEA440084B28CEAD4355E0658BF68
:10558000E50B4400002D18BF8EEA4004A0B2C50B05
:10559000002BA2F1010248BF8CEAD0356000002D3B
:1055A00018BF8EEA4400002AA0D1BDE8704080B246
:1055B000704700002DE9F04F8DB0CDE906121A9E1C
:1055C000DDE91858DDE916748246002000219B466B
:1055D000FEF7A6FE0B9000200121FEF7A1FE0C9025
:1055E000B0F800900020FEF7B3FE0A900020FEF70E
:1055F000BBFE09900020FEF79FFEBBF1000F089054
:105600000596CDE9035408BF002C3AD1CDBBB8F1C3
:10561000000F36D1AEBBDDE90632B9F1000F2BD059
:105620000C980025303002900B98099C461C04E031
:105630000135A94506F158061ED030785045F7D1FE
:1056400070789842F4D1B0789042F1D10299E8088C
:10565000085C05F00701C840C007E9D00C9ADDE9F5
:105660000A31BC46089FA8B2CDE90047674600F062
:1056700093F8DDE90632DBE7FFF738FADDE903549A
:10568000059EBBF1000F34D0B9F1000F2CD00C985F
:10569000089D00F1300A0B980024461C05E000BF6D
:1056A0000134A14506F158061ED071783078B278E1
:1056B000090241EA004010445845F1D3B842EFD8FE
:1056C000E0081AF8000004F00701C840C007E7D05E
:1056D0000C9ADDE90A31BC46099FA0B2CDE90075FC
:1056E000674600F059F8DBE7FFF700FA059EDDE9B1
:1056F0000354002C08BF002D36D0B8F1000F18BF9E
:105700004FF03308002D18BF4FF0D008002CB246E0
:1057100018BF4FF0FE08B9F1000F21D00C98DDE959
:10572000084700F1300B0B98002600F1100502E04D
:105730000136B14514D015F8580B8045F8D1F00862
:105740001BF8000006F00701C840C007F0D00C9A13
:10575000DDE90A31B0B2CDE9007400F01DF8E7E7E9
:10576000FFF7C4F9564602E0B8F1000FC5D1002E8C
:1057700004BF0DB0BDE8F08F0C9C7C212046FAF7E9
:105780000CFD4BF6EF60CDF6AD6060670DB0BDE887
:10579000F04FFFF7ABB900002DE9F04F81B058276B
:1057A00000FB07194BF26D1C99F81870C7F6324CC4
:1057B000002F009000F0908044F69360C8F2CD3046
:1057C00009F1200A02F13F0803FB00FB002601203B
:1057D00016E000BFCB0801F0070118F8037000FACB
:1057E00001F127EA010108F803105189538A0139B0
:1057F0005181591C99F8187051820136BE426BD202
:105800005AF82610002401FB0CB10B46002BE1D006
:1058100004F1010E8E45DDD0A51C8D42DAD0E51CC9
:105820008D42D7D0251D8D42D4D0651D8D42D1D05B
:10583000A51D8D42CED0E51D8D42CBD004F10805CB
:105840008D42C7D004F109058D42C3D004F10A0589
:105850008D42BFD004F10B058D42BBD004F10C0585
:105860008D42B7D004F10D058D42B3D004F10E0581
:105870008D42AFD004F10F058D42ABD004F110057D
:105880008D42A7D004F111058D42A3D004F1120579
:105890008D429FD004F113058D429BD004F1140575
:1058A0008D4297D004F115058D423FF493AF04F17A
:1058B00016058D423FF48EAF04F117058D423FF47B
:1058C00089AF04F118058D423FF484AF1934642C7C
:1058D000A3F119039AD190E799F82C70002F00F0EA
:1058E0008F800A9944F69360C8F2CD3009F1340AEA
:1058F00002F1500401FB00FB00264FF0010813E009
:10590000C80801F00701235C08FA01F123EA01014C
:1059100021549089918A01389081481C99F82C7003
:1059200090820136BE426BD25AF82600002300FB5B
:105930000CB10D46002DE3D0581C8842E0D0981CD5
:105940008842DDD0D81C8842DAD0181D8842D7D0D2
:10595000581D8842D4D0981D8842D1D0D81D884285
:10596000CED003F108008842CAD003F10900884272
:10597000C6D003F10A008842C2D003F10B0088426E
:10598000BED003F10C008842BAD003F10D0088426A
:10599000B6D003F10E008842B2D003F10F00884266
:1059A000AED003F110008842AAD003F11100884262
:1059B000A6D003F112008842A2D003F1130088425E
:1059C0009ED003F1140088429AD003F1150088425A
:1059D0003FF496AF03F1160088423FF491AF03F114
:1059E000170088423FF48CAF03F1180088423FF45F
:1059F00087AF1933642BA5F119059BD191E700BF3F
:105A000099F84070002F00F08F800B9844F6936156
:105A1000C8F2CD3109F1480802F1610400FB01FA36
:105A200000264FF0010E13E0C80801F00701235CC7
:105A30000EFA01F123EA01012154D089D18A0138FB
:105A4000D081481C99F84070D0820136BE426BD29A
:105A500058F82600002300FB0CA10D46002DE3D0D2
:105A6000581C8842E0D0981C8842DDD0D81C88425F
:105A7000DAD0181D8842D7D0581D8842D4D0981D3E
:105A80008842D1D0D81D8842CED003F10800884288
:105A9000CAD003F109008842C6D003F10A00884247
:105AA000C2D003F10B008842BED003F10C00884243
:105AB000BAD003F10D008842B6D003F10E0088423F
:105AC000B2D003F10F008842AED003F1100088423B
:105AD000AAD003F111008842A6D003F11200884237
