:020000040800F2
:10000000B0A9002045010008B5280008D526000841
:10001000F9270008D9020008B52A000800000000EE
:10002000000000000000000000000000512900084E
:100030005D0E0008000000004D290008A12A0008FC
:100040005F0100085F0100085F0100085F01000810
:100050005F0100085F0100085F0100085F01000800
:100060005F0100085F0100085F0100085F010008F0
:100070005F0100085F0100085F0100085F010008E0
:100080005F0100085F0100085F0100085F010008D0
:10009000A92A00085F0100085F0100085F0100084D
:1000A0005F0100085F0100085F0100085F010008B0
:1000B0005F0100085F0100085F0100085F010008A0
:1000C0005F0100085F0100085F0100085F01000890
:1000D0005F0100085F0100085F0100085F01000880
:1000E0005F0100085F0100085F0100085F01000870
:1000F0005F0100085F0100085F0100085F01000860
:100100005F0100085F0100085F0100085F0100084F
:100110005F0100085F0100085F0100085F0100083F
:100120005F0100085F0100085F0100085F0100082F
:10013000DFF80CD000F06EF800480047B19C0008D2
:10014000B0A900200648804706480047FEE7FEE7C2
:10015000FEE7FEE7FEE7FEE7FEE7FEE7FEE7FEE777
:10016000A52A00083101000840EA01039B0703D0DB
:1001700009E008C9121F08C0042AFAD203E011F8E6
:10018000013B00F8013B521EF9D27047D2B201E0A8
:1001900000F8012B491EFBD270470022F6E710B58C
:1001A00013460A4604461946FFF7F0FF204610BDE5
:1001B0002DE9F05F0546002092469B46884606469C
:1001C000814640241BE0284641464746224600F02F
:1001D00048F853465A46C01A914110D31146184662
:1001E000224600F02FF82D1A67EB01084F462246F1
:1001F0000120002100F026F817EB00094E41201ED7
:10020000A4F10104DFDC484631462A464346BDE8F6
:10021000F09F00001CB50948009009480190054670
:10022000009C06E0E06840F0010394E8070098476E
:100230001034AC42F6D3FFF77FFF000090C30008F4
:10024000B0C30008202A04DB203A00FA02F10020A3
:1002500070479140C2F1200320FA03F31943904004
:100260007047202A04DB203A21FA02F0002170476F
:1002700021FA02F3D040C2F120029140084319460E
:10028000704770B58C1810F8015B15F0070301D1A9
:1002900010F8013B2A1106D110F8012B03E010F8E9
:1002A000016B01F8016B5B1EF9D12B0705D400230C
:1002B000521E0DD401F8013BFAE710F8013BCB1AAE
:1002C000921C03E013F8015B01F8015B521EF9D5A3
:1002D000A142D8D3002070BDFEE7000010B58AB05F
:1002E00000200690CDE90400CDE90200CDE9000030
:1002F000012047F60814CDE907000E20C2F20004E1
:1003000009906946204600F0DDFE204601F032FAF1
:100310002046022100F06CFE0AB010BD10B588B076
:100320000C460021CDE9020147F60810C2F2000098
:10033000CDE90411CDE906218DF8031000F0D2FFBC
:100340008DF803009DF8030060B147F60810C2F273
:10035000000002A901AB224600F062FE002818BF8F
:1003600000F07EFD08B010BD2DE9F04F81B08B4646
:1003700006460020012105F027FC40F27449078859
:10038000B0F80880C2F2000940F65900A9F8000050
:1003900008F05AFB89F8020087B3002503245FFAAE
:1003A00086FA5FFA8BF64FF0000B03E0013F0BF18A
:1003B000010B24D01FFA8BF25046314608F0CEFADA
:1003C0000028F3D0A4F2FA316FF48062914221D375
:1003D000C17B09EB040209F80410017C013551705E
:1003E000B0F8011045455180C17804F1060411713F
:1003F00090F854005071D9D101E000BF032440F2BD
:100400007440C2F20000214608F07EFD002001B0D9
:10041000BDE8F08F1420192108F07AFB4CF2B400EB
:10042000C0F600004FF480610AF008F9142001B012
:10043000BDE8F08F2DE9F04F81B05FFA80FA5046A9
:10044000002200230C4607F06FFE40F6740B804636
:10045000C2F2000B59208BF800003CB10F208BF842
:1004600001000020002105F09BFB06E002208BF834
:1004700001000020002105F0A7FB814608F0E4FA06
:100480001FFA88F7002F4FF003018BF8020018BF06
:10049000B9F1000F0AD140F67400C2F2000008F072
:1004A00033FD002001B0BDE8F08F00BF4FF6FE38ED
:1004B00001260625CFF6FF78A5F5806040451BD9BB
:1004C000B1B25046224608F0F7F898B1C1780BEB6C
:1004D000050202F8011CB0F80110BE4222F8031C0C
:1004E00001780BF8051005F1040503D2002806F188
:1004F0000106E1D1E91ECEE71420192108F008FB1E
:100500004CF2B400C0F600004FF480610AF096F897
:10051000142001B0BDE8F08F2DE9F04383B005460B
:10052000044615F8020F002AEE780B4614BFA47992
:100530000024697895F802C0F7B2FF2F05D08F2FFD
:100540002CD8103EF6B2042E28D940F67449C2F2D7
:100550000009592689F800600626002B18BF1026CE
:10056000002A18BF192689F8016016466246CDE9AF
:10057000006407F0F3FF08B3064636F8422FFF2F5A
:10058000A6F141085CD0A6F138031AB3856C0DB30F
:100590001978B9421ED1002136E000BF112019217F
:1005A000112408F0B5FA4CF27600C0F600000AF00B
:1005B00045F8204603B0BDE8F08300BFA8780621C7
:1005C00089F804002888A9F80200002089F80500AD
:1005D000B0E000BF064636F8442F3AB1C56C2DB1E5
:1005E000C17AB94202D101210EE000BF064636F8B9
:1005F000462F002A4AD0056D002D47D0017BB94215
:100600004FF0020140F0898040F2F937BA4271D8C8
:1006100098F8027090F8540089F80470B8F80070E7
:1006200089F80500A9F80270585C691C89F8060071
:1006300009F10700FFF798FD3088C11D7AE000BF7F
:1006400032B3816C21B340F2F9339A4252D898F810
:100650000230877A89F80430B8F800300131A9F8FF
:10066000023090F85430044689F8053009F1070348
:10067000184689F80670FFF777FDB4F84210204657
:1006800007310122B0F844303BB929E0022144E0AF
:1006900000220221B0F8443013B3C76C07B34D1DDC
:1006A000EA18B2F5806F25D8B8F8002009EB0503E9
:1006B00029F8012098F8022049448A7090F85420C3
:1006C0000446CA70C27A0A71C16CB0F84420013184
:1006D0001846FFF749FDB4F844102046294401228A
:1006E000B0F84630C3B1076DB7B14D1DEA18B2F589
:1006F000806F2BD914201921142408F009FA4CF228
:10070000B400C0F600004FF4806109F097FF204666
:1007100003B0BDE8F08300BF62B9B8F8002009EB70
:10072000010329F8012098F8022004319A7090F80A
:100730005400D87040F67440C2F2000008F0E4FBA8
:100740000024204603B0BDE8F08300BFB8F80020C5
:1007500009EB050329F8012098F8022049448A7022
:1007600090F854200446CA70027B0A71016DB0F8FB
:10077000462001311846FFF7F7FCB4F84600291867
:10078000D8E700002DE9F04F81B05FFA80FA002130
:10079000BAF1EF0F009161D8A0F11001C9B205299B
:1007A0005CD341F27402C2F2000241F259619070CE
:1007B0005046118007F07CFD00285FD005460026DA
:1007C0004FF0030BE94621E0B0F8011041F2740349
:1007D000C2F2000323F80B10C17803EB0B029170F7
:1007E00090F8541000EB8400D170806C434437F8CB
:1007F0001420411C1846FFF7B7FC37F8140008EB2B
:10080000000B013D280606F1010639D0B1B2504671
:100810004A4607F0EFFC0028F3D090F8401000297A
:10082000EFD0009C00F1420737F814100BF10408D8
:100830004144B1F5806FC7D914201921142408F060
:1008400067F94CF2B400C0F600004FF4806109F083
:10085000F5FE204601B0BDE8F08F00BF3120192120
:10086000312408F055F94CF27600C0F6000009F08A
:10087000E5FE204601B0BDE8F08F00BF4FF0030B4E
:1008800041F27400C2F20000594608F03DFB00241A
:10089000204601B0BDE8F08F2DE9F04F85B0002073
:1008A000012105F091F9B0F800A0B0F80A8041F2FA
:1008B000744BC2F2000B40F25930BAF1000F4FF006
:1008C0000204ABF8000000F09B804FF00009002507
:1008D0000027CDE9018A10E0ACF10100049AC0B212
:1008E0001044451C0C46A8B2804500F089800137B1
:1008F00009F10109D14500F08380B8B208F06CF825
:100900000028F5D090F818C004EB8C01B1F5806F89
:1009100000F28280BCF1000FE5D0BCF1040F00F1C1
:100920000102049504D200231CF003063ED1D3E754
:100930000CF0FC0E65420BEB040800236FF008017D
:10094000039700BF178808EB830628F82370977871
:1009500008EB010BB770C71897F804A004338BF8A5
:100960000CA09478103DB47114889E45B4807C79B5
:1009700001F110018BF810409478B472148834811E
:10098000BC79F4729478B4731488B481FC798BF8D0
:100990001840D7D16942DDE9018A41F2744B039FC7
:1009A0000C46C2F2000B1CF0030695D01188051D01
:1009B0002BF8041091780BEB04008170E95C012E98
:1009C000C17004F104013FF487AFB2F800E02B449A
:1009D0002BF801E0957859448D705978022EC17139
:1009E00004F108013FF478AF16882BF80160927883
:1009F00059448A709978C17204F10C016CE700BF08
:100A000041F27440C2F20000214608F07DFA002055
:100A100005B0BDE8F08F00BF1420192108F078F868
:100A20004CF2B400C0F600004FF4806109F006FEFD
:100A3000142005B0BDE8F08F2DE9F04383B00546E2
:100A4000044615F8020F0B466978AA780F0247EAA8
:100A50000047002B14BFA679002640F20654174425
:100A6000C0F20404A7420FD131201921312408F02B
:100A70004FF84CF24700C0F6000009F0DFFD2046B9
:100A800003B0BDE8F08300BFEF78FFB2102F01D0B4
:100A9000202F0BD131201921312408F039F887A0FB
:100AA00009F0CCFD204603B0BDE8F08341F674099F
:100AB000C2F20009592489F800400424002B18BF11
:100AC0001824CDE90036002389F80140002607F0FC
:100AD00045FD88B1064636F81A2FFF2FA6F11908F2
:100AE0004ED0A6F116058AB1036A7BB12978B942C6
:100AF0000CD1002124E000BFA878062189F8040069
:100B0000288889F80560A9F80200AFE0064636F8A3
:100B10001C2F3AB1436A2BB14179B94202D101216C
:100B20000EE000BF064636F81E2F002A4CD0836A1E
:100B3000002B49D08179B9424FF0020140F0898001
:100B4000B2F57E7F73D898F8027090F8540089F857
:100B50000470B8F8007089F80500A9F80270685CA4
:100B600089F8060013F8010B89F8070009F108005D
:100B70001946FFF7F9FA308800F1080176E000BF66
:100B800022B3016A11B3B2F57E7F50D898F80230D3
:100B9000054689F8043090F85430B8F8007089F8A8
:100BA00005300379A9F8027089F8063011F8013B85
:100BB00089F8073009F108031846FFF7D5FA698B61
:100BC00028460831012203E0022142E000220221EE
:100BD000838B1BB3476A0FB38D1DEA18B2F5806F84
:100BE00025D8B8F8002009EB050329F8012098F86A
:100BF000022049448A7090F854200646CA7042790F
:100C00000A71426A12784A71416A828B0131184630
:100C1000FFF7AAFAB18B304629440122C38BBBB13E
:100C2000876AAFB18D1DEA18B2F5806F2AD91420FA
:100C30001921142407F06CFF4CF2B400C0F6000038
:100C40004FF4806109F0FAFC204603B0BDE8F08360
:100C500062B9B8F8002009EB010329F8012098F8DF
:100C6000022004319A7090F85400D87041F6740054
:100C7000C2F2000008F048F90024204603B0BDE8A5
:100C8000F08300BFB8F8002009EB050329F8012024
:100C900098F8022049448A7090F854200446CA709B
:100CA00082790A71826A12784A71816AC28B013133
:100CB0001846FFF759FAE08B2918D7E75B434841FC
:100CC000524F4E5D2052657175657374206E6F745E
:100CD0002076616C69642C20536E617053686F7468
:100CE000206E6F7420737570706F727465642E005F
:100CF0002DE9F0410C4606460020002104F064FF77
:100D0000B578A5F1FA0005280AD21120192111247D
:100D100007F0FEFE43A009F091FC2046BDE8F081FB
:100D2000002DF2D0FF2D0BD13046214607F01CFDDF
:100D30000446002818BF14242046BDE8F08100BFF7
:100D4000284607F073FC044641F67447C2F20007D8
:100D500040F259503880FCB194F82C0000B3E0798F
:100D600004F1010885421DD1BD70B8F80000616B27
:100D7000A7F8030098F80200E28D787194F8540007
:100D8000B87111F8010BF87107F10800FFF7ECF9E1
:100D9000E08D00F1080106E0B0780321B87038E07A
:100DA000022136E00221207A854217D17D54B8F81D
:100DB00000007A18A2F8010098F802008E1DD07089
:100DC00094F854001071A06B00785071A16B228EC2
:100DD000B8190131FFF7C8F9208E3118607A8542C1
:100DE00017D17D54B8F800007A18A2F8010098F8DD
:100DF00002008D1DD07094F854001071E06B0078E3
:100E00005071E16B628E78190131FFF7ADF9608E98
:100E1000291841F67440C2F2000008F075F800206D
:100E2000BDE8F0815B434841524F4E5D20526571F1
:100E300075657374206E6F742076616C69642C2004
:100E4000446174615265636F7264206E6F742073C5
:100E50007570706F727465642E000000704700003A
:100E6000EFF3108072B600BFFEE7000070B542F2EB
:100E70000C060446C4F2020600F0D8FE3168C90729
:100E80001CD13068800644BF202030603068C00626
:100E900007D43069C00704D1306840075CBF002028
:100EA00070BD3068C00647F68010C2F2000021D441
:100EB00000213268520725D42AE000BFC4B105469C
:100EC000601C10D13068C007DBD03068C0071CBF81
:100ED00030685FEAC070D4D03068C007F2D1D0E784
:100EE0003068C007CDD000F0A1FE401BA042F7D96A
:100EF000032070BDC16941F00201C1611021326857
:100F0000520705D5C26941F0040142F00102C261F5
:100F10003269D20702D10120316070BDC26942F04E
:100F20000402C261306920F00100306101203160AB
:100F300070BD0000B0B50020012104F045FE42F272
:100F400074050446C2F2000540F65940288007F0B7
:100F50007BFDE169A870022908D2032142F27400E6
:100F6000C2F20000BDE8B04007F0CEBFC87868719B
:100F7000B1F8010091F85410A5F80300A9710721F8
:100F800042F27400C2F20000BDE8B04007F0BCBFFE
:100F9000B0B50020012104F017FE42F2744504466A
:100FA000C2F2000540F65930288007F04DFDA169D6
:100FB000A870022908D2032142F27440C2F2000054
:100FC000BDE8B04007F0A0BFC8786871B1F8010073
:100FD00091F85410A5F80300A971072142F274405A
:100FE000C2F20000BDE8B04007F08EBF00F01EBEA8
:100FF00090F82020013A012A08D8006800F1140274
:101000000020136819431160704700BF00F12402EB
:1010100001204FF4802113681943116070470000CC
:1010200010B590F820E0D0F800C0AEF1010EBEF18E
:10103000010FDCF808E011D81EF0E05F18D0CEF305
:1010400001640120A04018608B68DBB1D1F804E096
:10105000C86840EACE0040EA030E17E000F124031E
:1010600001204FF480211A681143196010BD00BFA0
:1010700000F1240301204FF400111A681143196094
:1010800010BD00BF0868CB6843EA405E0CF5C07035
:1010900000EB0413240140F804E00C69184640F802
:1010A000044F097D012903D1016841F48071016079
:1010B00050680121D8601068986000201A681143B8
:1010C000196010BD026890F82030013B012B29D82F
:1010D000B0B5D2F80002012340F00100C2F80002CE
:1010E000D1F814E0CC690EF01F0003FA00F0D2F83A
:1010F0001C326FEA000C8343012CC2F81C3217D05B
:101100006CBBD2F80C3203EA0C03C2F80C32CB6889
:101110008C8844EA034302EBCE04C4F840320B4609
:1011200015E000BF416A41F480214162012070470F
:10113000D2F80C320343C2F80C320B688C8844EAB4
:10114000034302EBCE04C4F8403201F10C038D6876
:101150001B8802EBCE0443EA0543C4F84432D2F8BC
:1011600004328C6943EA0005D1F810E0096A002CCA
:1011700008BF03EA0C05C2F80452D2F81432BEF1DB
:10118000000F43EA000408BF03EA0C040129C2F877
:10119000144204D1D2F81C120843C2F81C02D2F83F
:1011A000000220F00100C2F800020020B0BD0000E3
:1011B00070470000B0B590F82040013C012C7DD86C
:1011C000D0F800C000290CBFDCF80C40DCF810405F
:1011D000A4077DD00CF5D8754FEA011C55F80C40DA
:1011E00014F00404946055F80CE005EB011C19BFE1
:1011F0004FEADE0555604FEA5E551560DCF8005099
:10120000E64605F00205D5605EF8044F24075ABF94
:10121000DEF8004004F00F0408241461DEF80040FA
:101220000029C4F307249461DEF800504FEA154505
:101230005561DCF808201A70026802EB0112D2F83E
:10124000B8214FEA12225A70026802EB0112D2F85A
:10125000B8214FEA12429A70026802EB0112D2F8EA
:10126000B8214FEA1262DA70026802EB0112D2F87A
:10127000BC211A71026802EB0112D2F8BC214FEABC
:1012800012225A71026802EB0112D2F8BC214FEA15
:1012900012429A71026802EB0112D2F8BC214FEAA5
:1012A0001262DA7100680CBF00F10C0100F110014C
:1012B000002020220B681A430A60B0BD00F124010F
:1012C00001204FF480220B681A430A60B0BD00BFB2
:1012D00000F1240101204FF400120B681A430A6048
:1012E000B0BD000090F820100139012984BF002012
:1012F00070470068816882688068C1F38061C2F3CA
:10130000C0621144C0F30070084470472DE9F04FEB
:1013100081B0044600684669D0F804908768D0F828
:101320000CB0D0F810A0D0F81880F10704D1002537
:1013300030071DD424E000BFF90710D00121BA07FF
:10134000816009D4780700F1AF80380700F1B680DA
:10135000204600F03DFA02E0204600F03BFA00256E
:10136000F80500F18780F80300F1B180300707D558
:101370001BF0100004D0206845F400751021C160F6
:10138000700708D51BF0080005D020680821C1604F
:10139000204600F0ADF9B00706D52068C068800788
:1013A00002D0204600F0A6F9700607D51AF010000A
:1013B00004D0206845F4806510210161B00608D58D
:1013C0001AF0080005D0206808210161204600F0CD
:1013D000CBF9F00606D520680069800702D02046C8
:1013E00000F0C4F9B00308D519F0100005D020684A
:1013F00010214160204600F0BBF9F00308D519F038
:10140000080005D0206808214160204600F0ECF972
:10141000300440F19B805FEA497040F1948006F40B
:10142000807008EA102028435FEA8871014648BFAF
:1014300041F00201B20558BF01465FEA48700D460F
:1014400048BF45F00405700558BF0D46300540F112
:101450007A8018F0700000F07680103800090528B6
:101460006CD8DFE800F003655D61596945F0080557
:1014700064E000BF20684FF48071BA0581600BD42E
:10148000780515D438051DD4204600F0A5F9F803D9
:101490007FF56CAF1BE000BF204600F09FF9F8031A
:1014A0007FF564AF13E000BF4FF4006558E700BF5D
:1014B00005F50055F8037FF559AF08E04FF4805566
:1014C0004EE700BF05F58045F8037FF54FAF206874
:1014D0004FF48031BA0381600AD4780310D4380302
:1014E00014D4204600F07CF930073FF541AF47E7C0
:1014F000204600F077F930073FF53AAF40E700BFEC
:1015000005F5004530073FF533AF39E705F5803580
:1015100030073FF52DAF33E745F080050EE000BF03
:1015200045F020050AE000BF45F0400506E000BF99
:1015300045F0100502E000BF45F480752068816920
:1015400021F07001816120680421416055B1606A19
:1015500040EA05012046616201B0BDE8F04FFFF7A7
:1015600027BE00BF01B0BDE8F08F0000002804BF17
:1015700001207047B0B5044690F8200010B920460D
:1015800000F06EF82068016841F00101016000F090
:101590004DFB054620684168C90705D100F046FBB0
:1015A000401B0B28F6D310E0016821F00201016016
:1015B00000F03CFB054600BF2068416889070DD557
:1015C00000F034FB401B0B28F6D3606A052140F481
:1015D00000306062012084F82010B0BD217E0268D6
:1015E000012922F0800208BF80320260617E026819
:1015F000012922F0400208BF40320260A17E026849
:10160000012922F0200208BF20320260E17E026838
:10161000012922F0100218BF10320260217F0268F7
:10162000012922F0080208BF08320260617F0268C7
:10163000012922F0040208BF04320260D4E901C289
:10164000D4E9033561691A432A431143ACF101021D
:101650001143C16100200121606284F82010B0BDF7
:10166000B0B586B040F60004C4F201040068A4F5E9
:101670002442002190420591CDE90311029101D04D
:1016800006B0B0BD41F21800C4F20200426802ADDB
:1016900042F000724260426802F000720192019AC8
:1016A000026842F004020260006800F00400019049
:1016B00001984FF40060CDE90201049120462946CB
:1016C00000F0BAF94FF480500290022003900320FA
:1016D00005902046294600F0AFF914200021002291
:1016E00000F024FB142000F00FFB06B0B0BD00009A
:1016F00070470000B0B58AB003AA01AB0021FFF724
:1017000059FD70BB0398B0F5FC6F2AD140F26034EC
:101710009DF81C20C2F200042078082A21D801304C
:10172000617800F00F058D4204D16068013060607F
:101730000AB0B0BD207847F208410001C2F20001B2
:101740004FF4FC630B50207801EB001002712078FD
:1017500001EB0010053001A9FEF706FDBFF35F8F16
:1017600025700AB0B0BD000070470000704700004F
:1017700070470000B0B5044690F8200001281DD144
:10178000022084F820002068016821F00101016036
:1017900000F04CFA054600BF20684068C00713D02F
:1017A00000F044FA401B0B28F6D3606A40F4003086
:1017B0006062052084F820000120B0BD606A40F41A
:1017C000002060620120B0BD00206062B0BD00005A
:1017D000704700007047000070470000704700002D
:1017E0007047000070470000704700002DE9F0438B
:1017F00081B047F68015C2F200052A7E012A03D186
:10180000022001B0BDE8F083044601202668287656
:101810004CF250308846FFF729FB022E1CD10028DD
:101820004ED1002042F21004E861C4F202042068A4
:1018300040F004002060206840F0400020604CF23E
:101840005030FFF713FB216821F0040121600021D3
:10185000297601B0BDE8F08390BB4FF0FF30C8F8A7
:101860000000D4E90270414607EBC020874227D22E
:1018700042F21006C4F202064FF00009C5F81C90AF
:10188000306840F0020030607760306840F040001F
:1018900030604CF25030FFF7E9FA316821F0020174
:1018A000316098B9D4E9020107F5006700EBC12067
:1018B0008742E3D300200021297601B0BDE8F08300
:1018C00001200021297601B0BDE8F083C8F800703E
:1018D0000021297601B0BDE8F083000042F210013A
:1018E000C4F20201086840F0800200200A607047DC
:1018F0002DE9F04381B047F68017C2F20007164683
:101900003A7E012A04D1022001B0BDE8F08300BF75
:101910000546012038764CF250300C469846FFF7C9
:10192000A5FA28B10021397601B0BDE8F08300BFE7
:1019300042F210090020C4F20209F861D9F800004F
:1019400040F00100C9F800004CF250302680FFF74B
:101950008DFAD9F80010002821F00101C9F8001013
:1019600018BF0046DED1012DDCD00020F861D9F887
:101970000000310C40F00100C9F800004CF250307A
:101980006180FFF773FAD9F80010002821F00101F7
:10199000C9F80010C6D1E81E10F1030F4FF0000087
:1019A000C0D8F861D9F8000040F00100C9F8000083
:1019B0004CF25030A4F80480FFF758FAD9F8001020
:1019C000002821F00101C9F80010ABD10020F86116
:1019D000D9F800004FEA184140F00100C9F80000B2
:1019E0004CF25030E180FFF741FAD9F8001000289E
:1019F00021F00101C9F8001018BF00460021397616
:101A000001B0BDE8F083000042F20400C4F202001D
:101A1000C16809065CBF0020704740F22311C4F280
:101A20006751016048F6AB11CCF6EF510160C06818
:101A3000C0B2C009704700002DE9F04F82B00E68B7
:101A4000002E00F0E980A0F1804241F6004540F20E
:101A50000043A2F58432C4F201050624C4F2010356
:101A60004FEAB227A84208BF05244FF0000E4FF0FE
:101A700001080F254FF0000A4FF0000B052F38BF6B
:101A80004FEAB224009408E00E680AF1010A36FA1F
:101A90000AF20EF1040E00F0BF8008FA0AFC16EA02
:101AA0000C09F1D04E684FF6FF72C1F21002964257
:101AB00012DC122E56D8DFE806F0350B4D4955558D
:101AC000555555555555555555555545510000BF1A
:101AD000D1F80CB046E000BF4FF6FF72C1F2210210
:101AE00096420FDC0022C1F2110296421AD0002267
:101AF000C1F21202964215D00022C1F22102964292
:101B000010D02FE00022C1F2220296420AD0002219
:101B1000C1F23102964205D00022C1F23202964251
:101B200020D100BF8A684AB1012A14BFC0F814C08E
:101B3000C0F810C04FF0080B14E000BF4FF0040BCA
:101B400010E000BFCA6802F1040B0BE04FF0000B7D
:101B500008E000BFCA6802F1080B03E0CA6802F19E
:101B60000C0B00BF02467446B9F5807F24BF0432D7
:101B7000203C166805FA04F726EA07070BFA04F674
:101B800037431760CA79D2067FF57EAF41F2180756
:101B9000C4F202073A684FF6084542F001023A6083
:101BA0003A68CFF6FF7502F001020192019A2AF01D
:101BB00003021A440F2457590EF00C06B440A743F1
:101BC000009C04FA06F6374357514E6840F20C4425
:101BD000F2029A6854BF22EA090242EA0902C4F2F8
:101BE00001049A602268B70254BF22EA090242EA5D
:101BF000090222605A68B70354BF22EA090242EA86
:101C000009025A600F251A68F70354BF22EA090235
:101C100042EA09021A6037E702B0BDE8F08F00001F
:101C2000002A08BF090401617047000049F6AC10A2
:101C3000C2F200000068704740F2080049F6AC119B
:101C4000C2F20000C2F2000100780A681044086085
:101C50007047000080B542F20000C4F20200016843
:101C600041F010010160032000F08CF80F2000F01B
:101C700005F800F027F8002080BD000070B540F2A4
:101C80000806C2F2000640F224013278C2F20001D6
:101C90004FF47A730968B3FBF2F20446B1FBF2F138
:101CA000084600F085FB0F2C4FF0010508D838B925
:101CB0004FF0FF3021460022002500F037F8746015
:101CC000284670BD82B041F21800C4F202000168DB
:101CD000022241F001010160016801F0010101915E
:101CE0000199416841F080514160406800F08050A6
:101CF000009000980420C4F20100016862F31A61A8
:101D0000016002B070470000002848BF704700F033
:101D10001F01012202FA01F11C2202EAD0004EF258
:101D20000012CEF2000281507047000010B54EF64E
:101D30000C5CCEF2000CDCF80030C3F3022E8EF007
:101D40000704042C28BF0424BEF103034FF0FF3E18
:101D50000EFA04F438BF0023A14399400EFA03F3AE
:101D60009A43114300F00F0200F160430901043A65
:101D700003F564436244002848BF02F10C03197064
:101D800010BD00004EF60C51CEF200010A684FF66D
:101D9000FF031A4060F30A2242F0806040F0FD70B9
:101DA00008607047002804BF012070472DE9F04308
:101DB00081B042F20008C4F202080446D8F80000DC
:101DC0000D4600F0070088420CD2D8F8000020F041
:101DD00007002843C8F80000D8F8000000F007000A
:101DE000A8426CD1206841F204098107C4F20209BB
:101DF00017D5410705D5D9F8001041F4E061C9F8BD
:101E00000010010705D5D9F8001041F46051C9F858
:101E10000010D9F80010A26821F0F0011143C9F8B0
:101E20000010C00742D1D8F8000000F00700A84217
:101E30000CD9D8F8000020F007002843C8F80000AB
:101E4000D8F8000000F00700A84238D12068410708
:101E500007D5D9F80010E26821F4E0611143C9F810
:101E60000010000708D5D9F80000216920F460505F
:101E700040EAC100C9F80000D9F8002002F00C00C7
:101E8000082841F20020C0F27A004DD14AF6B25340
:101E9000C2F38341C0F60003595CD20338D440F644
:101EA0000010C0F23D0048433EE000BF606859F8B2
:101EB000041C022808D0012826D1890306D4012059
:101EC00001B0BDE8F08300BF8901F8D5D9F8001052
:101ED00021F003010843C9F80000FFF7A7FE0646FA
:101EE00041F28837D9F80000616800F00C00B0EBCF
:101EF000810F98D0FFF79AFE801BB842F2D90320D9
:101F000001B0BDE8F08300BF8907D8D5DEE700BF88
:101F1000D9F800204AF6B033C2F34042C0F60003BD
:101F20009A5C4843B0FBF2F0D9F800104AF69832B8
:101F3000C1F30311C0F60002515C40F2240220FA02
:101F400001F140F20C00C2F200000068C2F200028F
:101F50001160FFF793FE002001B0BDE8F0830000A0
:101F600040F2240041F20401C2F20000C4F2020176
:101F7000006809684AF6A832C1F30221C0F60002DF
:101F8000515CC8407047000040F2240041F2040157
:101F9000C2F20000C4F20201006809684AF6A832E1
:101FA000C1F3C221C0F60002515CC8407047000076
:101FB000002804BF012070472DE9F04182B004469B
:101FC000007841F20006C007C4F202060CD0706827
:101FD00000F00C00042840F081803068800303D5B5
:101FE0006068002800F04681207880071BD5706863
:101FF00010F00C0F09D0706800F00C00082840F0B9
:1020000087807068C00300F183803068800703D543
:102010002069012840F02E813068616920F0F800C5
:1020200040EAC10030602078000713D420784007D0
:102030002CD4E569002D00F01881706800F00C00C8
:10204000082840F0A780012D40F00481012002B053
:10205000BDE8F081A069002800F084800020C4F26F
:1020600042200121C0F88014FFF7E0FD054600BFC3
:10207000706A800700F1B280FFF7D8FD401B02288C
:10208000F6D9032002B0BDE8F08100BFF0695FEA35
:10209000C00808D4F06940F08050F061F06900F0A9
:1020A00080500090009847F20007C4F2000738689B
:1020B000C00549D4386840F480703860FFF7B6FD39
:1020C000054600BF3868C0053ED4FFF7AFFD401B92
:1020D0006428F7D9032002B0BDE8F081706800F0F1
:1020E0000C00082803D17068C0033FF576AF616823
:1020F0003068002900F00C81B1F5A02F00F00081BC
:10210000B1F5803F40F01A8140F480301CE100BFFF
:102110002069002840F20000C4F2422000F08880CC
:1021200001210160FFF782FD054600BF306880078E
:102130003FF572AFFFF77AFD401B0228F6D9032066
:1021400002B0BDE8F08100BFE168306A002900F00C
:102150009D80052900F09280012940F0AF8040F079
:102160000100B1E00020C4F242200021C0F8801438
:10217000FFF75CFD054600BF706A80077FF556AF2C
:10218000FFF754FD401B0228F6D9032002B0BDE83A
:10219000F08100BF0027C4F2422700203866FFF715
:1021A00045FD022D05460DD13068800140F1DE80ED
:1021B000FFF73CFD401B02284FF00300F4D902B0AA
:1021C000BDE8F081306880014FD5FFF72FFD401B3F
:1021D00002284FF00300F5D9F1E700BF40F22400D8
:1021E000C2F20000006844F6D351C1F26201A0FBC4
:1021F0000101480A019000BF00BF0198411E00285C
:1022000001913FF413AF00BF0198411E00280191D6
:102210003FF40CAF00BF0198411E002801913FF42C
:1022200005AF00BF0198411E00280191E4D1FDE6F1
:1022300000210160FFF7FAFC054600BF3068800707
:102240007FF5F1AEFFF7F2FC401B02284FF00300D0
:10225000F4D9B4E77068216A00F480328A4209D167
:10226000616A00F47010884204D1002002B0BDE819
:10227000F08100BF012002B0BDE8F08140F0040011
:102280003062306A40F001001EE000BF20F0010023
:102290003062306A20F004003062FFF7C7FC054668
:1022A00041F28837306A800720D5FFF7BFFC401B1A
:1022B000B8424FF00300F5D981E700BF20F00100DC
:1022C0003062306A20F004003062FFF7AFFC054650
:1022D00041F28837306A800708D4FFF7A7FC401B1B
:1022E000B842F7D9032002B0BDE8F081B8F1000F81
:1022F0003FF59FAEF06920F08050F06199E600BF95
:1023000040F480203060306840F480301CE000BF32
:1023100020F480303060306820F480203060FFF797
:1023200085FC0546306880037FF55EAEFFF77EFCD6
:10233000401B64284FF00300F4D940E720F48030BC
:102340003060306820F480203060FFF76FFC054675
:10235000306880033FF548AEFFF768FC401B6428F7
:10236000F6D9032002B0BDE8F08100BF206AB0F5C5
:10237000803F05D17168A26821F40031114371607A
:102380007168626A21F4741111430843706001207E
:102390003866FFF74BFC0446306880013FF565AFB7
:1023A000FFF744FC001B02284FF00300F4D906E7B6
:1023B000411E0020B0EB116F1CBF012070474EF290
:1023C0001002CEF2000251604EF62351CEF200010F
:1023D000F0230B700721906011607047002804BF44
:1023E0000120704710B5044690F8410028B900203C
:1023F00084F84000204600F063F8242084F841006F
:102400002068D4E90212C36823F40053C36003694F
:1024100023F440531A430261D4E904231143C268F0
:10242000194341F20C639A431143C1604169A269A7
:1024300021F44071114343F60002C4F201029042BC
:10244000416103D0FFF78CFD02E000BFFFF79CFD68
:10245000D4E90023192148439900B0FBF1F048F278
:102460001F5CC5F2EB1CA0FB0C314FF69C734909B5
:10247000C0F6FF7301FB0300322303EB0010A0FB47
:102480000C03F02000EA531000EB0110C3F34311DA
:10249000084490601069202120F490401061506938
:1024A00020F02A005061D06840F40050D060002035
:1024B000606484F8411084F84210606310BD00002D
:1024C00070B586B040F60004C4F20104006804F55B
:1024D0004051002688420596CDE90366029601D058
:1024E00006B070BD41F21800C4F20200016802ADEE
:1024F00041F480410160016801F48041019101993A
:10250000016841F0040101600068294600F0040000
:10251000019001984FF40070029002200390032074
:1025200005902046FFF788FA4FF48060CDE9020657
:10253000204629460496FFF77FFA06B070BD0000DA
:102540002DE9F04381B0044690F84100202809D1DC
:1025500000294FF0010018BF002A07D101B0BDE8E3
:10256000F08300BF022001B0BDE8F083002060646A
:1025700021201D460E4684F841001746FFF756FB02
:10258000A784E784A1688146B1F5805F02D1206904
:1025900000285DD037460020E28C2168002A5DD0FB
:1025A0006A1C24D0002D4AD0804600BF086800066F
:1025B00008D4FFF73BFBA0EB0900A8427AD82168BA
:1025C000C868F3E717B117F8010B04E038F8020BFD
:1025D00000276FF35F204860E08C0138E084E08CD6
:1025E0000028E3D13AE000BF0A68120609D40A685D
:1025F000120606D40A6812065CBF0A685FEA026225
:10260000F2D51FB117F8012B05E000BF30F8022BFF
:1026100000276FF35F224A60E28C013AE284E28C89
:10262000002AE4D11AE000BF30F8022B00276FF334
:102630005F224A60E28C013AE284E28C72B10A685D
:10264000120635D5002FEFD017F8012BF1E700BFA8
:1026500000273046E28C2168002AA1D10868400694
:102660001ED42DB3681C14D1086840062AD408680B
:10267000400627D40868400624D4086840064FF076
:102680000000F1D50DE000BF2068C1680068400679
:1026900018D4FFF7CBFAA0EB0900A842F4D909E05F
:1026A0000020202184F8411001B0BDE8F08300BF74
:1026B000FFF7BCFA0320202184F8411001B0BDE8E7
:1026C000F08300BF0020202184F8411001B0BDE854
:1026D000F0830000FEE7000010B547F6081046F250
:1026E0000041C2F20000C4F20001092200234FF0B1
:1026F000807480E80E0000F10C014FF4802C4FF440
:10270000801E81E8085084618383FEF72FFF002834
:1027100008BF10BDBDE81040FEF7A2BB2DE9F04395
:1027200085B00020CDE90300CDE9010041F2180099
:10273000C4F20200016840F6004941F04001016026
:102740000168C4F2010901F040010091009901689B
:1027500009F5406541F0040101600168012201F0C2
:1027600004010091009901684FF0200841F0080130
:1027700001600068202100F00800009000982846C1
:102780000127FFF74DFA484620210122FFF748FABA
:1027900001AE032428463146CDE90187039704940E
:1027A000FFF74AF948463146CDE90187CDE9037480
:1027B000FFF742F905B0BDE8F083000080B547F6A9
:1027C000301043F60001C2F20000C4F20101002300
:1027D0004FF00C0C4FF4E13280E80E00C0E90333F7
:1027E000C0E905C3C361FFF7F9FD002808BF80BD3C
:1027F000BDE88040FEF734BBFEE70000B0B5002026
:10280000012103F0E1F942F674050446C2F2000525
:1028100040F65960288006F017F9616AA87089B1FE
:10282000C8786871B1F8010091F85410A5F8030058
:10283000A971072142F67400C2F20000BDE8B04061
:1028400006F062BB032142F67400C2F20000BDE84C
:10285000B04006F059BB0000B0B50020012103F0E4
:10286000B3F942F674450446C2F2000540F65950E9
:10287000288006F0E9F8216AA87089B1C8786871E3
:10288000B1F8010091F85410A5F80300A9710721CF
:1028900042F67440C2F20000BDE8B04006F034BB1E
:1028A000032142F67440C2F20000BDE8B04006F0D9
:1028B0002BBB0000FEE70000B0B5C0B2C9B205F006
:1028C000FDFB43F274050446C2F2000540F2597064
:1028D000288006F0B9F8A8700120E870200A287155
:1028E000284606216C71BDE8B04006F00DBB000023
:1028F00070B50346807843F27444C2F200044AB1D2
:10290000DB78012205F010FC0546592020701720C5
:102910000CE000BF002200230E4605F005FC054632
:10292000592020700120002E18BF1120607006F081
:102930008BF8A0700120E070280A20712046062143
:102940006571BDE8704006F0DFBA00007047000016
:10295000704700002DE9F04383B0044600200021B9
:102960004FF0000903F030F914F8025F43F6044811
:102970006678A778C2F2000840F65910A8F800005F
:1029800006F062F888F80200284631463A460023ED
:10299000CDF80090CDF8049005F0E0FD80B1B0F8DE
:1029A0000F10A8F80310B0F80110A8F80510C178AE
:1029B00090F8540088F8071088F80800092106E00C
:1029C000A078062188F805002088A8F8030043F6BF
:1029D0000440C2F2000003B0BDE8F04306F094BA30
:1029E0002DE9F0470020002103F0EEF8804600209A
:1029F000012103F0E9F844F2040905460488B0F81F
:102A000008A0C2F2000940F65920A9F8000006F01B
:102A10001BF8BAF5807F89F802000FD9142019211C
:102A2000142406F075F84CF2B400C0F600004FF420
:102A3000806107F003FE2046BDE8F08734B305F15E
:102A40003000621E08F1540303210025002400BF5A
:102A5000C5F3C707C75D05F00706F740FF070CD0B1
:102A600033F8537C09EB010629F8017013F8517C07
:102A70000431B7701F780134F770544507D0AA426B
:102A800005F1010503F15803E2D100E0032144F20E
:102A90000400C2F2000006F037FA0020BDE8F0871B
:102AA000FFF7CAB87047000047F60810C2F20000EE
:102AB000FEF72CBCFEE700002DE9F04730B1877827
:102AC00090F803A090F8049005E000BF33274FF082
:102AD000FF0A4FF0FF0944F20448C2F2000844F232
:102AE0005920A8F8000088F8027005F0ADFF88F8BA
:102AF00003000020002103F067F8044600200121B4
:102B000003F062F80288CAB3FBB2FF2B00F1300079
:102B10003ED054340027042105E000BF0137BA42FB
:102B200004F158042BD0C7F3C706865D07F00705EC
:102B3000EE40F607F2D014F8446C9E42EED114F841
:102B4000546C1AEA060F1CBF14F8455C19EA050616
:102B5000E4D08E1DB6F5806F4CD808F8015014F8FB
:102B6000445C41444D7034F8535C4D8014F8515C22
:102B70000D7125784D713146D0E700BF042144F234
:102B80000440C2F2000006F0BFF90020BDE8F08763
:102B900004F154030027042105E000BF0137BA42C5
:102BA00003F15803EBD0C7F3C706865D07F00705AE
:102BB000EE40F607F2D013F8546C1AEA060F1CBF69
:102BC00013F8456C19EA0605E8D08C1DB4F5806F42
:102BD00010D808F8016013F8446C41444E7033F883
:102BE000536C4E8013F8516C0E711E784E71214655
:102BF000D4E700BF1420192105F08AFF1420BDE896
:102C0000F08700004EF60C50BFF34F8FCEF200005D
:102C10000168042201F4E061C0F2FA52114301603C
:102C2000BFF34F8F00BF00BF00BF00BFFAE7000037
:102C300084B040F20005C2F2000514460E46074675
:102C400047A0162101222B4607F07AFF3846294675
:102C500007F06AFF48A0072101222B4607F070FF0A
:102C60003046294607F060FF45A0072101222B4688
:102C700007F066FF01A80A300A21012CADF80E10FA
:102C800052DB4CF6CD4C49F69A1248F21F5E44F6E0
:102C9000D35841F25979CCF6CC4CC1F69912C5F211
:102CA000EB1EC1F26208CDF2B71942F2107500BFF7
:102CB000A4FB0C13D90801EB8103A4EB430343F0FD
:102CC00030030A2C00F8013C36D3A1FB023707EB96
:102CD0008703A1EB430141F03001642C00F8021C92
:102CE0002ED3A4FB0E135909A1FB023707EB870370
:102CF000A1EB430141F03001B4F57A7F00F8031CE9
:102D000022D3A4FB08139909A1FB0237A4FB0936BF
:102D100007EB8703A1EB430141F0300100F8041DEC
:102D2000AC424FEA5634C3D240F20001C2F2000175
:102D300007F0FAFE00F028F84FF0FF3106E000BF80
:102D40006FF0010102E000BF6FF00201084440F2A1
:102D50000001C2F2000107F0E7FE00F015F800BF25
:102D60002A2A2A20617373657274696F6E20666106
:102D7000696C65643A2000002C2066696C6520004F
:102D80002C206C696E652000FEE70000002818BF4B
:102D9000002901D1704700BF002A08BF70472DE904
:102DA000F04FA5B000924A7A91F800A01D928A7A5D
:102DB00091F801C01C92CA7A8F78209202784378E9
:102DC0008AEA0204827883EA0C037A4091F803E0ED
:102DD0000D792493C3782292027983EA0E036A4024
:102DE0004E7991F8068021931F924379827991F868
:102DF00007B086EA030782EA0802C37991F80890CF
:102E00002392027A8BEA030B437A1D9E82EA09021F
:102E10001E92827A86EA03081C9B91F80CC083EA12
:102E20000205C37A209A467B534020934B7B027B5A
:102E300083EA060982EA0C0291F80EC091F80FE0CD
:102E4000817BC67B0346019081EA0C0186EA0E066F
:102E500000201D921C9000BF4AF6F85EF8B2C0F642
:102E6000000E1EF80030E8B21EF800504FF01B0CA8
:102E700085EA030047B20CEAD71787EA40001B90A7
:102E8000E0B21EF800A0F0B21EF8006083EA0A006B
:102E900047B20CEAD717199387EA400386EA050779
:102EA0001A9587EA000578B20CEAD01080EA47004C
:102EB00014905FFA88F00F931EF80030C8B21EF825
:102EC000004086EA0A0041B20CEAD11181EA4000D2
:102ED000129084EA030041B20CEAD11181EA400069
:102EE0001F9917902198C9B21EF80110C0B21EF8A0
:102EF000007083EA01000A46039141B216930CEA7E
:102F0000D11184EA0703189481EA400183EA00049E
:102F100058B20CEAD01080EA43000E902298159621
:102F2000C0B2089139461EF800605FFA89F01F9719
:102F30001EF8007082EA010042B20CEAD21282EA64
:102F400040000C9087EA060042B21E990CEAD212A9
:102F500082EA4000CAB21EF8028011905FFA8BF03C
:102F60001EF8003087EA080042B20CEAD21282EA68
:102F7000400183EA060280EA020950B20CEAD0104E
:102F800080EA4200099024981097C0B21EF80070A1
:102F900023980491C0B21EF8001088EA030042B2E0
:102FA0000CEAD21282EA4000079081EA070042B29E
:102FB00013960E460D910CEAD2121D9982EA40003A
:102FC0000B902098CAB21E931EF80230C0B21EF8B1
:102FD000001083EA07000A9747B20CEAD71787EA7E
:102FE000400281EA060780EA070E78B20CEAD010A8
:102FF00080EA470083EA0107069078B21D910CEA47
:10300000D0110198DDF870C081EA47016044029256
:10301000027C05910F99877C5140427C8AEA010A23
:103020001B99129E4A401999DDF868B04A401499DC
:103030006A404F40C17C87EA0B077140159E24927D
:10304000714087EA050269402292027D2191089928
:103050008AEA0506039D5140427D6940179D1B96F3
:10306000169E6A40857D72400E9E189F7540C67DF3
:103070007D400C9F61407E401F9F1F9185EA0401A7
:103080007E4082EA04072391017E049A86EA040BBB
:103090005140427E119C867E6240109CC57E6240FB
:1030A000099C81EA08016640139C81EA0901664097
:1030B000079C82EA090865401E9C1E916C4084EAC8
:1030C0000902017F2092029A0A9C5140427F594096
:1030D0000B9B81EA0E015A40837F6240069CC07FB1
:1030E00063400D9C0CF1100C6340059C86EA0905B9
:1030F00060401D9C1D9160401B9C82EA0E0983EA82
:103100000E01BCF1900F80EA0E06CDF870C07FF47E
:10311000A3AE4AF6F85EE0B2C0F6000E1EF800A0BC
:1031200024985FFA88F3C0B21EF80000EDB2249034
:103130002298C9B2C0B21EF800001EF801102290F9
:1031400021985FFA89F2C0B21EF800001EF8022032
:103150001C901F98C0B21EF800001B90F8B21EF819
:1031600000C02398C4B21EF804005FFA8BF42390C9
:103170001EF804001EF803B01F901E981EF80530BC
:10318000C4B21EF80400F4B21E9020981EF8046029
:10319000C5B21EF8050021901D98C5B21EF80500A5
:1031A0002090019890F8A04090F8A15084EA0A0776
:1031B0001D9785EA0C0790F8A2501A9790F8A37013
:1031C0006B40199387EA0603189390F8A4301B9E6E
:1031D00090F8A57083EA060890F8A66087EA0B03CA
:1031E0001B9390F8A73086EA01051C9990F8A96016
:1031F00083EA010B90F8A8301E9986EA020990F83C
:10320000AA60229A83EA010490F8AB1056401F9AF4
:10321000209B81EA020E90F8AC2090F8AD1082EA73
:10322000030C249A1A9F81EA020390F8AE10239AA5
:1032300090F8AF005140219ADDF874A04240009808
:103240004770199F80F800A08770189F80F804804D
:10325000C7701B9F8571477180F807B0047280F8B2
:103260000990867280F80BE080F80CC0437381737C
:10327000C27325B0BDE8F04F70470000002818BFAA
:10328000002901D1704700BF2DE9F04F0A784AF6B6
:10329000F85C02704A78C0F6000C42708A780678B2
:1032A0008270CA784FF0020AC2700A794FF0000BA0
:1032B00002714A7942718A798271CA79C2710A7A35
:1032C00002724A7A42728A7A8272CA7AC2720A7B1D
:1032D00002734B7B43738F7B8773C97BC1731CF86D
:1032E00003301CF80770734046781CF801107740D3
:1032F00086781CF802207140C67883F00103724082
:1033000006790374734046794774774086798174EF
:103310007140C679C2747240067A03757340467A6A
:1033200047757740867A81757140C67AC27572405A
:10333000067B03767340467B4776037787EA06036E
:10334000877B4377C37B81767940817782EA03016B
:10335000C276C1774EE000BF02277E400F7C4C7CD6
:103360007E400F7D81F8206077404E7D8D7C84EA21
:10337000090481F8214066408C7DCA7C85EA0805F5
:1033800081F822506540CC7D82EA0E0281F823202C
:1033900062400C7E81F8247067404C7E81F8256085
:1033A00074400E7F8B7E81F8287091F81BE0774087
:1033B00081F826506B40CD7F81F82C704F7F8E7F37
:1033C00081F8272082EA0E020BF1100B81F82A30D7
:1033D00081F82B20674073406A40BBF1900F0AF1DF
:1033E000010A81F8294081F82D7081F82E3081F88A
:1033F0002F2035D000EB0B010F7F4E7F8D7FCC7FD0
:103400001CF806601CF805901CF804801CF807E006
:10341000BAF1030FA0D3BBF1100F01D104279CE731
:10342000BAF1050F04D3BBF1300F03D1102794E795
:10343000082792E7BAF1070F04D3BBF1500F03D16D
:1034400040278AE7202788E7BAF1090F06D33627F5
:10345000BBF1700F08BF1B277FE700BF80277CE709
:10346000BDE8F04F704700002DE9F04FCDB0924617
:10347000024600284FF0000018BF002B02D14DB0CB
:10348000BDE8F08F11B9BAF1000FF8D121ACCDE948
:103490000B31CDE91700CDE91500CDE91300CDE9D9
:1034A0001100CDE90F00CDE90D0020461146FFF7D0
:1034B000E5FE1DA92046002205F0A4FE19A920461C
:1034C000012205F09FFEBAF1000F0AF10F004FF044
:1034D000FF31CDF820A018BF01EB101ABAF1000F90
:1034E00000F098800C980DF18409A0F110060DF100
:1034F000440815ACD34600BF56F8100F9DF857701E
:103500007168B368F268CDE912139DF854101190F8
:10351000149248409DF855208DF844009DF84500D0
:103520009DF856309DF846109DF8475050408DF854
:10353000450081EA03009DF858109DF848208DF859
:10354000460085EA07008DF8470082EA01009DF8F1
:1035500059109DF849208DF8480082EA01009DF835
:103560005A109DF84A208DF8490082EA01009DF822
:103570005B109DF84B208DF84A0082EA01009DF80F
:103580005C109DF84C208DF84B0082EA01009DF8FC
:103590005D109DF84D208DF84C0082EA01009DF8E9
:1035A0005E109DF84E208DF84D0082EA01009DF8D6
:1035B0005F109DF84F208DF84E0082EA01009DF8C3
:1035C00060109DF850208DF84F0082EA01009DF8B0
:1035D00061109DF851208DF8500082EA01009DF89D
:1035E00062109DF852208DF8510082EA01009DF88A
:1035F00063109DF853208DF8520082EA01008DF887
:103600005300484641462246FFF7C0FBBBF1010B81
:103610007FF472AF089F4FEA0A10A7EB0A14B7EBCA
:103620000A1F38BF0024102C4CD11DA901F10F0234
:103630000C9B0A9201F10E0209921A581844436831
:103640008768C0680D9210909DF87400CDE90E3720
:1036500050409DF875700C909DF835009DF876608F
:103660009DF836207840089082EA06009DF8775051
:103670009DF8374007909DF8780084EA050258408D
:10368000069205909DF879009DF839209DF83A3012
:103690009DF83B609DF87A7082EA00099DF87B00F6
:1036A00001F10D0C01F10C0E83EA070B01F10B0582
:1036B00086EA000A01F10A0001F1090301F1080894
:1036C0006DE000BF19A901F10F030A9301F10E0388
:1036D000099301F10D03049301F10C03039301F12C
:1036E0000B03029301F10A03019301F10903B842AC
:1036F00001F10808009305D20C99224601440DA857
:10370000FCF732FD0DA8802101559DF864009DF85D
:1037100034709DF865109DF835509DF866209DF831
:10372000364078400C908DF8340085EA01009DF811
:1037300067309DF8376008908DF8350084EA020004
:1037400007908DF836009DF868009DF8381086EADD
:10375000030206928DF8372081EA00029DF8690085
:103760009DF83910DDF810C081EA00099DF86A0063
:103770009DF83A10DDE9025E81EA000B9DF86B00CE
:103780009DF83B10059281EA000ADDE900308DF8D2
:1037900038208DF839908DF83AB08DF83BA098F824
:1037A00000109DF83C209DF83D604A401978037850
:1037B0009DF83E4086EA010884EA03012B789EF8D2
:1037C00000609DF83F409DF8405009985C4085EAB4
:1037D00006039CF8006005789DF841709DF8420052
:1037E00087EA060E80EA05060A989DF8437000787D
:1037F0009DF8545087EA000C0C9868409DF855508D
:103800008DF83400089868409DF856508DF83500C2
:10381000079868409DF857508DF836000698684024
:103820009DF858508DF83700059868409DF859501C
:103830008DF8380089EA05009DF85A508DF8390056
:103840008BEA05009DF85B508DF83A008AEA050086
:103850009DF85C508DF83B0082EA05009DF85D20E4
:103860008DF83C0088EA02009DF85E208DF83D004E
:1038700081EA02009DF85F108DF83E0084EA0100A5
:103880009DF860108DF83F0083EA01009DF86110FB
:103890008DF840008EEA01009DF862108DF841001D
:1038A00086EA01009DF863108DF842008CEA010061
:1038B00021AC0B9A8DF843000DA92046FFF766FA5C
:1038C0006FF02B00002100BF22182C30842882F8D2
:1038D0002C1082F82D1082F82E1082F82F1082F80A
:1038E000301082F8311082F8321082F8331082F8EA
:1038F000341082F8351082F8361082F8371082F8CA
:10390000381082F8391082F83A1082F83B1082F8A9
:103910003C1082F83D1082F83E1082F83F1082F889
:10392000401082F8411082F8421082F8431082F869
:10393000441082F8451082F8461082F8471082F849
:10394000481082F8491082F84A1082F84B1082F829
:103950004C1082F84D1082F84E1082F84F1082F809
:10396000501082F8511082F8521082F8531082F8E9
:10397000541082F8551082F8561082F85710A3D1CF
:1039800000208DF874008DF875008DF876008DF8A4
:1039900077008DF878008DF879008DF87A008DF831
:1039A0007B008DF87C008DF87D008DF87E008DF811
:1039B0007F008DF880008DF881008DF882008DF8F1
:1039C00083008DF864008DF865008DF866008DF831
:1039D00067008DF868008DF869008DF86A008DF831
:1039E0006B008DF86C008DF86D008DF86E008DF811
:1039F0006F008DF870008DF871008DF872008DF8F1
:103A000073008DF854008DF855008DF856008DF830
:103A100057008DF858008DF859008DF85A008DF830
:103A20005B008DF85C008DF85D008DF85E008DF810
:103A30005F008DF860008DF861008DF862008DF8F0
:103A400063008DF844008DF845008DF846008DF830
:103A500047008DF848008DF849008DF84A008DF830
:103A60004B008DF84C008DF84D008DF84E008DF810
:103A70004F008DF850008DF851008DF852008DF8F0
:103A800053008DF834008DF835008DF836008DF830
:103A900037008DF838008DF839008DF83A008DF830
:103AA0003B008DF83C008DF83D008DF83E008DF810
:103AB0003F008DF840008DF841008DF842008DF8F0
:103AC000430001204DB0BDE8F08F000000284FF00A
:103AD000000218BF002901D11046704710B590F8B8
:103AE00001E04B7890F800C00C7883EA0E0390F860
:103AF00002E08A7884EA0C04234390F803C082EA47
:103B00000E02CC781A4390F804E00B7984EA0C0496
:103B1000224390F805C083EA0E034C791A4390F8CB
:103B200006E08B7984EA0C04224390F807C083EA0C
:103B30000E03CC791A4390F808E00B7A84EA0C045F
:103B4000224390F809C083EA0E034C7A1A4390F896
:103B50000AE08B7A84EA0C04224390F80BC083EAD3
:103B60000E03CC7A1A4390F80CE00B7B84EA0C0429
:103B7000224390F80DC083EA0E034C7B42EA030E09
:103B8000837B8A7B84EA0C04C07BC97B44EA0E04F5
:103B90005A40224348401043B0FA80F04209BDE841
:103BA000104010467047000000284FF0000218BF78
:103BB000002901D11046704770B548F2203E012916
:103BC000CEF6B85E06D14FF0FF320023C90766D1AA
:103BD0008FE000BF21F00102C2F1000C4FF0FF3274
:103BE0006FF00103C418A578E4786A408EEA5205A4
:103BF000D60708BF55088EEA5502EE0708BF6A08C7
:103C00008EEA5205D60708BF55088EEA5502EE0720
:103C100008BF6A088EEA5205D60708BF55088EEA23
:103C20005502EE0708BF6A088EEA5205D60708BF9C
:103C300055088EEA5502EE0708BF6A0862408EEA10
:103C40005204D50708BF54088EEA5402E50708BF9E
:103C500062088EEA5204D50708BF54088EEA54025F
:103C6000E50708BF62088EEA5204D50708BF54086A
:103C70008EEA5402E50708BF62088EEA5204D507AF
:103C800008BF54088EEA54020233E50708BF6208F1
:103C90000CEB03040234A5D10233C90729D0C05C60
:103CA00050408EEA5001C20708BF41088EEA510019
:103CB000CA0708BF48088EEA5001C20708BF41087A
:103CC0008EEA5100CA0708BF48088EEA5001C207B1
:103CD00008BF41088EEA5100CA0708BF48088EEAAB
:103CE0005001C20708BF41088EEA5102C80708BF49
:103CF0004A08D243BDE870401046704710B5002016
:103D0000012101F061FF50210446FCF746FA4FF013
:103D10000210C4E90A004BF6E560CDF6AD60A06480
:103D200002F00EFF01F024FF02A0BDE8104006F0F3
:103D30001BBF00BF5B434841524F4E5D204454437C
:103D400020686561646572206973206E6F772073E7
:103D500065742E0D000000002DE9F04F87B0427809
:103D6000032A6DD0022A45D0012A40F07F8007291E
:103D700072D9B0F80280044698FA98F948460D4680
:103D800004F088FE002800F0898105F57F7189081C
:103D9000B0F808B0CDB246F6074A002DC2F2000ACC
:103DA00000F00A81271D0024388800BA000C04F0B6
:103DB00071FE002800F07281FE78002E00F06E8106
:103DC000A1B20BEB01023244142A00F26781BA78E7
:103DD000002A00F06381C068514410440138324623
:103DE00002F046FA3444013D07F10407DCD1A6B2E3
:103DF000E3E000BF057900220629069205922BD93F
:103E0000B0F802B082469BFA9BF42046884604F044
:103E100041FE002800F042812E0905F00F07711EB7
:103E20007A1E1143042980F0398107EB1519A8F196
:103E3000050100898945049040F2D680002513E1F0
:103E4000042900F08780022906D146F207440025A4
:103E5000C2F2000400261FE013202C21132404F0DA
:103E600057FE204607B0BDE8F08F00BF12202C217E
:103E7000122404F04DFE204607B0BDE8F08F00BFCD
:103E80000022C16807460846214602F0FFF9BD60DE
:103E90000136B0B2FF2853D046F4724000BA000C8D
:103EA00004F0F8FD20B3417F11B3017F01BB8168AD
:103EB000B1B10021655482684B1C934211D2631842
:103EC0005D7082688F1C97420BD29D708268CF1CF8
:103ED000974206D2DD70826804319142EAD300E055
:103EE0000022C16807460846214602F0CFF9BD60AE
:103EF00046F4734000BA000C04F0CCFD0028C7D093
:103F0000417F0029C4D0017F0029C1D181680029E7
:103F1000B6D00021655482684B1C9342B1D263181D
:103F20005D7082688F1C9742ABD29D708268CF1CF7
:103F30009742A6D2DD70826804319142EAD3A0E7AD
:103F400046F60700C2F200004FF45B7101800221C7
:103F5000C5E000BF0446408804F09CFD002800F046
:103F6000B280417F002900F0AE80017F002940F03F
:103F7000AA8081680025002900F09A8046F2074156
:103F8000C2F200010023CD5482685F1C974280F08A
:103F90009080CF187D7082689E1C964280F0898048
:103FA000BD708268DE1C964280F08380FD7082685E
:103FB00004339342E7D37CE00026484604F06AFDD0
:103FC00006EB0B01C26881600121417702EB0B0017
:103FD0005146324602F05AF94FF4B670AAF8000082
:103FE000AAF80280504679E0B1FBF9F0CDE9004B28
:103FF00002902020A0EBC701A0EBC6080AF105053E
:104000004FF0000A4FF0000B039100BF06A82946AD
:104010003A46FCF7A9F8E91905A83246FCF7A4F8D6
:104020000698039900BAC8400599049A09BA21FA7A
:1040300008F41FFA8BF10A442244152A06900594CD
:104040002CD247F20702C2F200021144224602F0CB
:104050000FF902980AF1010AA34482454D44D5D3D1
:104060001FFA8BF5DDE9004B204604F013FD049B9D
:10407000C268E91847F2070481600121C2F2000416
:104080004177D01821462A4602F000F94FF41B7000
:104090002080A4F802B0204620E000BF31202C216F
:1040A000312404F035FD204607B0BDE8F08F00BF95
:1040B0000022C36846F20741C2F2000106461846D4
:1040C00002F0E4F8B56046F607006288C2F200002C
:1040D0004FF45B71018011BA090C4180042104F096
:1040E00013FF0024204607B0BDE8F08F2DE9F0470C
:1040F00003AF82B08246481EC0F34F06072000EB94
:10410000860020F00700ADEB0009CD46C81E082848
:104110001AD8002E00F08C80BAF8010000BA000C0A
:1041200004F0B8FCA0B14468054604F09FFD24FAF1
:1041300000F0C0071ABFC9F800504FF001084FF057
:104140000008012E08D159E013202221132472E027
:104150004FF00008012E51D0BAF8030000BA000C4D
:1041600004F098FC58B14468054604F07FFD24FA39
:1041700000F0C0071CBF49F8285008F10108022EC2
:104180003CD0BAF8050000BA000C04F083FC58B12A
:104190004468054604F06AFD24FA00F0C0071CBF1D
:1041A00049F8285008F10108032E27D0BAF8070073
:1041B00000BA000C04F06EFC58B14468054604F0E7
:1041C00055FD24FA00F0C0071CBF49F8285008F13B
:1041D0000108042E12D0BAF8090000BA000C04F04D
:1041E00059FC58B14568044604F040FD25FA00F03A
:1041F000C0071CBF49F8284008F10108B8F1000FBA
:1042000016D0D9F8005044F60404A8686FF4806111
:10421000A0F58060C2F2000488424FF06200207076
:1042200012D214242046A7F10C04A546BDE8F0875D
:1042300031202221312404F06BFC2046A7F10C042C
:10424000A546BDE8F08700BF288800BA010CD5E973
:104250000220A4F80110E11C02F00AF8AB68B8F1E2
:10426000010F03F103010DD144F60400C2F2000076
:1042700004F04AFE00242046A7F10C04A546BDE840
:10428000F08700BFD9F80450A8680844B0F5806FE3
:10429000C7D828885E1D00BA000C6052D5E90220FC
:1042A000A11901F0E5FFA868B8F1020F06EB0001C3
:1042B000DAD0D9F80850A8680844B0F5806FB0D8B3
:1042C00028888E1C00BA000C6052D5E90220A11982
:1042D00001F0CEFFA868B8F1030F06EB0001C3D0D0
:1042E000D9F80C50A8680844B0F5806F99D8288890
:1042F0008E1C00BA000C6052D5E90220A11901F011
:10430000B7FFA868B8F1040F06EB0001ACD0D9F8EC
:104310001050A8680844B0F5806F3FF682AF288837
:104320008E1C00BA000C6052D5E90220A11901F0E0
:104330009FFFA868311897E72DE9F04F85B08D1ED3
:10434000052D80F0258147787A1ED6B2032E00F223
:10435000298140F2CC3BC2F2000BDBF83030052B58
:1043600080F02081042F40F02181002D00F0848115
:104370009BF80070A1F1030E00F1020CBEF1030FD7
:1043800005F0030880F09A8100261A46B8F1000F64
:1043900036D01CF806108F420CD1002701218BF873
:1043A0000070002A8BF806100FBF0022531ECBF8B6
:1043B00030301A46B8F1010F22D00CEB06014E78CE
:1043C000B7420CD1002701268BF80070002A8BF829
:1043D00006600FBF0022531ECBF830301A46B8F1EA
:1043E000020F0DD089788F420AD100218BF800107E
:1043F0000121002A8BF806101CBF531ECBF8303069
:104400009BF80870BEF1030F80F0AC8100261A46BD
:10441000B8F1000F36D01CF806108F420CD10027DF
:1044200001218BF80870002A8BF80E100FBF0022B4
:10443000531ECBF830301A46B8F1010F22D00CEBE6
:1044400006014C78A7420CD1002701248BF8087094
:10445000002A8BF80E400FBF0022531ECBF83030DD
:104460001A46B8F1020F0DD089788F420AD1002187
:104470008BF808100121002A8BF80E101CBF531E68
:10448000CBF830309BF81070BEF1030F80F0BE8186
:1044900000261A46B8F1000F36D01CF806108F42DD
:1044A0000CD1002701218BF81070002A8BF8161010
:1044B0000FBF0022531ECBF830301A46B8F1010F5F
:1044C00022D00CEB06014C78A7420CD10027012426
:1044D0008BF81070002A8BF816400FBF0022531E75
:1044E000CBF830301A46B8F1020F0DD089788F42E0
:1044F0000AD100218BF810100121002A8BF8161028
:104500001CBF531ECBF830309BF81820BEF1030FB0
:1045100080F0D0810027B8F1000F00F0C1801CF8B6
:10452000070082420BD1002201208BF81820002BBB
:104530008BF81E001ABF013BCBF830300023B8F1D6
:10454000010F00F0AD800CEB070041788A420BD1DF
:10455000002201218BF81820002B8BF81E101ABFA7
:10456000013BCBF830300023B8F1020F00F0988007
:104570008078824240F0948000208BF8180001205F
:10458000002B8BF81E0000F08B80581E86E000BFC9
:1045900013202A21132404F0BBFA204605B0BDE8FD
:1045A000F08F00BF31202A215EE000BF002D59D0DE
:1045B000CDE9016700F1020800260DF1100A00277D
:1045C00003921BE007EB0A0010F8010C9BF80010A7
:1045D0009BF808209BF810309BF81840814208BFD8
:1045E0000136824208BF0136834208BF0136844249
:1045F00008BF0136013D08F1010815D098F8000008
:1046000000F5724004F046FA0028F3D0D0F8049088
:1046100004F02CFB29FA00F0C007D3D098F8000072
:104620000AF807000137CDE7DBF83000B91B084472
:10463000042817D801AE70CEA7B19BF800209DF8D2
:1046400010108A4240F08481032C8BF8045080F0D3
:104650008A814AF68C32F1B2C0F6000252F821107B
:1046600082E100BF31202221312404F051FA20469A
:1046700005B0BDE8F08F00BF002001218BF80000DD
:104680008BF806108BF808008BF80E108BF81000D2
:104690008BF816108BF818008BF81E10CBF8300032
:1046A00044F60440C2F200006A210170012104F0C6
:1046B0002BFC0024204605B0BDE8F08F05F004096E
:1046C00000264FF0010A1A4604E000BF0436B14547
:1046D0003FF45CAE81198C78A74221D100278BF87A
:1046E0000070002A8BF806A00FBF0022531ECBF8E3
:1046F00030301A46CC78A74215D00C79A74221D188
:1047000000278BF80070002A8BF806A00FBF00224C
:10471000531ECBF830301A4649798F42D6D114E077
:10472000CC78A742E9D100278BF80070002A8BF8DB
:1047300006A00FBF0022531ECBF830301A460C796A
:10474000A742DDD049798F42C0D100278BF8007095
:10475000002A8BF806A00FBF0022531ECBF8303082
:104760001A46B3E705F0040900264FF0010A1A467D
:1047700004E000BF0436B1453FF44AAE81198C789D
:10478000A74221D100278BF80870002A8BF80EA0D1
:104790000FBF0022531ECBF830301A46CC78A74208
:1047A00015D00C79A74221D100278BF80870002A78
:1047B0008BF80EA00FBF0022531ECBF830301A46E4
:1047C00049798F42D6D114E0CC78A742E9D10027AD
:1047D0008BF80870002A8BF80EA00FBF0022531E22
:1047E000CBF830301A460C79A742DDD049798F4298
:1047F000C0D100278BF80870002A8BF80EA00FBFDD
:104800000022531ECBF830301A46B3E705F00409F6
:1048100000264FF0010A1A4604E000BF0436B145F5
:104820003FF438AE81198C78A74221D100278BF84C
:104830001070002A8BF816A00FBF0022531ECBF871
:1048400030301A46CC78A74215D00C79A74221D136
:1048500000278BF81070002A8BF816A00FBF0022DB
:10486000531ECBF830301A4649798F42D6D114E026
:10487000CC78A742E9D100278BF81070002A8BF87A
:1048800016A00FBF0022531ECBF830301A460C7909
:10489000A742DDD049798F42C0D100278BF8107034
:1048A000002A8BF816A00FBF0022531ECBF8303021
:1048B0001A46B3E705F004010027012604E000BF13
:1048C0000437B9423FF427AEC519AC78A2421FD1D4
:1048D00000228BF81820002B8BF81E601ABF013BBA
:1048E000CBF830300023EC78A24214D02C79A242CD
:1048F0001FD100228BF81820002B8BF81E601ABFE6
:10490000013BCBF8303000236D79AA42D8D113E0B7
:10491000EC78A242EAD100228BF81820002B8BF809
:104920001E601ABF013BCBF8303000232C79A24225
:10493000DFD06D79AA42C3D100228BF81820002B5A
:104940008BF81E601ABF013BCBF830300023B7E76D
:104950009BF80620012A0FD1022C8BF800108BF84F
:1049600004507FF676AE0021CBF8201000218BF8A2
:104970000610012101E000BF0021B942BFF48EAE54
:104980009BF808301AF8012093420BD1022C8BF8C7
:104990000C5011D84AF68C33F2B2C0F6000353F82B
:1049A00022200AE09BF80E30012B0CD1032C8BF84F
:1049B00008208BF80C50EDD30022CBF824200022E5
:1049C00001318BF80E20B942BFF468AE9BF810306D
:1049D0001AF8012093420BD1022C8BF8145011D8F5
:1049E0004AF68C33F2B2C0F6000353F822200AE0F4
:1049F0009BF81630012B0CD1032C8BF810208BF870
:104A00001450EDD30022CBF82820002201318BF87E
:104A10001620B942BFF442AE9BF818201AF80110D4
:104A20008A420BD1022C8BF81C5012D84AF68C32D9
:104A3000F1B2C0F6000252F821100BE09BF81E20E4
:104A4000012A7FF42BAE032C8BF818108BF81C5026
:104A5000ECD30021CBF82C1000211DE6F0B583B07B
:104A600042780A39002311F1060F019308D8132068
:104A70002321132404F04CF8204603B0F0BD00BFFE
:104A8000140902F00F05611E6A1E1143042939D270
:104A9000861C02A831462A46FBF766FB711901A85D
:104AA0002246FBF761FB0298202600BAA6EBC5015F
:104AB00020FA01F5019F284603F0C8FF10B339BA68
:104AC000A6EBC402836821FA02F49C42CFD8466860
:104AD00004F0CCF826FA00F0C0071BD045F204061B
:104AE000C2F200066320314601F8010B2846224637
:104AF00001F0BEFB611C304604F006FA002420469B
:104B000003B0F0BD31202321312404F001F8204608
:104B100003B0F0BD33202321332403F0F9FF2046F6
:104B200003B0F0BD70B5022924D9B0F8016070BAA5
:104B300003F0B0FF30B30446007C18B3656804F09E
:104B400095F825FA00F0C00724D045F20445C2F2DA
:104B5000000564202870D4E90520E91CA5F801604F
:104B600001F086FB6069C11C284604F0CDF90020E5
:104B700070BD00BF13202421132403F0C9FF204679
:104B800070BD00BF31202421312403F0C1FF204635
:104B900070BD00BF33202421332403F0B9FF204629
:104BA00070BD000070B540F2CC35C2F20005286B34
:104BB000002800F0EC80A87918B9286A50B30138B1
:104BC000286200240020A97B00295CD1696A0A467A
:104BD000002918BF0122024304D000291CBF01395B
:104BE000696250E0297B45F60406287A4FF6F27296
:104BF0000139C2F20006C0F2FF02C9B230700229C8
:104C000062F31F201ED84AF68C32C0F6000252F81A
:104C1000211018E0297945F6040628784FF6F2723B
:104C20000139C2F20006C0F2FF02C9B23070022997
:104C300062F31F2016D84AF68C32C0F6000252F8F2
:104C4000211010E0002180B2696203F023FF0446C6
:104C5000D0E90220711C01F00BFBA068441C01206C
:104C600011E000BF002180B2296203F013FF044667
:104C7000D0E90220711C01F0FBFAA068441C01205D
:104C8000A97B0029A2D0A97D71B1A97F00296AD191
:104C9000E96A00290A4618BF0122104314D00029EE
:104CA0001CBF481EE8625EE0A96A0A46002918BFD8
:104CB0000122024320D000291CBF0139A962A97F2B
:104CC0000029E5D04FE000BF297F45F60406287E85
:104CD0004FF6F2720139C2F20006C0F2FF02C9B209
:104CE0003070022962F31F201ED84AF68C32C0F6BB
:104CF000000252F8211018E0297D45F60406287CB0
:104D00004FF6F2720139C2F20006C0F2FF02C9B2D8
:104D10003070022962F31F2014D84AF68C32C0F694
:104D2000000252F821100EE0002180B2E96203F087
:104D3000B1FE0446D0E90220711C01F099FAA06886
:104D4000441C10E0002180B2A96203F0A3FE0446D7
:104D5000D0E90220711C01F08BFAA068441C0120EC
:104D6000A97F002994D0002C08BF70BD686B03F0A8
:104D7000C9FE014606A005F061FC45F60400C2F23A
:104D80000000214604F0C0F803F0BAFE686370BD6D
:104D90005B434841524F4E5D2074696D6520257814
:104DA000000000002DE9F04FADF2044D0C46054621
:104DB00001A84FF48061FBF7F0F9032C0ED9B5F888
:104DC00001A09AFA9AF003F065FE28B381680331D6
:104DD0000ED0A1420CD213202E2101E013202A2153
:104DE000132403F095FE20460DF2044DBDE8F08F2C
:104DF0004668074603F03AFF26FA00F0C0070BD0DA
:104E0000387F98B122202E21222403F081FE2046F3
:104E10000DF2044DBDE8F08F31202E21312403F036
:104E200077FE20460DF2044DBDE8F08F4FF6FD7081
:104E300004443946F868EF1C1FFA84F90E463946D7
:104E40004A4601F023FAF0680DF1040B59464A4630
:104E500001F00EFAB9F1000F08D0B9F1040F04F017
:104E6000030C009704D20022002022E000203EE044
:104E7000A9EB0C0E00220020A9181BF80240CF78E5
:104E80000BEB02060B7991F805808979BC4208BFCB
:104E900001307478B778F6789C4208BF01304745F6
:104EA00008BF01308E4202F1040208BF013096456E
:104EB000E2D1009FBCF1000F19D01BF80230BE5C9C
:104EC000B34208BF0130BCF1010F10D0531C1BF8D6
:104ED0000360FB5C9E4208BF0130BCF1020F06D0AC
:104EE000911C1BF80120795C8A4208BF013080B216
:104EF000484511D145F60440C2F200006E21017010
:104F00000321A0F801A003F0FFFF002420460DF2CA
:104F1000044DBDE8F08F00BF72202E21722403F0F3
:104F2000F7FD20460DF2044DBDE8F08F2DE9F04F5E
:104F300085B0477800220429039209D813203D2127
:104F4000132403F0E5FD204605B0BDE8F08F00BF57
:104F50003C0907F00F05621E6B1E1A43042A3BD260
:104F600004AA0291811C064610462A4605F1020A4F
:104F7000FBF7FAF806EB0A0103A822460196FBF7B5
:104F8000F3F804982021039A00BAA1EBC50B20FA8C
:104F90000BF610BAA1EBC40120FA01F83046CDF8A7
:104FA0000C8003F053FDB8B181688845C6D8D0F8AD
:104FB0000490804603F05AFE29FA00F0C00715D08D
:104FC00098F81C00E0B122203D21222403F0A0FD2E
:104FD000204605B0BDE8F08F31203D21312403F09B
:104FE00097FD204605B0BDE8F08F00BF33203D217E
:104FF000332403F08DFD204605B0BDE8F08F00BFDF
:1050000001980AEB171900EB09010298A0EB0902BD
:10501000304601F03BF946F20408C2F200087D2058
:1050200088F8000030BA20FA0BF0049008F1020072
:1050300004A92A4688F80170FBF796F808EB0A00E5
:1050400003A92246FBF790F84046494603F05CFF6F
:105050000024204605B0BDE8F08F000080B502A016
:1050600005F0ECFA112080BD5B434841524F4E5D84
:10507000204163636573732054696D696E672050C6
:105080006172616D657465722053657276696365DE
:10509000205349443A307838332054726967676541
:1050A0007265640080B502A005F0C8FA112080BDC9
:1050B0005B434841524F4E5D20436F6D20436F6EFE
:1050C00074726F6C2053657276696365205349442E
:1050D0003A307832382054726967676572656400C7
:1050E0002DE9F043A9B080462DA00D4605F0A6FAA3
:1050F00003F0BCFD042801D002280BD17F208521BC
:105100007F2403F005FD34A005F098FA204629B06D
:10511000BDE8F0834FF6FE702C184BF2841098F81F
:105120000160C0F6000005F089FAA5B20DB313A81E
:10513000002700F1100440F2480900BF08EB070007
:105140008178B0F803008DF84D100337ADF84E00AC
:105150006846494622468DF8A16052F8043B04395E
:1051600040F8043BF9D113AB0FCB01F061FEAF4225
:10517000E4D346F20440C2F20000C52198F80120B1
:1051800001700221427003F0BFFE4BF25C1000245C
:10519000C0F6000005F052FA204629B0BDE8F083C1
:1051A0005B434841524F4E5D20436F6E74726F6C8B
:1051B000204454432053657474696E6720536572AC
:1051C00076696365205349443A3078383520547203
:1051D00069676765726564005B434841524F4E5D85
:1051E000205365727669636520696E2063757272FB
:1051F000656E742073657373696F6E206E6F7420B3
:10520000616C6C6F7765642E0000000070B582B031
:1052100002290DD1407800F07F04611FC9B2FB293B
:1052200014D85AA0214605F009FA122407E000BF5D
:105230004BF2D410C0F6000005F000FA132420460B
:10524000102103F065FC204602B070BD45B203F0AA
:105250000DFDA0422CD144A0214605F0EFF94AF6FD
:10526000C450C0F6000000EBC401B5F1FF3F2DDDD6
:105270004D684CF6CD41CCF6CC4150F83460A5FBDE
:1052800001125021300A8DF802108DF80400D00868
:10529000D10A8DF806108DF807000DF102000621E5
:1052A0008DF803408DF8056003F02EFE11E000BF7D
:1052B0000138032822D8DFE800F00321252D00BFA4
:1052C000E01EC0B20228C6D328E000BF50F8346008
:1052D0004D68204631462A4603F0F0FD40F2044076
:1052E000C2F20000002404808460C0E90644C0E9E2
:1052F000084403F0D5FD204602B070BD012CAAD0B1
:105300000CE000BF042C09D80120A04010F0160FBB
:10531000A1D103E005F07D0001289CD003F0A6FC9C
:10532000014603A0224605F089F9222487E700BF41
:105330005B434841524F4E5D20496E76616C696413
:105340002073657373696F6E207472616E73697414
:10535000696F6E2066726F6D203078257820746FCB
:1053600020307825782100005B434841524F4E5D44
:10537000204368616E67696E672053657373696F58
:105380006E20746F20307825782E00005B434841F2
:10539000524F4E5D2053657373696F6E20307825D0
:1053A0007820756E6B6E6F776E206F7220696E76E7
:1053B000616C69642100000070B578B102290DD1DB
:1053C000417801F07F05A91F11F1060F14D81220B2
:1053D0001121122403F09CFB204670BD4BF2D41027
:1053E000C0F6000005F02AF913201121132403F060
:1053F0008FFB204670BD00BF40F20444C2F200049F
:105400002574064603F07CFB606196F901000028D4
:1054100007D4512004F8040F20460221657003F0E0
:1054200073FD02A005F00AF9112070BD5B434841ED
:10543000524F4E5D2045435520526573657420538D
:10544000657276696365205349443A30783131207A
:1054500054726967676572656400000080B502A0D8
:1054600005F0ECF8112080BD5B434841524F4E5D82
:10547000204C696E6B20436F6E74726F6C205365A5
:105480007276696365205349443A3078383720543E
:1054900072696767657265640000000080B502A0EC
:1054A00005F0CCF8112080BD5B434841524F4E5D62
:1054B00020526573706F6E7365204F6E2045766560
:1054C0006E742053657276696365205349443A309F
:1054D0007838362054726967676572656400000029
:1054E00080B502A005F0AAF8112080BD5B434841B9
:1054F000524F4E5D2053656375726564204461743C
:1055000061205472616E736D697373696F6E20539D
:10551000657276696365205349443A30783834209F
:10552000547269676765726564000000F0B585B004
:10553000002818BF01290DD84BF2AB10C0F60000AF
:1055400005F07CF813242046272103F0E1FA2046D9
:1055500005B0F0BD40F20445C2F20005EA78467895
:10556000012A0CD10746E8680C4603F0CBFA42F258
:105570001071884222D3002068803846214606F008
:105580007F02531E032B00F2AD80DFE803F0036FB0
:105590001D3700BF0629D5D140F26710ADF80200D3
:1055A00003F05EFB0446800700F1BE8005F10800B1
:1055B000042103F079FDA868B7E000BF7BA005F0E7
:1055C0003DF83724BFE700BF1229BBD140F2673056
:1055D000ADF8020003F044FB0446400700F18C8064
:1055E00005F11800102103F05FFD05F118036A6A48
:1055F0000BCB04920393029182E000BF1229A1D148
:105600006978002900F08E80044640F2E00005F140
:105610001801C2F200000DF102031022FDF724FF71
:1056200000210028697000F09B80A01C0DF1020190
:10563000FEF74CFA002800F0938075A004F0FEFFFE
:105640000020A87003F00CFB40F0040003F030FCD5
:10565000300607D440F26740ADF8000068460221EA
:1056600003F052FC0024204605B0F0BD06297FF46B
:1056700069AF297800296BD02F7A84786B7AAA7A5F
:10568000E97A67400024A52F2C7040F07F80C7780E
:105690007B405A2B7AD103795A40C32A76D140797C
:1056A00048403C2872D14BF23810C0F6000004F09C
:1056B000C5FF0024AC7003F0D3FA40F0020003F001
:1056C000F7FB30063FF543AF40F26720ADF802002C
:1056D0000DF10200022103F017FC0024204605B062
:1056E000F0BD00BF4BF28C20C0F60000114604F064
:1056F000A5FF122427E700BF00200490039002902A
:10570000019004F00400012181EA900031066870E4
:1057100004D40DF10200122103F0F6FB0024204610
:1057200005B0F0BD2FA017E00020019004F00200AA
:10573000012181EA50003106287004D40DF10200E5
:10574000062103F0E1FB0024204605B0F0BD00BFB8
:105750004BF2F810C0F6000004F070FF2424F2E6CB
:10576000A87803220130A870C1B24BF25720C0F6CE
:10577000000004F063FFA878032815D30120E87027
:1057800003F0BEF93624E860DDE600BFA878032206
:105790000130A870C1B24BF22220C0F6000004F024
:1057A0004DFFA8780328E9D23524CCE65B43484175
:1057B000524F4E5D20536563757269747920416361
:1057C00063657373206C6F636B6564206F75742CF5
:1057D0002064656C6179206E6F74206578706972E1
:1057E00065642E005B434841524F4E5D2053656314
:1057F0007572697479204C6576656C20322073650A
:105800007175656E6365206572726F722E0000009F
:105810005B434841524F4E5D205365637572697416
:1058200079204C6576656C203220556E6C6F636B09
:1058300065642E0010B582B0022905D14178490671
:1058400014D0122412A004E04BF2D4101324C0F69A
:10585000000004F0F3FE20463E2103F059F917A0A2
:1058600004F0ECFE204602B010BD00BF044603F079
:1058700041FB94F90100002807D47E20ADF8060012
:105880000DF10600022103F03FFB0024E7E700BF13
:105890005B434841524F4E5D2053756266756E639F
:1058A00074696F6E206973206E6F742030783030A9
:1058B000206F7220307838302E0000005B43484162
:1058C000524F4E5D2054657374657220507265733B
:1058D000656E742053657276696365205349443A56
:1058E00030783345205472696767657265640000DB
:1058F00040F20440C2F2000000210160C0E906113C
:10590000C0E90811C0E90211704700002DE9F04F0D
:1059100003AF81B0032907D876A004F08FFE1320CF
:105920002F21132428E000BF47F67812C2F20002AC
:1059300090F801E0136890F8029049EA0E22A3B1B2
:105940001E88964220D05B697BB11E8896421BD090
:105950005B6953B11E88964216D05B692BB11E88D5
:10596000964211D05B69002BEAD157A0114604F092
:1059700065FE31202F21312403F0CAF82046A7F11B
:105980000C04A546BDE8F08F0A46C178042905D36A
:105990004BF2C320C0F60000E9E700BF03290DD198
:1059A000DE6800F104080436B4B294420BD34FF021
:1059B000010C07F80DCCA7F10D060CE04FF0000824
:1059C00004249442F3D2121B01321FFA82FCBCF170
:1059D000000F1AD006190122002516F9014BB4F167
:1059E000FF3F42DDE4B23F2C32D81F2C32D80F2CBF
:1059F00032D8072C32D8032C32D8012C32D89CBB99
:105A00000135654502F10802E7D3D968E8460B3154
:105A100021F00701ADEB0106B5466F213170C0786A
:105A2000D3E90351F070301D2A4686F801E086F86C
:105A30000290FAF799FB291D304603F065FA00241D
:105A4000C5462046A7F10C04A546BDE8F08F00BF6F
:105A500001320AE0023208E0033206E0043204E0D8
:105A6000053202E0063200E007325C6834B3208879
:105A700092B2904220D1032916D8DD68DFE801F008
:105A800002060A0E6068C8B18047D8B1A068A8B104
:105A90008047B8B1E06888B1804798B122696AB19F
:105AA00040462946904768B131242046A7F10C04AE
:105AB000A546BDE8F08F00BFFEE700BF31242046B9
:105AC0002F2159E72224FAE75B434841524F4E5DAC
:105AD00020436F756C64206E6F742066696E64205D
