:020000040800F2
:1000000040AB0020450100086D2800088D2600083F
:10001000B1270008D90200086D2A0008000000007E
:100020000000000000000000000000000929000896
:100030005D0E00080000000005290008592A00088C
:100040005F0100085F0100085F0100085F01000810
:100050005F0100085F0100085F0100085F01000800
:100060005F0100085F0100085F0100085F010008F0
:100070005F0100085F0100085F0100085F010008E0
:100080005F0100085F0100085F0100085F010008D0
:10009000612A00085F0100085F0100085F01000895
:1000A0005F0100085F0100085F0100085F010008B0
:1000B0005F0100085F0100085F0100085F010008A0
:1000C0005F0100085F0100085F0100085F01000890
:1000D0005F0100085F0100085F0100085F01000880
:1000E0005F0100085F0100085F0100085F01000870
:1000F0005F0100085F0100085F0100085F01000860
:100100005F0100085F0100085F0100085F0100084F
:100110005F0100085F0100085F0100085F0100083F
:100120005F0100085F0100085F0100085F0100082F
:10013000DFF80CD000F06EF800480047AD7F0008F3
:1001400040AB00200648804706480047FEE7FEE730
:10015000FEE7FEE7FEE7FEE7FEE7FEE7FEE7FEE777
:100160005D2A00083101000840EA01039B0703D023
:1001700009E008C9121F08C0042AFAD203E011F8E6
:10018000013B00F8013B521EF9D27047D2B201E0A8
:1001900000F8012B491EFBD270470022F6E710B58C
:1001A00013460A4604461946FFF7F0FF204610BDE5
:1001B0002DE9F05F0546002092469B46884606469C
:1001C000814640241BE0284641464746224600F02F
:1001D00048F853465A46C01A914110D31146184662
:1001E000224600F02FF82D1A67EB01084F462246F1
:1001F0000120002100F026F817EB00094E41201ED7
:10020000A4F10104DFDC484631462A464346BDE8F6
:10021000F09F00001CB50948009009480190054670
:10022000009C06E0E06840F0010394E8070098476E
:100230001034AC42F6D3FFF77FFF000058A300084C
:1002400078A30008202A04DB203A00FA02F10020FB
:1002500070479140C2F1200320FA03F31943904004
:100260007047202A04DB203A21FA02F0002170476F
:1002700021FA02F3D040C2F120029140084319460E
:10028000704770B58C1810F8015B15F0070301D1A9
:1002900010F8013B2A1106D110F8012B03E010F8E9
:1002A000016B01F8016B5B1EF9D12B0705D400230C
:1002B000521E0DD401F8013BFAE710F8013BCB1AAE
:1002C000921C03E013F8015B01F8015B521EF9D5A3
:1002D000A142D8D3002070BDFEE7000010B58AB05F
:1002E00000200690CDE90400CDE90200CDE9000030
:1002F000012047F24424CDE907000E20C2F2000499
:1003000009906946204600F0DBFE204601F00EFA17
:100310002046022100F06AFE0AB010BD10B588B078
:100320000C460021CDE9020147F24420C2F2000050
:10033000CDE90411CDE906218DF8031000F0D0FFBE
:100340008DF803009DF8030060B147F24420C2F22B
:10035000000002A901AB224600F060FE002818BF91
:1003600000F07EFD08B010BD2DE9F04F81B08B4646
:1003700006460020012104F035FA40F2DC29078806
:10038000B0F80880C2F2000940F65900A9F8000050
:1003900006F0CEFF89F8020087B3002503245FFA38
:1003A00086FA5FFA8BF64FF0000B03E0013F0BF18A
:1003B000010B24D01FFA8BF25046314606F042FF63
:1003C0000028F3D0A4F2FA316FF48062914221D375
:1003D000C17B09EB040209F80410017C013551705E
:1003E000B0F8011045455180C17804F1060411713F
:1003F00090F854005071D9D101E000BF032440F2BD
:10040000DC20C2F20000214607F08EF9002001B086
:10041000BDE8F08F1420192106F0EEFF4AF27A00B1
:10042000C0F600004FF4806108F01EFA142001B0FD
:10043000BDE8F08F2DE9F04F81B05FFA80FA5046A9
:10044000002200230C4606F0E3FA40F2DC6B804603
:10045000C2F2000B59208BF800003CB10F208BF842
:1004600001000020002104F0A9F906E002208BF829
:1004700001000020002104F0B5F9814606F058FF84
:100480001FFA88F7002F4FF003018BF8020018BF06
:10049000B9F1000F0AD140F2DC60C2F2000007F0AF
:1004A00043F9002001B0BDE8F08F00BF4FF6FE38E1
:1004B00001260625CFF6FF78A5F5806040451BD9BB
:1004C000B1B25046224606F06BFD98B1C1780BEBF5
:1004D000050202F8011CB0F80110BE4222F8031C0C
:1004E00001780BF8051005F1040503D2002806F188
:1004F0000106E1D1E91ECEE71420192106F07CFFA8
:100500004AF27A00C0F600004FF4806108F0ACF9BE
:10051000142001B0BDE8F08F2DE9F04383B005460B
:10052000044615F8020F002AEE780B4614BFA47992
:100530000024697895F802C0F7B2FF2F05D08F2FFD
:100540002CD8103EF6B2042E28D940F6DC29C2F28F
:100550000009592689F800600626002B18BF1026CE
:10056000002A18BF192689F8016016466246CDE9AF
:10057000006406F067FC08B3064636F8422FFF2FEA
:10058000A6F141085CD0A6F138031AB3856C0DB30F
:100590001978B9421ED1002136E000BF112019217F
:1005A000112406F029FF4AF23C00C0F6000008F0D2
:1005B0005BF9204603B0BDE8F08300BFA8780621B0
:1005C00089F804002888A9F80200002089F80500AD
:1005D000B0E000BF064636F8442F3AB1C56C2DB1E5
:1005E000C17AB94202D101210EE000BF064636F8B9
:1005F000462F002A4AD0056D002D47D0017BB94215
:100600004FF0020140F0898040F2F937BA4271D8C8
:1006100098F8027090F8540089F80470B8F80070E7
:1006200089F80500A9F80270585C691C89F8060071
:1006300009F10700FFF798FD3088C11D7AE000BF7F
:1006400032B3816C21B340F2F9339A4252D898F810
:100650000230877A89F80430B8F800300131A9F8FF
:10066000023090F85430044689F8053009F1070348
:10067000184689F80670FFF777FDB4F84210204657
:1006800007310122B0F844303BB929E0022144E0AF
:1006900000220221B0F8443013B3C76C07B34D1DDC
:1006A000EA18B2F5806F25D8B8F8002009EB0503E9
:1006B00029F8012098F8022049448A7090F85420C3
:1006C0000446CA70C27A0A71C16CB0F84420013184
:1006D0001846FFF749FDB4F844102046294401228A
:1006E000B0F84630C3B1076DB7B14D1DEA18B2F589
:1006F000806F2BD914201921142406F07DFE4AF2B4
:100700007A00C0F600004FF4806108F0ADF8204692
:1007100003B0BDE8F08300BF62B9B8F8002009EB70
:10072000010329F8012098F8022004319A7090F80A
:100730005400D87040F6DC20C2F2000006F0F4FF4E
:100740000024204603B0BDE8F08300BFB8F80020C5
:1007500009EB050329F8012098F8022049448A7022
:1007600090F854200446CA70027B0A71016DB0F8FB
:10077000462001311846FFF7F7FCB4F84600291867
:10078000D8E700002DE9F04F81B05FFA80FA002130
:10079000BAF1EF0F009161D8A0F11001C9B205299B
:1007A0005CD340F6DC62C2F2000241F25961907003
:1007B0005046118006F0F0F900285FD0054600266B
:1007C0004FF0030BE94621E0B0F8011040F6DC637E
:1007D000C2F2000323F80B10C17803EB0B029170F7
:1007E00090F8541000EB8400D170806C434437F8CB
:1007F0001420411C1846FFF7B7FC37F8140008EB2B
:10080000000B013D280606F1010639D0B1B2504671
:100810004A4606F063F90028F3D090F8401000290A
:10082000EFD0009C00F1420737F814100BF10408D8
:100830004144B1F5806FC7D914201921142406F062
:10084000DBFD4AF27A00C0F600004FF4806108F048
:100850000BF8204601B0BDE8F08F00BF3120192110
:10086000312406F0C9FD4AF23C00C0F6000007F052
:10087000FBFF204601B0BDE8F08F00BF4FF0030B37
:1008800040F6DC60C2F20000594606F04DFF00243D
:10089000204601B0BDE8F08F2DE9F04F85B0002073
:1008A000012103F09FFFB0F800A0B0F80A8041F2E8
:1008B000DC2BC2F2000B40F25930BAF1000F4FF0BE
:1008C0000204ABF8000000F09B804FF00009002507
:1008D0000027CDE9018A10E0ACF10100049AC0B212
:1008E0001044451C0C46A8B2804500F089800137B1
:1008F00009F10109D14500F08380B8B206F0E0FCAF
:100900000028F5D090F818C004EB8C01B1F5806F89
:1009100000F28280BCF1000FE5D0BCF1040F00F1C1
:100920000102049504D200231CF003063ED1D3E754
:100930000CF0FC0E65420BEB040800236FF008017D
:10094000039700BF178808EB830628F82370977871
:1009500008EB010BB770C71897F804A004338BF8A5
:100960000CA09478103DB47114889E45B4807C79B5
:1009700001F110018BF810409478B472148834811E
:10098000BC79F4729478B4731488B481FC798BF8D0
:100990001840D7D16942DDE9018A41F2DC2B039F7F
:1009A0000C46C2F2000B1CF0030695D01188051D01
:1009B0002BF8041091780BEB04008170E95C012E98
:1009C000C17004F104013FF487AFB2F800E02B449A
:1009D0002BF801E0957859448D705978022EC17139
:1009E00004F108013FF478AF16882BF80160927883
:1009F00059448A709978C17204F10C016CE700BF08
:100A000041F2DC20C2F20000214606F08DFE0020FB
:100A100005B0BDE8F08F00BF1420192106F0ECFCF2
:100A20004AF27A00C0F600004FF4806107F01CFF24
:100A3000142005B0BDE8F08F2DE9F04383B00546E2
:100A4000044615F8020F0B466978AA780F0247EAA8
:100A50000047002B14BFA679002640F20654174425
:100A6000C0F20404A7420FD131201921312406F02D
:100A7000C3FC4AF20D00C0F6000007F0F5FE204668
:100A800003B0BDE8F08300BFEF78FFB2102F01D0B4
:100A9000202F0BD131201921312406F0ADFC87A085
:100AA00007F0E2FE204603B0BDE8F08341F2DC69C6
:100AB000C2F20009592489F800400424002B18BF11
:100AC0001824CDE90036002389F80140002606F0FD
:100AD000B9F988B1064636F81A2FFF2FA6F1190882
:100AE0004ED0A6F116058AB1036A7BB12978B942C6
:100AF0000CD1002124E000BFA878062189F8040069
:100B0000288889F80560A9F80200AFE0064636F8A3
:100B10001C2F3AB1436A2BB14179B94202D101216C
:100B20000EE000BF064636F81E2F002A4CD0836A1E
:100B3000002B49D08179B9424FF0020140F0898001
:100B4000B2F57E7F73D898F8027090F8540089F857
:100B50000470B8F8007089F80500A9F80270685CA4
:100B600089F8060013F8010B89F8070009F108005D
:100B70001946FFF7F9FA308800F1080176E000BF66
:100B800022B3016A11B3B2F57E7F50D898F80230D3
:100B9000054689F8043090F85430B8F8007089F8A8
:100BA00005300379A9F8027089F8063011F8013B85
:100BB00089F8073009F108031846FFF7D5FA698B61
:100BC00028460831012203E0022142E000220221EE
:100BD000838B1BB3476A0FB38D1DEA18B2F5806F84
:100BE00025D8B8F8002009EB050329F8012098F86A
:100BF000022049448A7090F854200646CA7042790F
:100C00000A71426A12784A71416A828B0131184630
:100C1000FFF7AAFAB18B304629440122C38BBBB13E
:100C2000876AAFB18D1DEA18B2F5806F2AD91420FA
:100C30001921142406F0E0FB4AF27A00C0F6000005
:100C40004FF4806107F010FE204603B0BDE8F0834A
:100C500062B9B8F8002009EB010329F8012098F8DF
:100C6000022004319A7090F85400D87041F2DC6090
:100C7000C2F2000006F058FD0024204603B0BDE893
:100C8000F08300BFB8F8002009EB050329F8012024
:100C900098F8022049448A7090F854200446CA709B
:100CA00082790A71826A12784A71816AC28B013133
:100CB0001846FFF759FAE08B2918D7E75B434841FC
:100CC000524F4E5D2052657175657374206E6F745E
:100CD0002076616C69642C20536E617053686F7468
:100CE000206E6F7420737570706F727465642E005F
:100CF0002DE9F0410C4606460020002103F072FD6C
:100D0000B578A5F1FA0005280AD21120192111247D
:100D100006F072FB43A007F0A7FD2046BDE8F08176
:100D2000002DF2D0FF2D0BD13046214606F090F970
:100D30000446002818BF14242046BDE8F08100BFF7
:100D4000284606F0E7F8044641F6DC27C2F2000721
:100D500040F259503880FCB194F82C0000B3E0798F
:100D600004F1010885421DD1BD70B8F80000616B27
:100D7000A7F8030098F80200E28D787194F8540007
:100D8000B87111F8010BF87107F10800FFF7ECF9E1
:100D9000E08D00F1080106E0B0780321B87038E07A
:100DA000022136E00221207A854217D17D54B8F81D
:100DB00000007A18A2F8010098F802008E1DD07089
:100DC00094F854001071A06B00785071A16B228EC2
:100DD000B8190131FFF7C8F9208E3118607A8542C1
:100DE00017D17D54B8F800007A18A2F8010098F8DD
:100DF00002008D1DD07094F854001071E06B0078E3
:100E00005071E16B628E78190131FFF7ADF9608E98
:100E1000291841F6DC20C2F2000006F085FC002013
:100E2000BDE8F0815B434841524F4E5D20526571F1
:100E300075657374206E6F742076616C69642C2004
:100E4000446174615265636F7264206E6F742073C5
:100E50007570706F727465642E000000704700003A
:100E6000EFF3108072B600BFFEE7000070B542F2EB
:100E70000C060446C4F2020600F0B4FE3168C9074D
:100E80001CD13068800644BF202030603068C00626
:100E900007D43069C00704D1306840075CBF002028
:100EA00070BD3068C00647F21830C2F2000021D48D
:100EB00000213268520725D42AE000BFC4B105469C
:100EC000601C10D13068C007DBD03068C0071CBF81
:100ED00030685FEAC070D4D03068C007F2D1D0E784
:100EE0003068C007CDD000F07DFE401BA042F7D98E
:100EF000032070BDC16941F00201C1611021326857
:100F0000520705D5C26941F0040142F00102C261F5
:100F10003269D20702D10120316070BDC26942F04E
:100F20000402C261306920F00100306101203160AB
:100F300070BD0000B0B50020012103F053FC41F664
:100F4000DC650446C2F2000540F65940288006F0F0
:100F5000EFF9E169A870022908D2032141F6DC60AB
:100F6000C2F20000BDE8B04006F0DEBBC878687190
:100F7000B1F8010091F85410A5F80300A9710721F8
:100F800041F6DC60C2F20000BDE8B04006F0CCBB28
:100F9000B0B50020012103F025FC42F2DC25044617
:100FA000C2F2000540F65930288006F0C1F9A16967
:100FB000A870022908D2032142F2DC20C2F200000C
:100FC000BDE8B04006F0B0BBC8786871B1F8010068
:100FD00091F85410A5F80300A971072142F2DC2012
:100FE000C2F20000BDE8B04006F09EBB90F82020A1
:100FF000013A012A08D8006800F1140200201368A1
:1010000019431160704700BF00F1240201204FF422
:1010100080211368194311607047000010B590F8E3
:1010200020E0D0F800C0AEF1010EBEF1010FDCF8F7
:1010300008E011D81EF0E05F18D0CEF30164012063
:10104000A04018608B68DBB1D1F804E0C86840EAC2
:10105000CE0040EA030E17E000F1240301204FF414
:1010600080211A681143196010BD00BF00F12403EC
:1010700001204FF400111A681143196010BD00BF20
:101080000868CB6843EA405E0CF5C07000EB0413BF
:10109000240140F804E00C69184640F8044F097D2B
:1010A000012903D1016841F4807101605068012178
:1010B000D8601068986000201A681143196010BD4C
:1010C000026890F82030013B012B29D8B0B5D2F846
:1010D0000002012340F00100C2F80002D1F814E040
:1010E000CC690EF01F0003FA00F0D2F81C326FEA50
:1010F000000C8343012CC2F81C3217D06CBBD2F811
:101100000C3203EA0C03C2F80C32CB688C8844EA38
:10111000034302EBCE04C4F840320B4615E000BF97
:10112000416A41F48021416201207047D2F80C32BB
:101130000343C2F80C320B688C8844EA034302EB89
:10114000CE04C4F8403201F10C038D681B8802EB19
:10115000CE0443EA0543C4F84432D2F804328C6921
:1011600043EA0005D1F810E0096A002C08BF03EA41
:101170000C05C2F80452D2F81432BEF1000F43EA53
:10118000000408BF03EA0C040129C2F8144204D188
:10119000D2F81C120843C2F81C02D2F8000220F058
:1011A0000100C2F800020020B0BD0000704700003E
:1011B000B0B590F82040013C012C7DD8D0F800C09B
:1011C00000290CBFDCF80C40DCF81040A4077DD0EF
:1011D0000CF5D8754FEA011C55F80C4014F00404C6
:1011E000946055F80CE005EB011C19BF4FEADE05D1
:1011F00055604FEA5E551560DCF80050E64605F094
:101200000205D5605EF8044F24075ABFDEF800409F
:1012100004F00F0408241461DEF800400029C4F330
:1012200007249461DEF800504FEA15455561DCF85B
:1012300008201A70026802EB0112D2F8B8214FEAB6
:1012400012225A70026802EB0112D2F8B8214FEA5A
:1012500012429A70026802EB0112D2F8B8214FEAEA
:101260001262DA70026802EB0112D2F8BC211A7124
:10127000026802EB0112D2F8BC214FEA12225A7125
:10128000026802EB0112D2F8BC214FEA12429A71B5
:10129000026802EB0112D2F8BC214FEA1262DA7145
:1012A00000680CBF00F10C0100F1100100202022A9
:1012B0000B681A430A60B0BD00F1240101204FF40D
:1012C00080220B681A430A60B0BD00BF00F1240100
:1012D00001204FF400120B681A430A60B0BD0000F1
:1012E00090F820100139012984BF00207047006860
:1012F000816882688068C1F38061C2F3C062114472
:10130000C0F30070084470472DE9F04F81B00446E7
:1013100000684669D0F804908768D0F80CB0D0F81F
:1013200010A0D0F81880F10704D1002530071DD493
:1013300024E000BFF90710D00121BA07816009D469
:10134000780700F1AF80380700F1B680204600F042
:101350001BFA02E0204600F019FA0025F80500F11A
:101360008780F80300F1B180300707D51BF010002B
:1013700004D0206845F400751021C160700708D5BD
:101380001BF0080005D020680821C160204600F04D
:10139000ADF9B00706D52068C068800702D02046A6
:1013A00000F0A6F9700607D51AF0100004D02068E6
:1013B00045F4806510210161B00608D51AF00800D7
:1013C00005D0206808210161204600F0A9F9F00647
:1013D00006D520680069800702D0204600F0A2F9F7
:1013E000B00308D519F0100005D020681021416025
:1013F000204600F099F9F00308D519F0080005D04F
:10140000206808214160204600F0CAF9300440F10C
:101410009B805FEA497040F1948006F4807008EA8E
:10142000102028435FEA8871014648BF41F002015D
:10143000B20558BF01465FEA48700D4648BF45F007
:101440000405700558BF0D46300540F17A8018F04C
:10145000700000F076801038000905286CD8DFE8AD
:1014600000F003655D61596945F0080564E000BF5F
:1014700020684FF48071BA0581600BD4780515D4CB
:1014800038051DD4204600F083F9F8037FF56CAFD2
:101490001BE000BF204600F07DF9F8037FF564AF44
:1014A00013E000BF4FF4006558E700BF05F5005595
:1014B000F8037FF559AF08E04FF480554EE700BFC1
:1014C00005F58045F8037FF54FAF20684FF4803174
:1014D000BA0381600AD4780310D4380314D42046A8
:1014E00000F05AF930073FF541AF47E7204600F0DA
:1014F00055F930073FF53AAF40E700BF05F5004525
:1015000030073FF533AF39E705F5803530073FF554
:101510002DAF33E745F080050EE000BF45F0200514
:101520000AE000BF45F0400506E000BF45F01005A9
:1015300002E000BF45F480752068816921F07001E8
:10154000816120680421416055B1606A40EA05016B
:101550002046616201B0BDE8F04FFFF727BE00BF33
:1015600001B0BDE8F08F0000002804BF01207047E3
:10157000B0B5044690F8200010B9204600F06EF88F
:101580002068016841F00101016000F02BFB054675
:1015900020684168C90705D100F024FB401B0B28D7
:1015A000F6D310E0016821F00201016000F01AFB9F
:1015B000054600BF2068416889070DD500F012FB81
:1015C000401B0B28F6D3606A052140F400306062AE
:1015D000012084F82010B0BD217E0268012922F08C
:1015E000800208BF80320260617E0268012922F019
:1015F000400208BF40320260A17E0268012922F049
:10160000200208BF20320260E17E0268012922F038
:10161000100218BF10320260217F0268012922F0F7
:10162000080208BF08320260617F0268012922F0C7
:10163000040208BF04320260D4E901C2D4E90335D0
:1016400061691A432A431143ACF101021143C1619C
:1016500000200121606284F82010B0BDB0B586B0D2
:1016600040F60004C4F201040068A4F524420021FD
:1016700090420591CDE90311029101D006B0B0BDB1
:1016800041F21800C4F20200426802AD42F000725A
:101690004260426802F000720192019A026842F0D0
:1016A00004020260006800F00400019001984FF409
:1016B0000060CDE9020104912046294600F098F926
:1016C0004FF48050029002200390032005902046A2
:1016D000294600F08DF914200021002200F002FBC1
:1016E000142000F0EDFA06B0B0BD00007047000015
:1016F00080B58AB003AA01AB0021FFF759FD60B99C
:101700000398B0F5FC6F08D19DF81C2047F2B82073
:10171000C2F2000001A906F0D1F80AB080BD0000B5
:10172000704700007047000070470000B0B50446E5
:1017300090F8200001281DD1022084F820002068A4
:10174000016821F00101016000F04CFA054600BF7C
:1017500020684068C00713D000F044FA401B0B28F3
:10176000F6D3606A40F400306062052084F82000FF
:101770000120B0BD606A40F4002060620120B0BD6D
:1017800000206062B0BD000070470000704700009C
:10179000704700007047000070470000704700006D
:1017A000704700002DE9F04381B047F21835C2F2CE
:1017B00000052A7E012A03D1022001B0BDE8F08392
:1017C00004460120266828764CF250308846FFF700
:1017D0004DFB022E1CD100284ED1002042F21004F5
:1017E000E861C4F20204206840F004002060206830
:1017F00040F0400020604CF25030FFF737FB21688A
:1018000021F0040121600021297601B0BDE8F083B8
:1018100090BB4FF0FF30C8F80000D4E90270414699
:1018200007EBC020874227D242F21006C4F202061C
:101830004FF00009C5F81C90306840F0020030609D
:101840007760306840F0400030604CF25030FFF775
:101850000DFB316821F00201316098B9D4E9020131
:1018600007F5006700EBC1208742E3D30020002189
:10187000297601B0BDE8F08301200021297601B06E
:10188000BDE8F083C8F800700021297601B0BDE8FA
:10189000F083000042F21001C4F20201086840F037
:1018A000800200200A6070472DE9F04381B047F2C2
:1018B0001837C2F2000716463A7E012A04D10220E8
:1018C00001B0BDE8F08300BF0546012038764CF238
:1018D00050300C469846FFF7C9FA28B100213976F6
:1018E00001B0BDE8F08300BF42F210090020C4F24D
:1018F0000209F861D9F8000040F00100C9F80000C1
:101900004CF250302680FFF7B1FAD9F800100028C9
:1019100021F00101C9F8001018BF0046DED1012DE9
:10192000DCD00020F861D9F80000310C40F0010053
:10193000C9F800004CF250306180FFF797FAD9F8EF
:101940000010002821F00101C9F80010C6D1E81EDE
:1019500010F1030F4FF00000C0D8F861D9F8000073
:1019600040F00100C9F800004CF25030A4F80480A7
:10197000FFF77CFAD9F80010002821F00101C9F81E
:101980000010ABD10020F861D9F800004FEA1841EF
:1019900040F00100C9F800004CF25030E180FFF740
:1019A00065FAD9F80010002821F00101C9F80010EB
:1019B00018BF00460021397601B0BDE8F083000071
:1019C00042F20400C4F20200C16809065CBF0020B4
:1019D000704740F22311C4F26751016048F6AB1121
:1019E000CCF6EF510160C068C0B2C009704700007A
:1019F0002DE9F04F82B00E68002E00F0E980A0F1D2
:101A0000804241F6004540F20043A2F58432C4F220
:101A100001050624C4F201034FEAB227A84208BF19
:101A200005244FF0000E4FF001080F254FF0000A7B
:101A30004FF0000B052F38BF4FEAB224009408E0A6
:101A40000E680AF1010A36FA0AF20EF1040E00F0ED
:101A5000BF8008FA0AFC16EA0C09F1D04E684FF66E
:101A6000FF72C1F21002964212DC122E56D8DFE845
:101A700006F0350B4D495555555555555555555548
:101A800055555545510000BFD1F80CB046E000BF98
:101A90004FF6FF72C1F2210296420FDC0022C1F222
:101AA000110296421AD00022C1F21202964215D0BB
:101AB0000022C1F22102964210D02FE00022C1F292
:101AC000220296420AD00022C1F23102964205D08B
:101AD0000022C1F23202964220D100BF8A684AB188
:101AE000012A14BFC0F814C0C0F810C04FF0080B92
:101AF00014E000BF4FF0040B10E000BFCA6802F111
:101B0000040B0BE04FF0000B08E000BFCA6802F1C5
:101B1000080B03E0CA6802F10C0B00BF02467446D2
:101B2000B9F5807F24BF0432203C166805FA04F71B
:101B300026EA07070BFA04F637431760CA79D2067C
:101B40007FF57EAF41F21807C4F202073A684FF6FC
:101B5000084542F001023A603A68CFF6FF7502F09C
:101B600001020192019A2AF003021A440F245759E4
:101B70000EF00C06B440A743009C04FA06F6374367
:101B800057514E6840F20C44F2029A6854BF22EA60
:101B9000090242EA0902C4F201049A602268B7020B
:101BA00054BF22EA090242EA090222605A68B703D6
:101BB00054BF22EA090242EA09025A600F251A6854
:101BC000F70354BF22EA090242EA09021A6037E722
:101BD00002B0BDE8F08F0000002A08BF09040161CF
:101BE0007047000049F63830C2F2000000687047C4
:101BF00040F2080049F63831C2F20000C2F200019A
:101C000000780A68104408607047000080B542F20E
:101C10000000C4F20200016841F0100101600320DD
:101C200000F08CF80F2000F005F800F027F80020F5
:101C300080BD000070B540F20806C2F2000640F216
:101C40001C013278C2F200014FF47A730968B3FBC9
:101C5000F2F20446B1FBF2F1084600F085FB0F2CCE
:101C60004FF0010508D838B94FF0FF302146002267
:101C7000002500F037F87460284670BD82B041F24C
:101C80001800C4F202000168022241F00101016063
:101C9000016801F0010101910199416841F0805111
:101CA0004160406800F08050009000980420C4F229
:101CB0000100016862F31A61016002B07047000020
:101CC000002848BF704700F01F01012202FA01F10D
:101CD0001C2202EAD0004EF20012CEF20002815025
:101CE0007047000010B54EF60C5CCEF2000CDCF82C
:101CF0000030C3F3022E8EF00704042C28BF042406
:101D0000BEF103034FF0FF3E0EFA04F438BF002388
:101D1000A14399400EFA03F39A43114300F00F02D6
:101D200000F160430901043A03F56443624400286A
:101D300048BF02F10C03197010BD00004EF60C51A3
:101D4000CEF200010A684FF6FF031A4060F30A2240
:101D500042F0806040F0FD7008607047002804BFCA
:101D6000012070472DE9F04381B042F20008C4F22F
:101D700002080446D8F800000D4600F0070088422B
:101D80000CD2D8F8000020F007002843C8F8000063
:101D9000D8F8000000F00700A8426CD1206841F29A
:101DA00004098107C4F2020917D5410705D5D9F8FE
:101DB000001041F4E061C9F80010010705D5D9F819
:101DC000001041F46051C9F80010D9F80010A26861
:101DD00021F0F0011143C9F80010C00742D1D8F832
:101DE000000000F00700A8420CD9D8F8000020F04D
:101DF00007002843C8F80000D8F8000000F00700EA
:101E0000A84238D12068410707D5D9F80010E26808
:101E100021F4E0611143C9F80010000708D5D9F892
:101E20000000216920F4605040EAC100C9F80000B8
:101E3000D9F8002002F00C00082841F20020C0F27E
:101E40007A004DD148F6DE73C2F38341C0F6000339
:101E5000595CD20338D440F60010C0F23D0048432C
:101E60003EE000BF606859F8041C022808D0012831
:101E700026D1890306D4012001B0BDE8F08300BF5C
:101E80008901F8D5D9F8001021F003010843C9F8F9
:101E90000000FFF7A7FE064641F28837D9F8000098
:101EA000616800F00C00B0EB810F98D0FFF79AFE4C
:101EB000801BB842F2D9032001B0BDE8F08300BF17
:101EC0008907D8D5DEE700BFD9F8002048F6DC53F3
:101ED000C2F34042C0F600039A5C4843B0FBF2F004
:101EE000D9F8001048F6C452C1F30311C0F600023D
:101EF000515C40F21C0220FA01F140F20C00C2F2E7
:101F000000000068C2F200021160FFF793FE00209B
:101F100001B0BDE8F083000040F21C0041F2040172
:101F2000C2F20000C4F202010068096848F6D45207
:101F3000C1F30221C0F60002515CC84070470000A6
:101F400040F21C0041F20401C2F20000C4F202019E
:101F50000068096848F6D452C1F3C221C0F60002F5
:101F6000515CC84070470000002804BF0120704742
:101F70002DE9F04182B00446007841F20006C00726
:101F8000C4F202060CD0706800F00C00042840F087
:101F900081803068800303D56068002800F04681A6
:101FA000207880071BD5706810F00C0F09D070687E
:101FB00000F00C00082840F087807068C00300F132
:101FC00083803068800703D52069012840F02E8186
:101FD0003068616920F0F80040EAC1003060207884
:101FE000000713D4207840072CD4E569002D00F0B9
:101FF0001881706800F00C00082840F0A780012DBF
:1020000040F00481012002B0BDE8F081A069002801
:1020100000F084800020C4F242200121C0F8801426
:10202000FFF7E0FD054600BF706A800700F1B2804F
:10203000FFF7D8FD401B0228F6D9032002B0BDE807
:10204000F08100BFF0695FEAC00808D4F06940F091
:102050008050F061F06900F080500090009847F2E5
:102060000007C4F200073868C00549D4386840F456
:1020700080703860FFF7B6FD054600BF3868C005C0
:102080003ED4FFF7AFFD401B6428F7D9032002B010
:10209000BDE8F081706800F00C00082803D170687A
:1020A000C0033FF576AF61683068002900F00C810D
:1020B000B1F5A02F00F00081B1F5803F40F01A810A
:1020C00040F480301CE100BF2069002840F200008D
:1020D000C4F2422000F0888001210160FFF782FDF8
:1020E000054600BF306880073FF572AFFFF77AFD05
:1020F000401B0228F6D9032002B0BDE8F08100BFE2
:10210000E168306A002900F09D80052900F0928086
:10211000012940F0AF8040F00100B1E00020C4F29E
:1021200042200021C0F88014FFF75CFD054600BF87
:10213000706A80077FF556AFFFF754FD401B0228F9
:10214000F6D9032002B0BDE8F08100BF0027C4F239
:10215000422700203866FFF745FD022D05460DD1C8
:102160003068800140F1DE80FFF73CFD401B022813
:102170004FF00300F4D902B0BDE8F081306880016F
:102180004FD5FFF72FFD401B02284FF00300F5D974
:10219000F1E700BF40F21C00C2F20000006844F604
:1021A000D351C1F26201A0FB0101480A019000BFB6
:1021B00000BF0198411E002801913FF413AF00BFFA
:1021C0000198411E002801913FF40CAF00BF019817
:1021D000411E002801913FF405AF00BF0198411E48
:1021E00000280191E4D1FDE600210160FFF7FAFC2F
:1021F000054600BF306880077FF5F1AEFFF7F2FCBF
:10220000401B02284FF00300F4D9B4E77068216A3C
:1022100000F480328A4209D1616A00F47010884269
:1022200004D1002002B0BDE8F08100BF012002B05F
:10223000BDE8F08140F004003062306A40F00100F7
:102240001EE000BF20F001003062306A20F0040080
:102250003062FFF7C7FC054641F28837306A8007D5
:1022600020D5FFF7BFFC401BB8424FF00300F5D963
:1022700081E700BF20F001003062306A20F00400E6
:102280003062FFF7AFFC054641F28837306A8007BD
:1022900008D4FFF7A7FC401BB842F7D9032002B0CF
:1022A000BDE8F081B8F1000F3FF59FAEF06920F076
:1022B0008050F06199E600BF40F4802030603068C3
:1022C00040F480301CE000BF20F480303060306883
:1022D00020F480203060FFF785FC054630688003DD
:1022E0007FF55EAEFFF77EFC401B64284FF00300D5
:1022F000F4D940E720F480303060306820F480204A
:102300003060FFF76FFC0546306880033FF548AE4C
:10231000FFF768FC401B6428F6D9032002B0BDE833
:10232000F08100BF206AB0F5803F05D17168A268D6
:1023300021F40031114371607168626A21F47411F3
:1023400011430843706001203866FFF74BFC0446D8
:10235000306880013FF565AFFFF744FC001B0228A1
:102360004FF00300F4D906E7411E0020B0EB116FD7
:102370001CBF012070474EF21002CEF200025160E5
:102380004EF62351CEF20001F0230B70072190602E
:1023900011607047002804BF0120704710B5044643
:1023A00090F8410028B9002084F84000204600F051
:1023B00063F8242084F841002068D4E90212C3683D
:1023C00023F40053C360036923F440531A430261AA
:1023D000D4E904231143C268194341F20C639A43C0
:1023E0001143C1604169A26921F44071114343F670
:1023F0000002C4F201029042416103D0FFF78CFD5C
:1024000002E000BFFFF79CFDD4E9002319214843F7
:102410009900B0FBF1F048F21F5CC5F2EB1CA0FB89
:102420000C314FF69C734909C0F6FF7301FB0300A2
:10243000322303EB0010A0FB0C03F02000EA531042
:1024400000EB0110C3F34311084490601069202190
:1024500020F490401061506920F02A005061D0684B
:1024600040F40050D0600020606484F8411084F88B
:102470004210606310BD000070B586B040F60004E5
:10248000C4F20104006804F5405100268842059614
:10249000CDE90366029601D006B070BD41F2180086
:1024A000C4F20200016802AD41F48041016001689C
:1024B00001F4804101910199016841F0040101603A
:1024C0000068294600F00400019001984FF4007064
:1024D000029002200390032005902046FFF788FA1F
:1024E0004FF48060CDE90206204629460496FFF7A6
:1024F0007FFA06B070BD00002DE9F04381B00446BC
:1025000090F84100202809D100294FF0010018BFA0
:10251000002A07D101B0BDE8F08300BF022001B05E
:10252000BDE8F0830020606421201D460E4684F83B
:1025300041001746FFF756FBA784E784A168814650
:10254000B1F5805F02D1206900285DD037460020B8
:10255000E28C2168002A5DD06A1C24D0002D4AD06C
:10256000804600BF0868000608D4FFF73BFBA0EBDD
:102570000900A8427AD82168C868F3E717B117F8AC
:10258000010B04E038F8020B00276FF35F2048606E
:10259000E08C0138E084E08C0028E3D13AE000BF11
:1025A0000A68120609D40A68120606D40A681206D6
:1025B0005CBF0A685FEA0262F2D51FB117F8012B0F
:1025C00005E000BF30F8022B00276FF35F224A605E
:1025D000E28C013AE284E28C002AE4D11AE000BFE6
:1025E00030F8022B00276FF35F224A60E28C013A39
:1025F000E284E28C72B10A68120635D5002FEFD062
:1026000017F8012BF1E700BF00273046E28C216864
:10261000002AA1D1086840061ED42DB3681C14D12D
:10262000086840062AD40868400627D4086840068F
:1026300024D4086840064FF00000F1D50DE000BF3B
:102640002068C1680068400618D4FFF7CBFAA0EBF9
:102650000900A842F4D909E00020202184F84110A3
:1026600001B0BDE8F08300BFFFF7BCFA03202021D2
:1026700084F8411001B0BDE8F08300BF00202021A4
:1026800084F8411001B0BDE8F0830000FEE70000CF
:1026900010B547F2442046F20041C2F20000C4F2F5
:1026A0000001092200234FF0807480E80E0000F141
:1026B0000C014FF4802C4FF4801E81E80850846197
:1026C0008383FEF751FF002808BF10BDBDE810400E
:1026D000FEF7C6BB2DE9F04385B00020CDE903002D
:1026E000CDE9010041F21800C4F20200016840F691
:1026F000004941F0400101600168C4F2010901F0A4
:10270000400100910099016809F5406541F004011C
:1027100001600168012201F0040100910099016843
:102720004FF0200841F0080101600068202100F00E
:1027300008000090009828460127FFF74DFA484608
:1027400020210122FFF748FA01AE03242846314632
:10275000CDE9018703970494FFF74AF948463146CB
:10276000CDE90187CDE90374FFF742F905B0BDE873
:10277000F083000080B547F26C2043F60001C2F2FE
:102780000000C4F2010100234FF00C0C4FF4E132C1
:1027900080E80E00C0E90333C0E905C3C361FFF759
:1027A000F9FD002808BF80BDBDE88040FEF758BB9A
:1027B000FEE70000B0B50020012102F013F842F25C
:1027C000DC650446C2F2000540F65960288004F03A
:1027D000AFFD616AA87089B1C8786871B1F801006D
:1027E00091F85410A5F80300A971072142F2DC60AA
:1027F000C2F20000BDE8B04004F096BF032142F2EF
:10280000DC60C2F20000BDE8B04004F08DBF000003
:10281000B0B50020012101F0E5FF42F6DC250446B9
:10282000C2F2000540F65950288004F081FD216A6B
:10283000A87089B1C8786871B1F8010091F8541096
:10284000A5F80300A971072142F6DC20C2F20000BE
:10285000BDE8B04004F068BF032142F6DC20C2F2BC
:102860000000BDE8B04004F05FBF0000FEE70000DC
:10287000B0B5C0B2C9B204F095F842F6DC650446C2
:10288000C2F2000540F25970288004F051FDA87092
:102890000120E870200A2871284606216C71BDE8E5
:1028A000B04004F041BF000070B50346807843F2A9
:1028B000DC24C2F200044AB1DB78012204F0A8F85B
:1028C00005465920207017200CE000BF002200238D
:1028D0000E4604F09DF80546592020700120002E78
:1028E00018BF1120607004F023FDA0700120E0707B
:1028F000280A2071204606216571BDE8704004F069
:1029000013BF000070470000704700002DE9F0433E
:1029100083B00446002000214FF0000901F062FF5F
:1029200014F8025F43F640286678A778C2F20008E0
:1029300040F65910A8F8000004F0FAFC88F80200EC
:10294000284631463A460023CDF80090CDF8049051
:1029500004F078FA80B1B0F80F10A8F80310B0F8BE
:102960000110A8F80510C17890F8540088F80710F5
:1029700088F80800092106E0A078062188F80500FB
:102980002088A8F8030043F64020C2F2000003B0FC
:10299000BDE8F04304F0C8BE2DE9F0470020002157
:1029A00001F020FF80460020012101F01BFF43F6CB
:1029B000406905460488B0F808A0C2F2000940F654
:1029C0005920A9F8000004F0B3FCBAF5807F89F81B
:1029D00002000FD914201921142404F00DFD4AF22D
:1029E0007A00C0F600004FF4806105F03DFF2046FC
:1029F000BDE8F08734B305F13000621E08F15403DE
:102A000003210025002400BFC5F3C707C75D05F0FB
:102A10000706F740FF070CD033F8537C09EB01069B
:102A200029F8017013F8517C0431B7701F78013414
:102A3000F770544507D0AA4205F1010503F1580388
:102A4000E2D100E0032143F64060C2F2000004F04E
:102A50006BFE0020BDE8F087FFF7CAB870470000A2
:102A600047F24420C2F20000FEF74EBCFEE7000031
:102A70002DE9F04730B1877890F803A090F80490E2
:102A800005E000BF33274FF0FF0A4FF0FF0944F283
:102A90004028C2F2000844F25920A8F8000088F843
:102AA000027004F045FC88F803000020002101F0CA
:102AB00099FE04460020012101F094FE0288CAB369
:102AC000FBB2FF2B00F130003ED05434002704212C
:102AD00005E000BF0137BA4204F158042BD0C7F318
:102AE000C706865D07F00705EE40F607F2D014F83A
:102AF000446C9E42EED114F8546C1AEA060F1CBFC7
:102B000014F8455C19EA0506E4D08E1DB6F5806F11
:102B10004CD808F8015014F8445C41444D7034F826
:102B2000535C4D8014F8515C0D7125784D71314620
:102B3000D0E700BF042144F24020C2F2000004F0BC
:102B4000F3FD0020BDE8F08704F1540300270421C1
:102B500005E000BF0137BA4203F15803EBD0C7F3D9
:102B6000C706865D07F00705EE40F607F2D013F8BA
:102B7000546C1AEA060F1CBF13F8456C19EA0605D7
:102B8000E8D08C1DB4F5806F10D808F8016013F8F8
:102B9000446C41444E7033F8536C4E8013F8516CC2
:102BA0000E711E784E712146D4E700BF1420192102
:102BB00004F022FC1420BDE8F087000084B040F24D
:102BC0000005C2F2000514460E46074647A016212E
:102BD00001222B4606F0CAF83846294606F0BAF814
:102BE00048A0072101222B4606F0C0F830462946AE
:102BF00006F0B0F845A0072101222B4606F0B6F8F2
:102C000001A80A300A21012CADF80E1052DB4CF657
:102C1000CD4C49F69A1248F21F5E44F6D35841F261
:102C20005979CCF6CC4CC1F69912C5F2EB1EC1F223
:102C30006208CDF2B71942F2107500BFA4FB0C1365
:102C4000D90801EB8103A4EB430343F030030A2CC2
:102C500000F8013C36D3A1FB023707EB8703A1EB59
:102C6000430141F03001642C00F8021C2ED3A4FB78
:102C70000E135909A1FB023707EB8703A1EB4301B0
:102C800041F03001B4F57A7F00F8031C22D3A4FB95
:102C900008139909A1FB0237A4FB093607EB870348
:102CA000A1EB430141F0300100F8041DAC424FEAB2
:102CB0005634C3D240F20001C2F2000106F04AF8D5
:102CC00000F028F84FF0FF3106E000BF6FF001017F
:102CD00002E000BF6FF00201084440F20001C2F2BE
:102CE000000106F037F800F015F800BF2A2A2A2064
:102CF000617373657274696F6E206661696C656477
:102D00003A2000002C2066696C6520002C206C693C
:102D10006E652000FEE7000010B50020012101F0E3
:102D200061FD50210446FDF738FA0320C0F201008E
:102D30004FF00111C4E90A014BF6EF60CDF6AD602A
:102D4000A06402F081FB01F021FD02A0BDE810406B
:102D500006F020B85B434841524F4E5D2044544337
:102D600020686561646572206973206E6F772073D7
:102D700065742E0D000000002DE9F04F87B04278F9
:102D8000032A6DD0022A45D0012A40F07F8007290E
:102D900072D9B0F80280044698FA98F948460D4670
:102DA00004F0ECFA002800F0898105F57F718908AC
:102DB000B0F808B0CDB246F6432A002DC2F2000AA0
:102DC00000F00A81271D0024388800BA000C04F0A6
:102DD000D5FA002800F07281FE78002E00F06E8196
:102DE000A1B20BEB01023244142A00F26781BA78D7
:102DF000002A00F06381C068514410440138324613
:102E000001F048FF3444013D07F10407DCD1A6B2CC
:102E1000E3E000BF057900220629069205922BD92E
:102E2000B0F802B082469BFA9BF42046884604F034
:102E3000A5FA002800F042812E0905F00F07711E47
:102E40007A1E1143042980F0398107EB1519A8F186
:102E5000050100898945049040F2D680002513E1E0
:102E6000042900F08780022906D146F24324002578
:102E7000C2F2000400261FE013202C21132404F0CA
:102E8000BBFA204607B0BDE8F08F00BF12202C210E
:102E9000122404F0B1FA204607B0BDE8F08F00BF5D
:102EA0000022C16807460846214601F003FFBD60C5
:102EB0000136B0B2FF2853D046F4724000BA000C7D
:102EC00004F05CFA20B3417F11B3017F01BB81683C
:102ED000B1B10021655482684B1C934211D2631832
:102EE0005D7082688F1C97420BD29D708268CF1CE8
:102EF000974206D2DD70826804319142EAD300E045
:102F00000022C16807460846214601F0D3FEBD6095
:102F100046F4734000BA000C04F030FA0028C7D021
:102F2000417F0029C4D0017F0029C1D181680029D7
:102F3000B6D00021655482684B1C9342B1D263180D
:102F40005D7082688F1C9742ABD29D708268CF1CE7
:102F50009742A6D2DD70826804319142EAD3A0E79D
:102F600046F24360C2F200004FF45B71018002211F
:102F7000C5E000BF0446408804F000FA002800F0D5
:102F8000B280417F002900F0AE80017F002940F02F
:102F9000AA8081680025002900F09A8046F243212A
:102FA000C2F200010023CD5482685F1C974280F07A
:102FB0009080CF187D7082689E1C964280F0898038
:102FC000BD708268DE1C964280F08380FD7082684E
:102FD00004339342E7D37CE00026484604F0CEF960
:102FE00006EB0B01C26881600121417702EB0B0007
:102FF0005146324601F05EFE4FF4B670AAF800006A
:10300000AAF80280504679E0B1FBF9F0CDE9004B17
:1030100002902020A0EBC701A0EBC6080AF105052D
:103020004FF0000A4FF0000B039100BF06A829469D
:103030003A46FDF799F8E91905A83246FDF794F8E4
:103040000698039900BAC8400599049A09BA21FA6A
:1030500008F41FFA8BF10A442244152A06900594BD
:103060002CD246F64362C2F200021144224601F01D
:1030700011FE02980AF1010AA34482454D44D5D3BA
:103080001FFA8BF5DDE9004B204604F077F9049B2D
:10309000C268E91846F6436481600121C2F2000467
:1030A0004177D01821462A4601F004FE4FF41B70E8
:1030B0002080A4F802B0204620E000BF31202C215F
:1030C000312404F099F9204607B0BDE8F08F00BF25
:1030D0000022C36846F24321C2F2000106461846A8
:1030E00001F0E8FDB56046F243606288C2F200007C
:1030F0004FF45B71018011BA090C4180042104F086
:1031000013FB0024204607B0BDE8F08F2DE9F047FF
:1031100003AF82B08246481EC0F34F06072000EB83
:10312000860020F00700ADEB0009CD46C81E082838
:103130001AD8002E00F08C80BAF8010000BA000CFA
:1031400004F01CF9A0B14468054604F0EDF924FA36
:1031500000F0C0071ABFC9F800504FF001084FF047
:103160000008012E08D159E013202221132472E017
:103170004FF00008012E51D0BAF8030000BA000C3D
:1031800004F0FCF858B14468054604F0CDF924FA7F
:1031900000F0C0071CBF49F8285008F10108022EB2
:1031A0003CD0BAF8050000BA000C04F0E7F858B1BA
:1031B0004468054604F0B8F924FA00F0C0071CBFC3
:1031C00049F8285008F10108032E27D0BAF8070063
:1031D00000BA000C04F0D2F858B14468054604F077
:1031E000A3F924FA00F0C0071CBF49F8285008F1E1
:1031F0000108042E12D0BAF8090000BA000C04F03D
:10320000BDF858B14568044604F08EF925FA00F07F
:10321000C0071CBF49F8284008F10108B8F1000FA9
:1032200016D0D9F8005044F24064A8686FF4806169
:10323000A0F58060C2F2000488424FF06200207066
:1032400012D214242046A7F10C04A546BDE8F0874D
:1032500031202221312404F0CFF82046A7F10C04BC
:10326000A546BDE8F08700BF288800BA010CD5E963
:103270000220A4F80110E11C01F00CFDAB68B8F1CC
:10328000010F03F103010DD144F24060C2F20000CE
:1032900004F04AFA00242046A7F10C04A546BDE834
:1032A000F08700BFD9F80450A8680844B0F5806FD3
:1032B000C7D828885E1D00BA000C6052D5E90220EC
:1032C000A11901F0E7FCA868B8F1020F06EB0001B4
:1032D000DAD0D9F80850A8680844B0F5806FB0D8A3
:1032E00028888E1C00BA000C6052D5E90220A11972
:1032F00001F0D0FCA868B8F1030F06EB0001C3D0C1
:10330000D9F80C50A8680844B0F5806F99D828887F
:103310008E1C00BA000C6052D5E90220A11901F000
:10332000B9FCA868B8F1040F06EB0001ACD0D9F8DD
:103330001050A8680844B0F5806F3FF682AF288827
:103340008E1C00BA000C6052D5E90220A11901F0D0
:10335000A1FCA868311897E72DE9F04F85B08D1EC4
:10336000052D80F0258147787A1ED6B2032E00F213
:10337000298140F2602BC2F2000BDBF83030052BC4
:1033800080F02081042F40F02181002D00F0848105
:103390009BF80070A1F1030E00F1020CBEF1030FC7
:1033A00005F0030880F09A8100261A46B8F1000F54
:1033B00036D01CF806108F420CD1002701218BF863
:1033C0000070002A8BF806100FBF0022531ECBF8A6
:1033D00030301A46B8F1010F22D00CEB06014E78BE
:1033E000B7420CD1002701268BF80070002A8BF819
:1033F00006600FBF0022531ECBF830301A46B8F1DA
:10340000020F0DD089788F420AD100218BF800106D
:103410000121002A8BF806101CBF531ECBF8303058
:103420009BF80870BEF1030F80F0AC8100261A46AD
:10343000B8F1000F36D01CF806108F420CD10027CF
:1034400001218BF80870002A8BF80E100FBF0022A4
:10345000531ECBF830301A46B8F1010F22D00CEBD6
:1034600006014C78A7420CD1002701248BF8087084
:10347000002A8BF80E400FBF0022531ECBF83030CD
:103480001A46B8F1020F0DD089788F420AD1002177
:103490008BF808100121002A8BF80E101CBF531E58
:1034A000CBF830309BF81070BEF1030F80F0BE8176
:1034B00000261A46B8F1000F36D01CF806108F42CD
:1034C0000CD1002701218BF81070002A8BF8161000
:1034D0000FBF0022531ECBF830301A46B8F1010F4F
:1034E00022D00CEB06014C78A7420CD10027012416
:1034F0008BF81070002A8BF816400FBF0022531E65
:10350000CBF830301A46B8F1020F0DD089788F42CF
:103510000AD100218BF810100121002A8BF8161017
:103520001CBF531ECBF830309BF81820BEF1030FA0
:1035300080F0D0810027B8F1000F00F0C1801CF8A6
:10354000070082420BD1002201208BF81820002BAB
:103550008BF81E001ABF013BCBF830300023B8F1C6
:10356000010F00F0AD800CEB070041788A420BD1CF
:10357000002201218BF81820002B8BF81E101ABF97
:10358000013BCBF830300023B8F1020F00F09880F7
:103590008078824240F0948000208BF8180001204F
:1035A000002B8BF81E0000F08B80581E86E000BFB9
:1035B00013202A21132403F01FFF204605B0BDE885
:1035C000F08F00BF31202A215EE000BF002D59D0CE
:1035D000CDE9016700F1020800260DF1100A00276D
:1035E00003921BE007EB0A0010F8010C9BF8001097
:1035F0009BF808209BF810309BF81840814208BFC8
:103600000136824208BF0136834208BF0136844238
:1036100008BF0136013D08F1010815D098F80000F7
:1036200000F5724003F0AAFE0028F3D0D0F8049011
:1036300003F07AFF29FA00F0C007D3D098F8000011
:103640000AF807000137CDE7DBF83000B91B084462
:10365000042817D801AE70CEA7B19BF800209DF8C2
:1036600010108A4240F08481032C8BF8045080F0C3
:103670008A8148F6B852F1B2C0F6000252F8211021
:1036800082E100BF31202221312403F0B5FE204623
:1036900005B0BDE8F08F00BF002001218BF80000CD
:1036A0008BF806108BF808008BF80E108BF81000C2
:1036B0008BF816108BF818008BF81E10CBF8300022
:1036C00044F64020C2F200006A210170012104F09A
:1036D0002BF80024204605B0BDE8F08F05F0040962
:1036E00000264FF0010A1A4604E000BF0436B14537
:1036F0003FF45CAE81198C78A74221D100278BF86A
:103700000070002A8BF806A00FBF0022531ECBF8D2
:1037100030301A46CC78A74215D00C79A74221D177
:1037200000278BF80070002A8BF806A00FBF00223C
:10373000531ECBF830301A4649798F42D6D114E067
:10374000CC78A742E9D100278BF80070002A8BF8CB
:1037500006A00FBF0022531ECBF830301A460C795A
:10376000A742DDD049798F42C0D100278BF8007085
:10377000002A8BF806A00FBF0022531ECBF8303072
:103780001A46B3E705F0040900264FF0010A1A466D
:1037900004E000BF0436B1453FF44AAE81198C788D
:1037A000A74221D100278BF80870002A8BF80EA0C1
:1037B0000FBF0022531ECBF830301A46CC78A742F8
:1037C00015D00C79A74221D100278BF80870002A68
:1037D0008BF80EA00FBF0022531ECBF830301A46D4
:1037E00049798F42D6D114E0CC78A742E9D100279D
:1037F0008BF80870002A8BF80EA00FBF0022531E12
:10380000CBF830301A460C79A742DDD049798F4287
:10381000C0D100278BF80870002A8BF80EA00FBFCC
:103820000022531ECBF830301A46B3E705F00409E6
:1038300000264FF0010A1A4604E000BF0436B145E5
:103840003FF438AE81198C78A74221D100278BF83C
:103850001070002A8BF816A00FBF0022531ECBF861
:1038600030301A46CC78A74215D00C79A74221D126
:1038700000278BF81070002A8BF816A00FBF0022CB
:10388000531ECBF830301A4649798F42D6D114E016
:10389000CC78A742E9D100278BF81070002A8BF86A
:1038A00016A00FBF0022531ECBF830301A460C79F9
:1038B000A742DDD049798F42C0D100278BF8107024
:1038C000002A8BF816A00FBF0022531ECBF8303011
:1038D0001A46B3E705F004010027012604E000BF03
:1038E0000437B9423FF427AEC519AC78A2421FD1C4
:1038F00000228BF81820002B8BF81E601ABF013BAA
:10390000CBF830300023EC78A24214D02C79A242BC
:103910001FD100228BF81820002B8BF81E601ABFD5
:10392000013BCBF8303000236D79AA42D8D113E0A7
:10393000EC78A242EAD100228BF81820002B8BF8F9
:103940001E601ABF013BCBF8303000232C79A24215
:10395000DFD06D79AA42C3D100228BF81820002B4A
:103960008BF81E601ABF013BCBF830300023B7E75D
:103970009BF80620012A0FD1022C8BF800108BF83F
:1039800004507FF676AE0021CBF8201000218BF892
:103990000610012101E000BF0021B942BFF48EAE44
:1039A0009BF808301AF8012093420BD1022C8BF8B7
:1039B0000C5011D848F6B853F2B2C0F6000353F8D1
:1039C00022200AE09BF80E30012B0CD1032C8BF83F
:1039D00008208BF80C50EDD30022CBF824200022D5
:1039E00001318BF80E20B942BFF468AE9BF810305D
:1039F0001AF8012093420BD1022C8BF8145011D8E5
:103A000048F6B853F2B2C0F6000353F822200AE099
:103A10009BF81630012B0CD1032C8BF810208BF85F
:103A20001450EDD30022CBF82820002201318BF86E
:103A30001620B942BFF442AE9BF818201AF80110C4
:103A40008A420BD1022C8BF81C5012D848F6B8527F
:103A5000F1B2C0F6000252F821100BE09BF81E20D4
:103A6000012A7FF42BAE032C8BF818108BF81C5016
:103A7000ECD30021CBF82C1000211DE6F0B583B06B
:103A800042780A39002311F1060F019308D8132058
:103A90002321132403F0B0FC204603B0F0BD00BF87
:103AA000140902F00F05611E6A1E1143042939D260
:103AB000861C02A831462A46FCF756FB711901A85C
:103AC0002246FCF751FB0298202600BAA6EBC5015E
:103AD00020FA01F5019F284603F02CFC10B339BAF7
:103AE000A6EBC402836821FA02F49C42CFD8466850
:103AF00003F01AFD26FA00F0C0071BD044F640661A
:103B0000C2F200066320314601F8010B2846224626
:103B100001F0C0F8611C304603F006FE0024204688
:103B200003B0F0BD31202321312403F065FC204691
:103B300003B0F0BD33202321332403F05DFC204685
:103B400003B0F0BD70B5022924D9B0F8016070BA95
:103B500003F014FC30B30446007C18B3656803F02E
:103B6000E3FC25FA00F0C00724D045F24025C2F25C
:103B7000000564202870D4E90520E91CA5F801603F
:103B800001F088F86069C11C284603F0CDFD0020D3
:103B900070BD00BF13202421132403F02DFC204608
:103BA00070BD00BF31202421312403F025FC2046C4
:103BB00070BD00BF33202421332403F01DFC2046B8
:103BC00070BD000070B540F26025C2F20005286BA0
:103BD000002800F0EC80A87918B9286A50B30138A1
:103BE000286200240020A97B00295CD1696A0A466A
:103BF000002918BF0122024304D000291CBF01394B
:103C0000696250E0297B45F24066287A4FF6F272ED
:103C10000139C2F20006C0F2FF02C9B230700229B7
:103C200062F31F201ED848F6B852C0F6000252F8C0
:103C3000211018E0297945F2406628784FF6F27293
:103C40000139C2F20006C0F2FF02C9B23070022987
:103C500062F31F2016D848F6B852C0F6000252F898
:103C6000211010E0002180B2696203F087FB044656
:103C7000D0E90220711C01F00DF8A068441C01205D
:103C800011E000BF002180B2296203F077FB0446F7
:103C9000D0E90220711C00F0FDFFA068441C012047
:103CA000A97B0029A2D0A97D71B1A97F00296AD181
:103CB000E96A00290A4618BF0122104314D00029DE
:103CC0001CBF481EE8625EE0A96A0A46002918BFC8
:103CD0000122024320D000291CBF0139A962A97F1B
:103CE0000029E5D04FE000BF297F45F24066287EDD
:103CF0004FF6F2720139C2F20006C0F2FF02C9B2F9
:103D00003070022962F31F201ED848F6B852C0F660
:103D1000000252F8211018E0297D45F24066287C07
:103D20004FF6F2720139C2F20006C0F2FF02C9B2C8
:103D30003070022962F31F2014D848F6B852C0F63A
:103D4000000252F821100EE0002180B2E96203F077
:103D500015FB0446D0E90220711C00F09BFFA0680F
:103D6000441C10E0002180B2A96203F007FB044666
:103D7000D0E90220711C00F08DFFA068441C0120D6
:103D8000A97F002994D0002C08BF70BD686B03F098
:103D90002DFB014606A004F067FD45F24060C2F22B
:103DA0000000214603F0C0FC03F01EFB686370BDF9
:103DB0005B434841524F4E5D2074696D6520257804
:103DC000000000002DE9F04FADF2044D0C46054611
:103DD00001A84FF48061FCF7E0F9032C0ED9B5F887
:103DE00001A09AFA9AF003F0C9FA28B38168033166
:103DF0000ED0A1420CD213202E2101E013202A2143
:103E0000132403F0F9FA20460DF2044DBDE8F08FBB
:103E10004668074603F088FB26FA00F0C0070BD07F
:103E2000387F98B122202E21222403F0E5FA204683
:103E30000DF2044DBDE8F08F31202E21312403F026
:103E4000DBFA20460DF2044DBDE8F08F4FF6FD7011
:103E500004443946F868EF1C1FFA84F90E463946C7
:103E60004A4600F027FFF0680DF1040B59464A4618
:103E700000F010FFB9F1000F08D0B9F1040F04F001
:103E8000030C009704D20022002022E000203EE034
:103E9000A9EB0C0E00220020A9181BF80240CF78D5
:103EA0000BEB02060B7991F805808979BC4208BFBB
:103EB00001307478B778F6789C4208BF01304745E6
:103EC00008BF01308E4202F1040208BF013096455E
:103ED000E2D1009FBCF1000F19D01BF80230BE5C8C
:103EE000B34208BF0130BCF1010F10D0531C1BF8C6
:103EF0000360FB5C9E4208BF0130BCF1020F06D09C
:103F0000911C1BF80120795C8A4208BF013080B205
:103F1000484511D145F64020C2F200006E210170E3
:103F20000321A0F801A003F0FFFB002420460DF2BE
:103F3000044DBDE8F08F00BF72202E21722403F0E3
:103F40005BFA20460DF2044DBDE8F08F2DE9F04FED
:103F500085B0477800220429039209D813203D2117
:103F6000132403F049FA204605B0BDE8F08F00BFE6
:103F70003C0907F00F05621E6B1E1A43042A3BD250
:103F800004AA0291811C064610462A4605F1020A3F
:103F9000FCF7EAF806EB0A0103A822460196FCF7B3
:103FA000E3F804982021039A00BAA1EBC50B20FA8C
:103FB0000BF610BAA1EBC40120FA01F83046CDF897
:103FC0000C8003F0B7F9B8B181688845C6D8D0F83D
:103FD0000490804603F0A8FA29FA00F0C00715D033
:103FE00098F81C00E0B122203D21222403F004FABD
:103FF000204605B0BDE8F08F31203D21312403F08B
:10400000FBF9204605B0BDE8F08F00BF33203D210D
:10401000332403F0F1F9204605B0BDE8F08F00BF6E
:1040200001980AEB171900EB09010298A0EB0902AD
:10403000304600F03FFE45F64068C2F200087D20A1
:1040400088F8000030BA20FA0BF0049008F1020062
:1040500004A92A4688F80170FCF786F808EB0A00E4
:1040600003A92246FCF780F84046494603F05CFB72
:104070000024204605B0BDE8F08F000080B502A006
:1040800004F0F2FB112080BD5B434841524F4E5D6E
:10409000204163636573732054696D696E672050B6
:1040A0006172616D657465722053657276696365CE
:1040B000205349443A307838332054726967676531
:1040C0007265640080B502A004F0CEFB112080BDB3
:1040D0005B434841524F4E5D20436F6D20436F6EEE
:1040E00074726F6C2053657276696365205349441E
:1040F0003A307832382054726967676572656400B7
:104100002DE9F043A9B080462DA00D4604F0ACFB8C
:1041100003F00AFA042801D002280BD17F20852160
:104120007F2403F069F934A004F09EFB204629B0F7
:10413000BDE8F0834FF6FE702C1849F28C2098F8F9
:104140000160C0F6000004F08FFBA5B20DB313A808
:10415000002700F1100440F2480900BF08EB0700F7
:104160008178B0F803008DF84D100337ADF84E009C
:104170006846494622468DF8A16052F8043B04394E
:1041800040F8043BF9D113AB0FCB01F0D5FAAF42A5
:10419000E4D346F24020C2F20000C52198F8012085
:1041A00001700221427003F0BFFA49F2642000243A
:1041B000C0F6000004F058FB204629B0BDE8F083AB
:1041C0005B434841524F4E5D20436F6E74726F6C7B
:1041D000204454432053657474696E67205365729C
:1041E00076696365205349443A30783835205472F3
:1041F00069676765726564005B434841524F4E5D75
:10420000205365727669636520696E2063757272EA
:10421000656E742073657373696F6E206E6F7420A2
:10422000616C6C6F7765642E0000000070B582B021
:1042300002290DD1407800F07F04611FC9B2FB292B
:1042400014D82DA0214604F00FFB122407E000BF74
:1042500049F2B320C0F6000004F006FB1324204608
:10426000102103F0C9F8204602B070BD45B219A074
:10427000214604F0F9FA48F6F070C0F6000000EBB1
:10428000C401B5F1FF3F19DD4D684CF6CD41CCF6C8
:10429000CC41A5FB0112502150F83460D0088DF8B4
:1042A0000210ADF806000DF1020006218DF8034062
:1042B000ADF8046003F038FA03E000BF50F8346052
:1042C0004D68204631462A4603F00AFA002420466B
:1042D00002B070BD5B434841524F4E5D2043686160
:1042E0006E67696E672053657373696F6E20746FB4
:1042F00020307825782E00005B434841524F4E5DB8
:104300002053657373696F6E203078257820756E41
:104310006B6E6F776E206F7220696E76616C696468
:104320002100000080B502A004F09EFA112080BD9B
:104330005B434841524F4E5D2045435520526573C3
:1043400065742053657276696365205349443A3039
:1043500078313120547269676765726564000000C6
:1043600080B502A004F080FA112080BD5B43484173
:10437000524F4E5D204C696E6B20436F6E74726FAE
:104380006C2053657276696365205349443A3078EE
:1043900038372054726967676572656400000000F1
:1043A00080B502A004F060FA112080BD5B43484153
:1043B000524F4E5D20526573706F6E7365204F6E65
:1043C000204576656E742053657276696365205367
:1043D00049443A30783836205472696767657265A7
:1043E0006400000080B502A004F03EFA112080BDF8
:1043F0005B434841524F4E5D20536563757265645F
:104400002044617461205472616E736D69737369C5
:104410006F6E2053657276696365205349443A3064
:1044200078383420547269676765726564000000EB
:1044300080B502A004F018FA112080BD5B4348410A
:10444000524F4E5D205365637572697479204163E4
:1044500063657373205349443A307832372054727D
:10446000696767657265640010B582B0022905D17D
:104470004178490614D0122412A004E049F2B32076
:104480001324C0F6000004F0EFF920463E2102F0AC
:10449000B3FF17A004F0E8F9204602B010BD00BF3A
:1044A000044603F037F994F90100002807D47E2070
:1044B000ADF806000DF10600022103F035F90024E5
:1044C000E7E700BF5B434841524F4E5D20537562A2
:1044D00066756E6374696F6E206973206E6F7420E9
:1044E00030783030206F7220307838302E00000065
:1044F0005B434841524F4E5D205465737465722092
:1045000050726573656E74205365727669636520B9
:104510005349443A3078334520547269676765726D
:1045200065640000704700002DE9F04F03AF81B0D3
:10453000032907D876A004F097F913202F2113241C
:1045400028E000BF47F2B422C2F2000290F801E076
:10455000136890F8029049EA0E22A3B11E88964291
:1045600020D05B697BB11E8896421BD05B6953B13A
:104570001E88964216D05B692BB11E88964211D0D8
:104580005B69002BEAD157A0114604F06DF9312088
:104590002F21312402F030FF2046A7F10C04A5465C
:1045A000BDE8F08F0A46C178042905D349F2D72027
:1045B000C0F60000E9E700BF03290DD1DE6800F175
:1045C00004080436B4B294420BD34FF0010C07F840
:1045D0000DCCA7F10D060CE04FF000080424944226
:1045E000F3D2121B01321FFA82FCBCF1000F1AD069
:1045F00006190122002516F9014BB4F1FF3F42DDF7
:10460000E4B23F2C32D81F2C32D80F2C32D8072CD2
:1046100032D8032C32D8012C32D89CBB01356545E9
:1046200002F10802E7D3D968E8460B3121F007010F
:10463000ADEB0106B5466F213170C078D3E9035167
:10464000F070301D2A4686F801E086F80290FBF7EC
:104650008BFD291D304603F067F80024C54620462F
:10466000A7F10C04A546BDE8F08F00BF01320AE0B7
:10467000023208E0033206E0043204E0053202E0D0
:10468000063200E007325C6834B3208892B2904270
:1046900020D1032916D8DD68DFE801F002060A0EF2
:1046A0006068C8B18047D8B1A068A8B18047B8B1E8
:1046B000E06888B1804798B122696AB140462946CE
:1046C000904768B131242046A7F10C04A546BDE807
:1046D000F08F00BFFEE700BF312420462F2159E7AD
:1046E0002224FAE75B434841524F4E5D20436F75E9
:1046F0006C64206E6F742066696E64207468652037
:10470000494F204449442030782530347800000057
:104710005B434841524F4E5D20556E65787065632E
:10472000746564206D657373616765206C656E6781
:1047300074682E00014440F25D720020914238BF3F
:1047400001207047B0B540F29825C2F200052C1D3B
:10475000204603F021FE43F2E420C2F2000040F2C2
:104760005C71FBF71AFDFEF7D7FA2878002808BF1E
:1047700000F064F800F068FE43F2E421C2F20001A8
:104780002046BDE8B04003F06DBF000010B540F218
:104790009824C2F200042078002808BF00F04EF8E8
:1047A00000F052FE43F2E421201DC2F2000103F0AA
:1047B00059FF002818BF722010BD000043F2E42208
:1047C000C2F20002582300FB0320002908BF00F1B9
:1047D000500210467047000043F2E420C2F200008D
:1047E0007047000043F2E422C2F20002582300FBAB
:1047F0000320002908BF00F1500210467047000056
:1048000043F2E42100EB4010C2F20001084400F53D
:10481000DB60704743F2E42100EB4010C2F200017C
:10482000084400F5BA60704743F2E42100EB401001
:10483000C2F20001084400F2546070472DE9F04FC5
:10484000C3B040F29828C2F2000808F104044EF206
:104850000001C0F607012046022240F25C7303F01B
:10486000C9FD43F2E425C2F200052046294603F0C3
:10487000A5FE002840F0CC80A86C4BF6EF61CDF689
:10488000AD61884240F0C4802889002800F0C080D3
:1048900000200DE091F85C2002EB42122A4402F560
:1048A000DB625830B0F5B06FC1F8A02000F0AA80EC
:1048B0002918B1F86A20002A66D091F8542002EB3A
:1048C00042122A4402F5BA62B1F86C300A67002B32
:1048D00060D091F8552002EB42122A4402F5BA62E8
:1048E000B1F86E304A67002B5AD091F8562002EB8F
:1048F00042122A4402F5BA62B1F87E308A67002B70
:1049000054D091F8572002EB42122A4402F254622A
:10491000B1F88030C1F88420002B4ED091F8582097
:1049200002EB42122A4402F25462B1F88230C1F81A
:104930008820002B48D091F8592002EB42122A44DB
:1049400002F25462B1F89230C1F88C20002B42D0B0
:1049500091F85A2002EB42122A4402F5DB62B1F8C8
:104960009430C1F89820EBB391F85B2002EB42122F
:104970002A4402F5DB62B1F89630C1F89C20002B86
:104980007FF488AF36E000BF0022B1F86C300A67D0
:10499000002B9ED10022B1F86E304A67002BA4D1C3
:1049A0000022B1F87E308A67002BAAD10022B1F82C
:1049B0008030C1F88420002BB0D10022B1F88230C1
:1049C000C1F88820002BB6D10022B1F89230C1F88E
:1049D0008C20002BBCD10022B1F89430C1F8982073
:1049E000002BC1D10022B1F89630C1F89C20002BD9
:1049F0007FF450AF00225830B0F5B06FC1F8A0205E
:104A00007FF456AF012088F8000043B0BDE8F08F76
:104A100043F2E420C2F2000040F25C71FBF7BDFB00
:104A2000012688F80060FEF777F90DF1B40909F165
:104A3000040528465421FBF7B0FB40F22F10C1F2C9
:104A400000602D9040F22F10ADF8080142F6207062
:104A5000C3F220304FF0030B002740F20152CDF893
:104A6000C100ADF8CEB0ADF8E260ADF8F660CDE9CA
:104A700024270122C1F2402209F1100069464EF6B6
:104A8000016ACDE912274822CDE92A772C97CDE992
:104A90002277CDE92677CDE92877CDE91A7ACDE9D5
:104AA0001C77CDE91E77CDE92077CDE91477CDE9E4
:104AB0001677CDE9187750F8043B043A41F8043BE7
:104AC000F9D12DAB0FCB01F06DF828465421FBF73F
:104AD00064FB40F22B20C1F200702D9040F22B10AD
:104AE000ADF8080142F64030C3F2403040F20122F6
:104AF000CDF8C100ADF8CEB0ADF8E260ADF8F6602B
:104B0000CDE924270122C2F2502209F110006946A2
:104B1000CDE912274822CDE92A772C97CDE92277D3
:104B2000CDE92677CDE92877CDE91A7ACDE91C774A
:104B3000CDE91E77CDE92077CDE91477CDE9167759
:104B4000CDE9187750F8043B043A41F8043BF9D119
:104B50002DAB0FCB01F026F828465421FBF71DFBA7
:104B600040F20130C1F200102D9040F2601040F28E
:104B70000111C3F26030ADF80811CDF8C100ADF8F5
:104B8000CEB0ADF8E260ADF8F660CDE924170121B2
:104B9000C3F2603109F110006A46CDE912174821CD
:104BA000CDE92A772C97CDE92277CDE92677CDE993
:104BB0002877CDE91A7ACDE91C77CDE91E77CDE9C2
:104BC0002077CDE91477CDE91677CDE9187750F83D
:104BD000043B043942F8043BF9D12DAB0FCB00F074
:104BE000E1FF28465421FBF7D8FA4CF208102D902B
:104BF0004FF48470ADF8080140F68000CDF28000DB
:104C0000022140F20132CDF8C100ADF8CE10ADF86E
:104C1000E260ADF8F660CDE9242741F20122C0F24E
:104C2000340209F110006946CDE912274822CDE986
:104C30002A772C97CDE92277CDE92677CDE9287719
:104C4000CDE91A7ACDE91C77CDE91E77CDE9207739
:104C5000CDE91477CDE91677CDE9187750F8043B04
:104C6000043A41F8043BF9D12DAB0FCB00F09AFF89
:104C700098F80000002808BFFFF7E0FD00F0E4FB13
:104C800043F2E421C2F20001204643B0BDE8F04FF8
:104C900003F0E8BC02EB000C40F25C739C4588BF5B
:104CA000704743F2E423C2F2000303440846194666
:104CB000FBF75ABA10B5131840F25C74A3421DD822
:104CC00043F2E423C2F200031844FBF74DFA40F22A
:104CD0009824C2F200042078002808BFFFF7AEFD38
:104CE00000F0B2FB43F2E421201DC2F2000103F008
:104CF000B9FC002818BF7220C0B210BD3120C0B26C
:104D000010BD000010B582B0042901D2132405E0C3
:104D100041780A1F12F1030F08D2122420463121D4
:104D200002F06AFB204602B010BD00BF01294FF01F
:104D30003104F3D1418849BAB1F57F4FEED1044631
:104D4000FFF700FD2078617840F040008DF8040006
:104D500060888DF80510ADF8060001A8042102F066
:104D6000E3FC0024204602B010BD00000146932859
:104D70000FF2EC2088BF7047DFE811F09400DD00EF
:104D8000DD00DD00DD00DD00DD00DD00DD00DD003B
:104D9000DD00DD00DD00DD00DD00DD0020012C0197
:104DA00040010E01F000DD00DD00DD00DD00DD0072
:104DB000DD00DD00DD00DD00DD00DD00DD00F600F2
:104DC000D600DD00EA00B200DE00DD00DD00DD001F
:104DD000DD00DD00DD00DD00DD00DD00DD002601A1
:104DE000DD001401DD00C40046014C01DD00DD00E2
:104DF000DD00DD00DD00DD00DD00DD00DD00DD00CB
:104E0000DD00DD00DD00DD00DD00DD00DD00DD00BA
:104E1000DD00DD00DD00DD00DD00DD00DD00DD00AA
:104E2000DD00DD00DD00DD00DD00DD00DD00DD009A
:104E3000DD00DD00DD00DD00DD00DD00DD00DD008A
:104E4000DD00DD00DD00DD00DD00DD00DD00DD007A
:104E5000DD00DD00DD00DD00DD00DD005E0158016C
:104E6000AC001A01DD00DD00DD00DD006401DD00C5
:104E7000DD00DD00DD00DD00BE000801DD00D0004A
:104E80003201CA00A6006A01E400FC003A010201F6
:104E90009A00B80052017001DD00A4003801A200A0
:104EA000A000DC0049F2FC30C0F60000704700BFF3
:104EB00049F29040C0F60000704700BF71A07047F3
:104EC00074A0704780A0704749F24640C0F60000C9
:104ED000704700BF49F2E230C0F60000704700BFE3
:104EE00049F24570C0F60000704700BF49F2BC703F
:104EF000C0F60000704700BF49F22950C0F600001C
:104F0000704700BF49F2DA70C0F60000704700BF7A
:104F100049F23640C0F60000704700BF49F2A54094
:104F2000C0F60000704700BF49F21370C0F60000E1
:104F3000704700BF4FA0704749F27E50C0F6000096
:104F4000704700BF49F27D40C0F60000704700BFC7
:104F500049F27960C0F60000704700BF49F259403D
:104F6000C0F60000704700BF49F27170C0F6000043
:104F7000704700BF49F2AA70C0F60000704700BF3A
:104F800049F28370C0F60000704700BF49F2065036
:104F9000C0F60000704700BF49F2DF60C0F60000B5
:104FA000704700BF49F25930C0F60000704700BF9B
:104FB00049F25F60C0F60000704700BF49F205701B
:104FC000C0F60000704700BF49F2D030C0F60000C4
:104FD000704700BF49F2A430C0F60000704700BF20
:104FE00049F2D070C0F60000704700BF30A0704793
:104FF00049F26940C0F60000704700BF49F2B8307E
:10500000C0F60000704700BF49F2C660C0F600005D
:10501000704700BF49F26E30C0F60000704700BF15
:1050200049F2B040C0F60000704700BF49F243307B
:10503000C0F60000704700BF49F28A30C0F6000099
:10504000704700BF49F20D40C0F60000704700BF36
:1050500049F29670C0F60000704700BF20A070476C
:10506000756E6B6E6F776E2072657475726E2063ED
:105070006F646500566F6C74616765546F6F4C6F39
:1050800077000000566F6C74616765546F6F4869F4
:1050900067680000546F72717565436F6E76657254
:1050A000746572436C757463684C6F636B65640000
:1050B000536869667465724C657665724E6F7449A3
:1050C0006E5061726B0000004272616B65537769CC
:1050D00074636865734E6F74436C6F73656400002E
:1050E0005472616E736D697373696F6E4E6F74493C
:1050F0006E47656172000000A0F11001772984A05D
:1051000088BF7047DFE811F07800B60001010101A7
:10511000D0000101010101010101AA000101010109
:10512000010101010101010101010101B000DC00E7
:105130009E0001010101A400C4000101BE000101A3
:10514000E800010190008A000101F4000101010161
:10515000CA00D600EE00E2007E000101010101015B
:1051600001019800FA00010184000101010101011F
:10517000010101010101010101010101010101011F
:10518000010101010101010101010101010101010F
:1051900001010101010101010101010101010101FF
:1051A00001010101010101010101010101010101EF
:1051B00001010101010101010101010101010101DF
:1051C00001010101010101010101010101010101CF
:1051D00001010101010101010101010101010101BF
:1051E0000101010101019600010101010101880095
:1051F000BC0086000201000149F2D840C0F6000060
:10520000704700BF49F2A850C0F60000704700BFC9
:105210005FA0704748A0704752A0704749F24060B5
:10522000C0F60000704700BF49F20E60C0F60000F3
:10523000704700BF51A0704749F2B160C0F600004E
:10524000704700BF49F22460C0F60000704700BFFD
:1052500049F28E60C0F60000704700BF49F26B5003
:10526000C0F60000704700BF49F2F950C0F60000D8
:10527000704700BF49F22870C0F60000704700BFB9
:1052800032A0704749F2DC50C0F60000704700BF02
:1052900049F2F140C0F60000704700BF49F22530E6
:1052A000C0F60000704700BF49F25050C0F6000041
:1052B000704700BF49F23530C0F60000704700BFAC
:1052C00049F29D60C0F60000704700BF49F231709E
:1052D000C0F60000704700BF49F2BC50C0F60000A5
:1052E000704700BF49F21830C0F60000704700BF99
:1052F00049F2C940C0F60000704700BF49F2637030
:10530000C0F60000704700BF04A0704706A07047B9
:10531000756E6B6E6F776E20736964004C696E6B8F
:10532000436F6E74726F6C00526573706F6E73654D
:105330004F6E4576656E7400436F6E74726F6C4489
:10534000746353657474696E670000005365637518
:10535000726564446174615472616E736D697373D4
:10536000696F6E0041636365737354696D696E673D
:10537000506172616D657465720000004E65676111
:1053800074697665526573706F6E73650000000016
:10539000506F736974697665526573706F6E73656B
:1053A0004D61736B0000000080B540F2C00EC2F288
:1053B000000E714611F8D03F834242D04FF01401E5
:1053C00088BF06210B011EF80330834204BF0EEB99
:1053D000011080BD4FF0040388BF6FF00303CA18AB
:1053E00011011EF80110814204BF0EEB021080BDB6
:1053F0001346172A28BF172303F1020C814288BFE6
:10540000A2F1020C4FEA0C111EF80110814204BFF8
:105410000EEB0C1080BD05D9BCF1010338BF002391
:1054200007E000BFBCF1180F28BF4FF0180C0CF1BB
:10543000010319011EF801200021824208BF0EEB72
:105440000311084680BD000010B500200121FFF7C0
:10545000C9F90446002021464C2201F099F8102198
:1054600001F058F8A4F84C0010BD0000F0B585B06C
:1054700046788578C4784AF27E10C0F600000F4660
:1054800003F0F2F9042F3DD1280240EA06402044FF
:10549000B0F5807F42D300F17F412F3101F1D1027D
:1054A000332A3BD301F19D029C2A37D32C2935D9CD
:1054B000B0F5700F40DB4FF6CF71C0F2FF018842AC
:1054C0006ADD4FF6D071C0F2FF01884200F0A08083
:1054D0004FF6FE71C0F2FF01884200F0BB806FF012
:1054E0007F41884240F0C28049F6C870C0F6000093
:1054F00003F0BAF900200127CDE90000CDE9020050
:10550000BFE000BF13201421132401F075FF6AA02F
:1055100003F0AAF9204605B0F0BD00BF31201421E8
:10552000312401F069FF49F66670C0F6000003F00F
:105530009BF9204605B0F0BDB0F5300F18DAB0F594
:10554000807F3FD040F20651C0F20401884240F013
:105550008D8031201421312401F04EFF4AF20D00DC
:10556000C0F6000003F080F9204605B0F0BD00BF92
:105570003ED0B0F5500F79D166A003F075F94FF623
:10558000FF700027C0F2EF000123CDE90007CDE94D
:105590000277C0F2D00358E0B0F5700F44D04FF658
:1055A0003371C0F2FF01884260D14AF2D100C0F6E7
:1055B000000003F059F900270120CDE90077CDE97B
:1055C00002705EE04AF22D10C0F6000003F04CF9C4
:1055D0004FF6FF700027C0F2AF00CDE90007CDE91C
:1055E000027730462946224640F201134DE000BFC3
:1055F0004AF25710C0F6000003F036F94FF6FF707C
:10560000C0F2AF00831C00F50010002719E000BFB6
:105610004AF20010C0F6000003F026F9002701202E
:10562000CDE9007702902BE02CA003F01DF94FF696
:10563000FF70C0F2EF00831C4FF6FF600027C0F23E
:10564000FF00CDE90007CDE9027730462946224622
:105650001BE000BF4AF2AD00C0F6000003F004F901
:1056600000270120CDE9007009E000BF49F6A470D1
:10567000C0F6000003F0F8F80027CDE900770297A4
:1056800003973046294622460023049700F0ECFF9A
:1056900046F24220C2F2000054210170012102F0C2
:1056A00043F849F63410C0F6000003F073FB002401
:1056B000204605B0F0BD00BF5B434841524F4E5DF0
:1056C00020556E6578706563746564206D657373CD
:1056D000616765206C656E6774682E005B434841A6
:1056E000524F4E5D2053746172742064656C657412
:1056F000696E67204E4554574F524B5F434F4D4D97
:10570000554E49434154494F4E2067726F75702E74
:10571000000000005B434841524F4E5D20537461CE
:1057200072742064656C6574696E6720424F4459D9
:105730002067726F75702E0084B0B0B582B00DF125
:10574000180C8CE80F009DF819009DF81A109DF8B0
:105750001B209DF86D50002400230094019401F05B
:1057600071FB00281CBF002D80F8555002B0BDE829
:10577000B04004B070470000F0B581B00D4604465B
:1057800000200121FFF72EF806460FF2843003F0C7
:1057900001FBB06C4BF6EF61CDF6AD61884218BFEE
:1057A000FDF7BAFA002031464C2200F0F1FE10213C
:1057B00000F0B0FEB6F84C1087B2B94240F0548009
:1057C00060780138412800F26181DFE810F0430081
:1057D000FF00A100F100AD00D7001B0129016D0100
:1057E00053019500E500C5007100370145018101B5
:1057F0007B015F00D10091016500BB0087000D01B6
:105800005F015F015F015F015F015F015F015F0198
:105810005F015F015F015F015F015F015F015F0188
:105820005F015F015F015F015F015F015F015F0178
:105830005F015F015F015F015F015F015F015F0168
:105840005F015F015F015F015F015F015F015F0158
:105850007D0000BF49F6B930C0F6000003F09AFAA7
:10586000204600213CE100BF26201921262401F01A
:10587000C3FDB6F84C1049F6EE00C0F600003A46FB
:1058800002F0F2FF204601B0F0BD00BF49F67C30C7
:10589000C0F6000030E100BF49F6B460C0F6000079
:1058A00003F078FAA07801B0BDE8F040FAF76ABFDB
:1058B00049F6EA10C0F6000003F06CFAFCF77AFF34
:1058C0000024204601B0F0BDA0A003F063FA2046FA
:1058D00001B0BDE8F040FDF7CBB800BF49F62C6041
:1058E000C0F6000003F056FA2046012101B0BDE8E1
:1058F000F040FBF7A1B800BF49F6B610C0F60000B3
:1059000003F048FAFBF744FB0024204601B0F0BD49
:1059100049F6E340C0F6000003F03CFA01B0BDE8F0
:10592000F040FAF7B9BF00BF49F67760C0F6000053
:1059300003F030FA2046294601B0BDE8F040FBF7FD
:10594000D7B900BF49F62340C0F6000003F022FAA1
:10595000204600210122C4E049F67D10C0F6000077
:1059600003F018FAFCF754FF0024204601B0F0BD04
:1059700049F6F460C0F60000BEE000BF49F61E50D4
:10598000C0F6000003F006FA20460021002201B014
:10599000BDE8F040FAF7C0BD49F62220C0F600008D
:1059A00003F0F8F9FBF7C6FA0024204601B0F0BD79
:1059B00049F6EE50C0F6000003F0ECF92046002155
:1059C00001B0BDE8F040FBF737B800BF49F6F23050
:1059D000C0F6000003F0DEF9A078002101B0BDE8B8
:1059E000F040FAF727BD00BF49F65B50C0F6000053
:1059F00003F0D0F920460021012201B0BDE8F040BB
:105A0000FAF78ABD49F6BD20C0F6000003F0C2F9DE
:105A1000A078E178FCF72CFF0024204601B0F0BD0F
:105A200049F6FE20C0F6000003F0B4F9A078E17852
:105A300001B0BDE8F040FAF797BC00BF49F6A640B8
:105A4000C0F6000003F0A6F9A078012101B0BDE87E
:105A5000F040FAF7EFBC00BF49F6A550C0F60000D1
:105A600003F098F920460121002201B0BDE8F04082
:105A7000FAF752BD49F65520C0F6000003F08AF946
:105A800001B0BDE8F040FCF787BF00BF122019212C
:105A9000122401F0B1FC49F65310C0F6000003F0E7
:105AA00079F9204601B0F0BD49F68320C0F6000028
:105AB00003F070F92046FCF729FF0024204601B0CE
:105AC000F0BD00BF49F63730C0F6000014E000BF5B
:105AD00049F66140C0F6000003F05CF92046012160
